{
  "_format": "hh-sol-artifact-1",
  "contractName": "exchangeNFT",
  "sourceName": "contracts/exchangeCentralised.sol",
  "abi": [
    {
      "inputs": [],
      "stateMutability": "nonpayable",
      "type": "constructor"
    },
    {
      "anonymous": false,
      "inputs": [
        {
          "indexed": true,
          "internalType": "address",
          "name": "owner",
          "type": "address"
        },
        {
          "indexed": true,
          "internalType": "address",
          "name": "approved",
          "type": "address"
        },
        {
          "indexed": true,
          "internalType": "uint256",
          "name": "tokenId",
          "type": "uint256"
        }
      ],
      "name": "Approval",
      "type": "event"
    },
    {
      "anonymous": false,
      "inputs": [
        {
          "indexed": true,
          "internalType": "address",
          "name": "owner",
          "type": "address"
        },
        {
          "indexed": true,
          "internalType": "address",
          "name": "operator",
          "type": "address"
        },
        {
          "indexed": false,
          "internalType": "bool",
          "name": "approved",
          "type": "bool"
        }
      ],
      "name": "ApprovalForAll",
      "type": "event"
    },
    {
      "anonymous": false,
      "inputs": [
        {
          "indexed": false,
          "internalType": "uint256",
          "name": "_fromTokenId",
          "type": "uint256"
        },
        {
          "indexed": false,
          "internalType": "uint256",
          "name": "_toTokenId",
          "type": "uint256"
        }
      ],
      "name": "BatchMetadataUpdate",
      "type": "event"
    },
    {
      "anonymous": false,
      "inputs": [
        {
          "indexed": false,
          "internalType": "uint256",
          "name": "_tokenId",
          "type": "uint256"
        }
      ],
      "name": "MetadataUpdate",
      "type": "event"
    },
    {
      "anonymous": false,
      "inputs": [
        {
          "indexed": true,
          "internalType": "address",
          "name": "previousOwner",
          "type": "address"
        },
        {
          "indexed": true,
          "internalType": "address",
          "name": "newOwner",
          "type": "address"
        }
      ],
      "name": "OwnershipTransferred",
      "type": "event"
    },
    {
      "anonymous": false,
      "inputs": [
        {
          "indexed": true,
          "internalType": "address",
          "name": "from",
          "type": "address"
        },
        {
          "indexed": true,
          "internalType": "address",
          "name": "to",
          "type": "address"
        },
        {
          "indexed": true,
          "internalType": "uint256",
          "name": "tokenId",
          "type": "uint256"
        }
      ],
      "name": "Transfer",
      "type": "event"
    },
    {
      "inputs": [
        {
          "internalType": "address",
          "name": "to",
          "type": "address"
        },
        {
          "internalType": "uint256",
          "name": "tokenId",
          "type": "uint256"
        }
      ],
      "name": "approve",
      "outputs": [],
      "stateMutability": "nonpayable",
      "type": "function"
    },
    {
      "inputs": [
        {
          "internalType": "address",
          "name": "owner",
          "type": "address"
        }
      ],
      "name": "balanceOf",
      "outputs": [
        {
          "internalType": "uint256",
          "name": "",
          "type": "uint256"
        }
      ],
      "stateMutability": "view",
      "type": "function"
    },
    {
      "inputs": [
        {
          "internalType": "uint256",
          "name": "tokenId",
          "type": "uint256"
        }
      ],
      "name": "burn",
      "outputs": [],
      "stateMutability": "nonpayable",
      "type": "function"
    },
    {
      "inputs": [
        {
          "internalType": "uint256",
          "name": "tokenId",
          "type": "uint256"
        }
      ],
      "name": "getApproved",
      "outputs": [
        {
          "internalType": "address",
          "name": "",
          "type": "address"
        }
      ],
      "stateMutability": "view",
      "type": "function"
    },
    {
      "inputs": [
        {
          "internalType": "address",
          "name": "owner",
          "type": "address"
        },
        {
          "internalType": "address",
          "name": "operator",
          "type": "address"
        }
      ],
      "name": "isApprovedForAll",
      "outputs": [
        {
          "internalType": "bool",
          "name": "",
          "type": "bool"
        }
      ],
      "stateMutability": "view",
      "type": "function"
    },
    {
      "inputs": [],
      "name": "name",
      "outputs": [
        {
          "internalType": "string",
          "name": "",
          "type": "string"
        }
      ],
      "stateMutability": "view",
      "type": "function"
    },
    {
      "inputs": [],
      "name": "owner",
      "outputs": [
        {
          "internalType": "address",
          "name": "",
          "type": "address"
        }
      ],
      "stateMutability": "view",
      "type": "function"
    },
    {
      "inputs": [
        {
          "internalType": "uint256",
          "name": "tokenId",
          "type": "uint256"
        }
      ],
      "name": "ownerOf",
      "outputs": [
        {
          "internalType": "address",
          "name": "",
          "type": "address"
        }
      ],
      "stateMutability": "view",
      "type": "function"
    },
    {
      "inputs": [],
      "name": "renounceOwnership",
      "outputs": [],
      "stateMutability": "nonpayable",
      "type": "function"
    },
    {
      "inputs": [
        {
          "internalType": "address",
          "name": "to",
          "type": "address"
        },
        {
          "internalType": "string",
          "name": "uri",
          "type": "string"
        }
      ],
      "name": "safeMint",
      "outputs": [],
      "stateMutability": "nonpayable",
      "type": "function"
    },
    {
      "inputs": [
        {
          "internalType": "address",
          "name": "from",
          "type": "address"
        },
        {
          "internalType": "address",
          "name": "to",
          "type": "address"
        },
        {
          "internalType": "uint256",
          "name": "tokenId",
          "type": "uint256"
        }
      ],
      "name": "safeTransferFrom",
      "outputs": [],
      "stateMutability": "nonpayable",
      "type": "function"
    },
    {
      "inputs": [
        {
          "internalType": "address",
          "name": "from",
          "type": "address"
        },
        {
          "internalType": "address",
          "name": "to",
          "type": "address"
        },
        {
          "internalType": "uint256",
          "name": "tokenId",
          "type": "uint256"
        },
        {
          "internalType": "bytes",
          "name": "data",
          "type": "bytes"
        }
      ],
      "name": "safeTransferFrom",
      "outputs": [],
      "stateMutability": "nonpayable",
      "type": "function"
    },
    {
      "inputs": [
        {
          "internalType": "address",
          "name": "operator",
          "type": "address"
        },
        {
          "internalType": "bool",
          "name": "approved",
          "type": "bool"
        }
      ],
      "name": "setApprovalForAll",
      "outputs": [],
      "stateMutability": "nonpayable",
      "type": "function"
    },
    {
      "inputs": [
        {
          "internalType": "bytes4",
          "name": "interfaceId",
          "type": "bytes4"
        }
      ],
      "name": "supportsInterface",
      "outputs": [
        {
          "internalType": "bool",
          "name": "",
          "type": "bool"
        }
      ],
      "stateMutability": "view",
      "type": "function"
    },
    {
      "inputs": [],
      "name": "symbol",
      "outputs": [
        {
          "internalType": "string",
          "name": "",
          "type": "string"
        }
      ],
      "stateMutability": "view",
      "type": "function"
    },
    {
      "inputs": [
        {
          "internalType": "uint256",
          "name": "index",
          "type": "uint256"
        }
      ],
      "name": "tokenByIndex",
      "outputs": [
        {
          "internalType": "uint256",
          "name": "",
          "type": "uint256"
        }
      ],
      "stateMutability": "view",
      "type": "function"
    },
    {
      "inputs": [
        {
          "internalType": "address",
          "name": "owner",
          "type": "address"
        },
        {
          "internalType": "uint256",
          "name": "index",
          "type": "uint256"
        }
      ],
      "name": "tokenOfOwnerByIndex",
      "outputs": [
        {
          "internalType": "uint256",
          "name": "",
          "type": "uint256"
        }
      ],
      "stateMutability": "view",
      "type": "function"
    },
    {
      "inputs": [
        {
          "internalType": "uint256",
          "name": "tokenId",
          "type": "uint256"
        }
      ],
      "name": "tokenURI",
      "outputs": [
        {
          "internalType": "string",
          "name": "",
          "type": "string"
        }
      ],
      "stateMutability": "view",
      "type": "function"
    },
    {
      "inputs": [],
      "name": "totalSupply",
      "outputs": [
        {
          "internalType": "uint256",
          "name": "",
          "type": "uint256"
        }
      ],
      "stateMutability": "view",
      "type": "function"
    },
    {
      "inputs": [
        {
          "internalType": "address",
          "name": "from",
          "type": "address"
        },
        {
          "internalType": "address",
          "name": "to",
          "type": "address"
        },
        {
          "internalType": "uint256",
          "name": "tokenId",
          "type": "uint256"
        }
      ],
      "name": "transferFrom",
      "outputs": [],
      "stateMutability": "nonpayable",
      "type": "function"
    },
    {
      "inputs": [
        {
          "internalType": "address",
          "name": "newOwner",
          "type": "address"
        }
      ],
      "name": "transferOwnership",
      "outputs": [],
      "stateMutability": "nonpayable",
      "type": "function"
    }
  ],
  "bytecode": "0x60806040523480156200001157600080fd5b506040518060400160405280600b81526020017f65786368616e67654e46540000000000000000000000000000000000000000008152506040518060400160405280600581526020017f65784e4654000000000000000000000000000000000000000000000000000000815250816000908051906020019062000096929190620001a6565b508060019080519060200190620000af929190620001a6565b505050620000d2620000c6620000d860201b60201c565b620000e060201b60201c565b620002bb565b600033905090565b6000600b60009054906101000a900473ffffffffffffffffffffffffffffffffffffffff16905081600b60006101000a81548173ffffffffffffffffffffffffffffffffffffffff021916908373ffffffffffffffffffffffffffffffffffffffff1602179055508173ffffffffffffffffffffffffffffffffffffffff168173ffffffffffffffffffffffffffffffffffffffff167f8be0079c531659141344cd1fd0a4f28419497f9722a3daafe3b4186f6b6457e060405160405180910390a35050565b828054620001b49062000285565b90600052602060002090601f016020900481019282620001d8576000855562000224565b82601f10620001f357805160ff191683800117855562000224565b8280016001018555821562000224579182015b828111156200022357825182559160200191906001019062000206565b5b50905062000233919062000237565b5090565b5b808211156200025257600081600090555060010162000238565b5090565b7f4e487b7100000000000000000000000000000000000000000000000000000000600052602260045260246000fd5b600060028204905060018216806200029e57607f821691505b60208210811415620002b557620002b462000256565b5b50919050565b6138bd80620002cb6000396000f3fe608060405234801561001057600080fd5b50600436106101375760003560e01c80636352211e116100b8578063a22cb4651161007c578063a22cb4651461034e578063b88d4fde1461036a578063c87b56dd14610386578063d204c45e146103b6578063e985e9c5146103d2578063f2fde38b1461040257610137565b80636352211e146102a857806370a08231146102d8578063715018a6146103085780638da5cb5b1461031257806395d89b411461033057610137565b806323b872dd116100ff57806323b872dd146101f45780632f745c591461021057806342842e0e1461024057806342966c681461025c5780634f6ccce71461027857610137565b806301ffc9a71461013c57806306fdde031461016c578063081812fc1461018a578063095ea7b3146101ba57806318160ddd146101d6575b600080fd5b610156600480360381019061015191906126ab565b61041e565b60405161016391906126f3565b60405180910390f35b610174610430565b60405161018191906127a7565b60405180910390f35b6101a4600480360381019061019f91906127ff565b6104c2565b6040516101b1919061286d565b60405180910390f35b6101d460048036038101906101cf91906128b4565b610508565b005b6101de610620565b6040516101eb9190612903565b60405180910390f35b61020e6004803603810190610209919061291e565b61062d565b005b61022a600480360381019061022591906128b4565b61068d565b6040516102379190612903565b60405180910390f35b61025a6004803603810190610255919061291e565b610732565b005b610276600480360381019061027191906127ff565b610752565b005b610292600480360381019061028d91906127ff565b6107ae565b60405161029f9190612903565b60405180910390f35b6102c260048036038101906102bd91906127ff565b61081f565b6040516102cf919061286d565b60405180910390f35b6102f260048036038101906102ed9190612971565b6108a6565b6040516102ff9190612903565b60405180910390f35b61031061095e565b005b61031a610972565b604051610327919061286d565b60405180910390f35b61033861099c565b60405161034591906127a7565b60405180910390f35b610368600480360381019061036391906129ca565b610a2e565b005b610384600480360381019061037f9190612b3f565b610a44565b005b6103a0600480360381019061039b91906127ff565b610aa6565b6040516103ad91906127a7565b60405180910390f35b6103d060048036038101906103cb9190612c63565b610ab8565b005b6103ec60048036038101906103e79190612cbf565b610ae9565b6040516103f991906126f3565b60405180910390f35b61041c60048036038101906104179190612971565b610b7d565b005b600061042982610c01565b9050919050565b60606000805461043f90612d2e565b80601f016020809104026020016040519081016040528092919081815260200182805461046b90612d2e565b80156104b85780601f1061048d576101008083540402835291602001916104b8565b820191906000526020600020905b81548152906001019060200180831161049b57829003601f168201915b5050505050905090565b60006104cd82610c62565b6004600083815260200190815260200160002060009054906101000a900473ffffffffffffffffffffffffffffffffffffffff169050919050565b60006105138261081f565b90508073ffffffffffffffffffffffffffffffffffffffff168373ffffffffffffffffffffffffffffffffffffffff161415610584576040517f08c379a000000000000000000000000000000000000000000000000000000000815260040161057b90612dd2565b60405180910390fd5b8073ffffffffffffffffffffffffffffffffffffffff166105a3610cad565b73ffffffffffffffffffffffffffffffffffffffff1614806105d257506105d1816105cc610cad565b610ae9565b5b610611576040517f08c379a000000000000000000000000000000000000000000000000000000000815260040161060890612e64565b60405180910390fd5b61061b8383610cb5565b505050565b6000600880549050905090565b61063e610638610cad565b82610d6e565b61067d576040517f08c379a000000000000000000000000000000000000000000000000000000000815260040161067490612ef6565b60405180910390fd5b610688838383610e03565b505050565b6000610698836108a6565b82106106d9576040517f08c379a00000000000000000000000000000000000000000000000000000000081526004016106d090612f88565b60405180910390fd5b600660008473ffffffffffffffffffffffffffffffffffffffff1673ffffffffffffffffffffffffffffffffffffffff168152602001908152602001600020600083815260200190815260200160002054905092915050565b61074d83838360405180602001604052806000815250610a44565b505050565b61076361075d610cad565b82610d6e565b6107a2576040517f08c379a000000000000000000000000000000000000000000000000000000000815260040161079990612ef6565b60405180910390fd5b6107ab816110fd565b50565b60006107b8610620565b82106107f9576040517f08c379a00000000000000000000000000000000000000000000000000000000081526004016107f09061301a565b60405180910390fd5b6008828154811061080d5761080c61303a565b5b90600052602060002001549050919050565b60008061082b83611109565b9050600073ffffffffffffffffffffffffffffffffffffffff168173ffffffffffffffffffffffffffffffffffffffff16141561089d576040517f08c379a0000000000000000000000000000000000000000000000000000000008152600401610894906130b5565b60405180910390fd5b80915050919050565b60008073ffffffffffffffffffffffffffffffffffffffff168273ffffffffffffffffffffffffffffffffffffffff161415610917576040517f08c379a000000000000000000000000000000000000000000000000000000000815260040161090e90613147565b60405180910390fd5b600360008373ffffffffffffffffffffffffffffffffffffffff1673ffffffffffffffffffffffffffffffffffffffff168152602001908152602001600020549050919050565b610966611146565b61097060006111c4565b565b6000600b60009054906101000a900473ffffffffffffffffffffffffffffffffffffffff16905090565b6060600180546109ab90612d2e565b80601f01602080910402602001604051908101604052809291908181526020018280546109d790612d2e565b8015610a245780601f106109f957610100808354040283529160200191610a24565b820191906000526020600020905b815481529060010190602001808311610a0757829003601f168201915b5050505050905090565b610a40610a39610cad565b838361128a565b5050565b610a55610a4f610cad565b83610d6e565b610a94576040517f08c379a0000000000000000000000000000000000000000000000000000000008152600401610a8b90612ef6565b60405180910390fd5b610aa0848484846113f7565b50505050565b6060610ab182611453565b9050919050565b6000610ac4600c611566565b9050610ad0600c611574565b610ada838261158a565b610ae481836115a8565b505050565b6000600560008473ffffffffffffffffffffffffffffffffffffffff1673ffffffffffffffffffffffffffffffffffffffff16815260200190815260200160002060008373ffffffffffffffffffffffffffffffffffffffff1673ffffffffffffffffffffffffffffffffffffffff16815260200190815260200160002060009054906101000a900460ff16905092915050565b610b85611146565b600073ffffffffffffffffffffffffffffffffffffffff168173ffffffffffffffffffffffffffffffffffffffff161415610bf5576040517f08c379a0000000000000000000000000000000000000000000000000000000008152600401610bec906131d9565b60405180910390fd5b610bfe816111c4565b50565b6000634906490660e01b7bffffffffffffffffffffffffffffffffffffffffffffffffffffffff1916827bffffffffffffffffffffffffffffffffffffffffffffffffffffffff19161480610c5b5750610c5a82611653565b5b9050919050565b610c6b816116cd565b610caa576040517f08c379a0000000000000000000000000000000000000000000000000000000008152600401610ca1906130b5565b60405180910390fd5b50565b600033905090565b816004600083815260200190815260200160002060006101000a81548173ffffffffffffffffffffffffffffffffffffffff021916908373ffffffffffffffffffffffffffffffffffffffff160217905550808273ffffffffffffffffffffffffffffffffffffffff16610d288361081f565b73ffffffffffffffffffffffffffffffffffffffff167f8c5be1e5ebec7d5bd14f71427d1e84f3dd0314c0f7b2291e5b200ac8c7c3b92560405160405180910390a45050565b600080610d7a8361081f565b90508073ffffffffffffffffffffffffffffffffffffffff168473ffffffffffffffffffffffffffffffffffffffff161480610dbc5750610dbb8185610ae9565b5b80610dfa57508373ffffffffffffffffffffffffffffffffffffffff16610de2846104c2565b73ffffffffffffffffffffffffffffffffffffffff16145b91505092915050565b8273ffffffffffffffffffffffffffffffffffffffff16610e238261081f565b73ffffffffffffffffffffffffffffffffffffffff1614610e79576040517f08c379a0000000000000000000000000000000000000000000000000000000008152600401610e709061326b565b60405180910390fd5b600073ffffffffffffffffffffffffffffffffffffffff168273ffffffffffffffffffffffffffffffffffffffff161415610ee9576040517f08c379a0000000000000000000000000000000000000000000000000000000008152600401610ee0906132fd565b60405180910390fd5b610ef6838383600161170e565b8273ffffffffffffffffffffffffffffffffffffffff16610f168261081f565b73ffffffffffffffffffffffffffffffffffffffff1614610f6c576040517f08c379a0000000000000000000000000000000000000000000000000000000008152600401610f639061326b565b60405180910390fd5b6004600082815260200190815260200160002060006101000a81549073ffffffffffffffffffffffffffffffffffffffff02191690556001600360008573ffffffffffffffffffffffffffffffffffffffff1673ffffffffffffffffffffffffffffffffffffffff168152602001908152602001600020600082825403925050819055506001600360008473ffffffffffffffffffffffffffffffffffffffff1673ffffffffffffffffffffffffffffffffffffffff16815260200190815260200160002060008282540192505081905550816002600083815260200190815260200160002060006101000a81548173ffffffffffffffffffffffffffffffffffffffff021916908373ffffffffffffffffffffffffffffffffffffffff160217905550808273ffffffffffffffffffffffffffffffffffffffff168473ffffffffffffffffffffffffffffffffffffffff167fddf252ad1be2c89b69c2b068fc378daa952ba7f163c4a11628f55a4df523b3ef60405160405180910390a46110f88383836001611720565b505050565b61110681611726565b50565b60006002600083815260200190815260200160002060009054906101000a900473ffffffffffffffffffffffffffffffffffffffff169050919050565b61114e610cad565b73ffffffffffffffffffffffffffffffffffffffff1661116c610972565b73ffffffffffffffffffffffffffffffffffffffff16146111c2576040517f08c379a00000000000000000000000000000000000000000000000000000000081526004016111b990613369565b60405180910390fd5b565b6000600b60009054906101000a900473ffffffffffffffffffffffffffffffffffffffff16905081600b60006101000a81548173ffffffffffffffffffffffffffffffffffffffff021916908373ffffffffffffffffffffffffffffffffffffffff1602179055508173ffffffffffffffffffffffffffffffffffffffff168173ffffffffffffffffffffffffffffffffffffffff167f8be0079c531659141344cd1fd0a4f28419497f9722a3daafe3b4186f6b6457e060405160405180910390a35050565b8173ffffffffffffffffffffffffffffffffffffffff168373ffffffffffffffffffffffffffffffffffffffff1614156112f9576040517f08c379a00000000000000000000000000000000000000000000000000000000081526004016112f0906133d5565b60405180910390fd5b80600560008573ffffffffffffffffffffffffffffffffffffffff1673ffffffffffffffffffffffffffffffffffffffff16815260200190815260200160002060008473ffffffffffffffffffffffffffffffffffffffff1673ffffffffffffffffffffffffffffffffffffffff16815260200190815260200160002060006101000a81548160ff0219169083151502179055508173ffffffffffffffffffffffffffffffffffffffff168373ffffffffffffffffffffffffffffffffffffffff167f17307eab39ab6107e8899845ad3d59bd9653f200f220920489ca2b5937696c31836040516113ea91906126f3565b60405180910390a3505050565b611402848484610e03565b61140e84848484611779565b61144d576040517f08c379a000000000000000000000000000000000000000000000000000000000815260040161144490613467565b60405180910390fd5b50505050565b606061145e82610c62565b6000600a6000848152602001908152602001600020805461147e90612d2e565b80601f01602080910402602001604051908101604052809291908181526020018280546114aa90612d2e565b80156114f75780601f106114cc576101008083540402835291602001916114f7565b820191906000526020600020905b8154815290600101906020018083116114da57829003601f168201915b505050505090506000611508611910565b905060008151141561151e578192505050611561565b60008251111561155357808260405160200161153b9291906134c3565b60405160208183030381529060405292505050611561565b61155c84611927565b925050505b919050565b600081600001549050919050565b6001816000016000828254019250508190555050565b6115a482826040518060200160405280600081525061198f565b5050565b6115b1826116cd565b6115f0576040517f08c379a00000000000000000000000000000000000000000000000000000000081526004016115e790613559565b60405180910390fd5b80600a6000848152602001908152602001600020908051906020019061161792919061255c565b507ff8e1a15aba9398e019f0b49df1a4fde98ee17ae345cb5f6b5e2c27f5033e8ce7826040516116479190612903565b60405180910390a15050565b60007f780e9d63000000000000000000000000000000000000000000000000000000007bffffffffffffffffffffffffffffffffffffffffffffffffffffffff1916827bffffffffffffffffffffffffffffffffffffffffffffffffffffffff191614806116c657506116c5826119ea565b5b9050919050565b60008073ffffffffffffffffffffffffffffffffffffffff166116ef83611109565b73ffffffffffffffffffffffffffffffffffffffff1614159050919050565b61171a84848484611acc565b50505050565b50505050565b61172f81611c2c565b6000600a6000838152602001908152602001600020805461174f90612d2e565b90501461177657600a6000828152602001908152602001600020600061177591906125e2565b5b50565b600061179a8473ffffffffffffffffffffffffffffffffffffffff16611d7a565b15611903578373ffffffffffffffffffffffffffffffffffffffff1663150b7a026117c3610cad565b8786866040518563ffffffff1660e01b81526004016117e594939291906135ce565b602060405180830381600087803b1580156117ff57600080fd5b505af192505050801561183057506040513d601f19601f8201168201806040525081019061182d919061362f565b60015b6118b3573d8060008114611860576040519150601f19603f3d011682016040523d82523d6000602084013e611865565b606091505b506000815114156118ab576040517f08c379a00000000000000000000000000000000000000000000000000000000081526004016118a290613467565b60405180910390fd5b805181602001fd5b63150b7a0260e01b7bffffffffffffffffffffffffffffffffffffffffffffffffffffffff1916817bffffffffffffffffffffffffffffffffffffffffffffffffffffffff191614915050611908565b600190505b949350505050565b606060405180602001604052806000815250905090565b606061193282610c62565b600061193c611910565b9050600081511161195c5760405180602001604052806000815250611987565b8061196684611d9d565b6040516020016119779291906134c3565b6040516020818303038152906040525b915050919050565b6119998383611e75565b6119a66000848484611779565b6119e5576040517f08c379a00000000000000000000000000000000000000000000000000000000081526004016119dc90613467565b60405180910390fd5b505050565b60007f80ac58cd000000000000000000000000000000000000000000000000000000007bffffffffffffffffffffffffffffffffffffffffffffffffffffffff1916827bffffffffffffffffffffffffffffffffffffffffffffffffffffffff19161480611ab557507f5b5e139f000000000000000000000000000000000000000000000000000000007bffffffffffffffffffffffffffffffffffffffffffffffffffffffff1916827bffffffffffffffffffffffffffffffffffffffffffffffffffffffff1916145b80611ac55750611ac482612093565b5b9050919050565b611ad8848484846120fd565b6001811115611b1c576040517f08c379a0000000000000000000000000000000000000000000000000000000008152600401611b13906136ce565b60405180910390fd5b6000829050600073ffffffffffffffffffffffffffffffffffffffff168573ffffffffffffffffffffffffffffffffffffffff161415611b6457611b5f81612103565b611ba3565b8373ffffffffffffffffffffffffffffffffffffffff168573ffffffffffffffffffffffffffffffffffffffff1614611ba257611ba1858261214c565b5b5b600073ffffffffffffffffffffffffffffffffffffffff168473ffffffffffffffffffffffffffffffffffffffff161415611be657611be1816122b9565b611c25565b8473ffffffffffffffffffffffffffffffffffffffff168473ffffffffffffffffffffffffffffffffffffffff1614611c2457611c23848261238a565b5b5b5050505050565b6000611c378261081f565b9050611c4781600084600161170e565b611c508261081f565b90506004600083815260200190815260200160002060006101000a81549073ffffffffffffffffffffffffffffffffffffffff02191690556001600360008373ffffffffffffffffffffffffffffffffffffffff1673ffffffffffffffffffffffffffffffffffffffff168152602001908152602001600020600082825403925050819055506002600083815260200190815260200160002060006101000a81549073ffffffffffffffffffffffffffffffffffffffff021916905581600073ffffffffffffffffffffffffffffffffffffffff168273ffffffffffffffffffffffffffffffffffffffff167fddf252ad1be2c89b69c2b068fc378daa952ba7f163c4a11628f55a4df523b3ef60405160405180910390a4611d76816000846001611720565b5050565b6000808273ffffffffffffffffffffffffffffffffffffffff163b119050919050565b606060006001611dac84612409565b01905060008167ffffffffffffffff811115611dcb57611dca612a14565b5b6040519080825280601f01601f191660200182016040528015611dfd5781602001600182028036833780820191505090505b509050600082602001820190505b600115611e6a578080600190039150507f3031323334353637383961626364656600000000000000000000000000000000600a86061a8153600a8581611e5457611e536136ee565b5b0494506000851415611e6557611e6a565b611e0b565b819350505050919050565b600073ffffffffffffffffffffffffffffffffffffffff168273ffffffffffffffffffffffffffffffffffffffff161415611ee5576040517f08c379a0000000000000000000000000000000000000000000000000000000008152600401611edc90613769565b60405180910390fd5b611eee816116cd565b15611f2e576040517f08c379a0000000000000000000000000000000000000000000000000000000008152600401611f25906137d5565b60405180910390fd5b611f3c60008383600161170e565b611f45816116cd565b15611f85576040517f08c379a0000000000000000000000000000000000000000000000000000000008152600401611f7c906137d5565b60405180910390fd5b6001600360008473ffffffffffffffffffffffffffffffffffffffff1673ffffffffffffffffffffffffffffffffffffffff16815260200190815260200160002060008282540192505081905550816002600083815260200190815260200160002060006101000a81548173ffffffffffffffffffffffffffffffffffffffff021916908373ffffffffffffffffffffffffffffffffffffffff160217905550808273ffffffffffffffffffffffffffffffffffffffff16600073ffffffffffffffffffffffffffffffffffffffff167fddf252ad1be2c89b69c2b068fc378daa952ba7f163c4a11628f55a4df523b3ef60405160405180910390a461208f600083836001611720565b5050565b60007f01ffc9a7000000000000000000000000000000000000000000000000000000007bffffffffffffffffffffffffffffffffffffffffffffffffffffffff1916827bffffffffffffffffffffffffffffffffffffffffffffffffffffffff1916149050919050565b50505050565b6008805490506009600083815260200190815260200160002081905550600881908060018154018082558091505060019003906000526020600020016000909190919091505550565b60006001612159846108a6565b6121639190613824565b9050600060076000848152602001908152602001600020549050818114612248576000600660008673ffffffffffffffffffffffffffffffffffffffff1673ffffffffffffffffffffffffffffffffffffffff168152602001908152602001600020600084815260200190815260200160002054905080600660008773ffffffffffffffffffffffffffffffffffffffff1673ffffffffffffffffffffffffffffffffffffffff168152602001908152602001600020600084815260200190815260200160002081905550816007600083815260200190815260200160002081905550505b6007600084815260200190815260200160002060009055600660008573ffffffffffffffffffffffffffffffffffffffff1673ffffffffffffffffffffffffffffffffffffffff16815260200190815260200160002060008381526020019081526020016000206000905550505050565b600060016008805490506122cd9190613824565b90506000600960008481526020019081526020016000205490506000600883815481106122fd576122fc61303a565b5b90600052602060002001549050806008838154811061231f5761231e61303a565b5b90600052602060002001819055508160096000838152602001908152602001600020819055506009600085815260200190815260200160002060009055600880548061236e5761236d613858565b5b6001900381819060005260206000200160009055905550505050565b6000612395836108a6565b905081600660008573ffffffffffffffffffffffffffffffffffffffff1673ffffffffffffffffffffffffffffffffffffffff168152602001908152602001600020600083815260200190815260200160002081905550806007600084815260200190815260200160002081905550505050565b600080600090507a184f03e93ff9f4daa797ed6e38ed64bf6a1f0100000000000000008310612467577a184f03e93ff9f4daa797ed6e38ed64bf6a1f010000000000000000838161245d5761245c6136ee565b5b0492506040810190505b6d04ee2d6d415b85acef810000000083106124a4576d04ee2d6d415b85acef8100000000838161249a576124996136ee565b5b0492506020810190505b662386f26fc1000083106124d357662386f26fc1000083816124c9576124c86136ee565b5b0492506010810190505b6305f5e10083106124fc576305f5e10083816124f2576124f16136ee565b5b0492506008810190505b6127108310612521576127108381612517576125166136ee565b5b0492506004810190505b60648310612544576064838161253a576125396136ee565b5b0492506002810190505b600a8310612553576001810190505b80915050919050565b82805461256890612d2e565b90600052602060002090601f01602090048101928261258a57600085556125d1565b82601f106125a357805160ff19168380011785556125d1565b828001600101855582156125d1579182015b828111156125d05782518255916020019190600101906125b5565b5b5090506125de9190612622565b5090565b5080546125ee90612d2e565b6000825580601f10612600575061261f565b601f01602090049060005260206000209081019061261e9190612622565b5b50565b5b8082111561263b576000816000905550600101612623565b5090565b6000604051905090565b600080fd5b600080fd5b60007fffffffff0000000000000000000000000000000000000000000000000000000082169050919050565b61268881612653565b811461269357600080fd5b50565b6000813590506126a58161267f565b92915050565b6000602082840312156126c1576126c0612649565b5b60006126cf84828501612696565b91505092915050565b60008115159050919050565b6126ed816126d8565b82525050565b600060208201905061270860008301846126e4565b92915050565b600081519050919050565b600082825260208201905092915050565b60005b8381101561274857808201518184015260208101905061272d565b83811115612757576000848401525b50505050565b6000601f19601f8301169050919050565b60006127798261270e565b6127838185612719565b935061279381856020860161272a565b61279c8161275d565b840191505092915050565b600060208201905081810360008301526127c1818461276e565b905092915050565b6000819050919050565b6127dc816127c9565b81146127e757600080fd5b50565b6000813590506127f9816127d3565b92915050565b60006020828403121561281557612814612649565b5b6000612823848285016127ea565b91505092915050565b600073ffffffffffffffffffffffffffffffffffffffff82169050919050565b60006128578261282c565b9050919050565b6128678161284c565b82525050565b6000602082019050612882600083018461285e565b92915050565b6128918161284c565b811461289c57600080fd5b50565b6000813590506128ae81612888565b92915050565b600080604083850312156128cb576128ca612649565b5b60006128d98582860161289f565b92505060206128ea858286016127ea565b9150509250929050565b6128fd816127c9565b82525050565b600060208201905061291860008301846128f4565b92915050565b60008060006060848603121561293757612936612649565b5b60006129458682870161289f565b93505060206129568682870161289f565b9250506040612967868287016127ea565b9150509250925092565b60006020828403121561298757612986612649565b5b60006129958482850161289f565b91505092915050565b6129a7816126d8565b81146129b257600080fd5b50565b6000813590506129c48161299e565b92915050565b600080604083850312156129e1576129e0612649565b5b60006129ef8582860161289f565b9250506020612a00858286016129b5565b9150509250929050565b600080fd5b600080fd5b7f4e487b7100000000000000000000000000000000000000000000000000000000600052604160045260246000fd5b612a4c8261275d565b810181811067ffffffffffffffff82111715612a6b57612a6a612a14565b5b80604052505050565b6000612a7e61263f565b9050612a8a8282612a43565b919050565b600067ffffffffffffffff821115612aaa57612aa9612a14565b5b612ab38261275d565b9050602081019050919050565b82818337600083830152505050565b6000612ae2612add84612a8f565b612a74565b905082815260208101848484011115612afe57612afd612a0f565b5b612b09848285612ac0565b509392505050565b600082601f830112612b2657612b25612a0a565b5b8135612b36848260208601612acf565b91505092915050565b60008060008060808587031215612b5957612b58612649565b5b6000612b678782880161289f565b9450506020612b788782880161289f565b9350506040612b89878288016127ea565b925050606085013567ffffffffffffffff811115612baa57612ba961264e565b5b612bb687828801612b11565b91505092959194509250565b600067ffffffffffffffff821115612bdd57612bdc612a14565b5b612be68261275d565b9050602081019050919050565b6000612c06612c0184612bc2565b612a74565b905082815260208101848484011115612c2257612c21612a0f565b5b612c2d848285612ac0565b509392505050565b600082601f830112612c4a57612c49612a0a565b5b8135612c5a848260208601612bf3565b91505092915050565b60008060408385031215612c7a57612c79612649565b5b6000612c888582860161289f565b925050602083013567ffffffffffffffff811115612ca957612ca861264e565b5b612cb585828601612c35565b9150509250929050565b60008060408385031215612cd657612cd5612649565b5b6000612ce48582860161289f565b9250506020612cf58582860161289f565b9150509250929050565b7f4e487b7100000000000000000000000000000000000000000000000000000000600052602260045260246000fd5b60006002820490506001821680612d4657607f821691505b60208210811415612d5a57612d59612cff565b5b50919050565b7f4552433732313a20617070726f76616c20746f2063757272656e74206f776e6560008201527f7200000000000000000000000000000000000000000000000000000000000000602082015250565b6000612dbc602183612719565b9150612dc782612d60565b604082019050919050565b60006020820190508181036000830152612deb81612daf565b9050919050565b7f4552433732313a20617070726f76652063616c6c6572206973206e6f7420746f60008201527f6b656e206f776e6572206f7220617070726f76656420666f7220616c6c000000602082015250565b6000612e4e603d83612719565b9150612e5982612df2565b604082019050919050565b60006020820190508181036000830152612e7d81612e41565b9050919050565b7f4552433732313a2063616c6c6572206973206e6f7420746f6b656e206f776e6560008201527f72206f7220617070726f76656400000000000000000000000000000000000000602082015250565b6000612ee0602d83612719565b9150612eeb82612e84565b604082019050919050565b60006020820190508181036000830152612f0f81612ed3565b9050919050565b7f455243373231456e756d657261626c653a206f776e657220696e646578206f7560008201527f74206f6620626f756e6473000000000000000000000000000000000000000000602082015250565b6000612f72602b83612719565b9150612f7d82612f16565b604082019050919050565b60006020820190508181036000830152612fa181612f65565b9050919050565b7f455243373231456e756d657261626c653a20676c6f62616c20696e646578206f60008201527f7574206f6620626f756e64730000000000000000000000000000000000000000602082015250565b6000613004602c83612719565b915061300f82612fa8565b604082019050919050565b6000602082019050818103600083015261303381612ff7565b9050919050565b7f4e487b7100000000000000000000000000000000000000000000000000000000600052603260045260246000fd5b7f4552433732313a20696e76616c696420746f6b656e2049440000000000000000600082015250565b600061309f601883612719565b91506130aa82613069565b602082019050919050565b600060208201905081810360008301526130ce81613092565b9050919050565b7f4552433732313a2061646472657373207a65726f206973206e6f74206120766160008201527f6c6964206f776e65720000000000000000000000000000000000000000000000602082015250565b6000613131602983612719565b915061313c826130d5565b604082019050919050565b6000602082019050818103600083015261316081613124565b9050919050565b7f4f776e61626c653a206e6577206f776e657220697320746865207a65726f206160008201527f6464726573730000000000000000000000000000000000000000000000000000602082015250565b60006131c3602683612719565b91506131ce82613167565b604082019050919050565b600060208201905081810360008301526131f2816131b6565b9050919050565b7f4552433732313a207472616e736665722066726f6d20696e636f72726563742060008201527f6f776e6572000000000000000000000000000000000000000000000000000000602082015250565b6000613255602583612719565b9150613260826131f9565b604082019050919050565b6000602082019050818103600083015261328481613248565b9050919050565b7f4552433732313a207472616e7366657220746f20746865207a65726f2061646460008201527f7265737300000000000000000000000000000000000000000000000000000000602082015250565b60006132e7602483612719565b91506132f28261328b565b604082019050919050565b60006020820190508181036000830152613316816132da565b9050919050565b7f4f776e61626c653a2063616c6c6572206973206e6f7420746865206f776e6572600082015250565b6000613353602083612719565b915061335e8261331d565b602082019050919050565b6000602082019050818103600083015261338281613346565b9050919050565b7f4552433732313a20617070726f766520746f2063616c6c657200000000000000600082015250565b60006133bf601983612719565b91506133ca82613389565b602082019050919050565b600060208201905081810360008301526133ee816133b2565b9050919050565b7f4552433732313a207472616e7366657220746f206e6f6e20455243373231526560008201527f63656976657220696d706c656d656e7465720000000000000000000000000000602082015250565b6000613451603283612719565b915061345c826133f5565b604082019050919050565b6000602082019050818103600083015261348081613444565b9050919050565b600081905092915050565b600061349d8261270e565b6134a78185613487565b93506134b781856020860161272a565b80840191505092915050565b60006134cf8285613492565b91506134db8284613492565b91508190509392505050565b7f45524337323155524953746f726167653a2055524920736574206f66206e6f6e60008201527f6578697374656e7420746f6b656e000000000000000000000000000000000000602082015250565b6000613543602e83612719565b915061354e826134e7565b604082019050919050565b6000602082019050818103600083015261357281613536565b9050919050565b600081519050919050565b600082825260208201905092915050565b60006135a082613579565b6135aa8185613584565b93506135ba81856020860161272a565b6135c38161275d565b840191505092915050565b60006080820190506135e3600083018761285e565b6135f0602083018661285e565b6135fd60408301856128f4565b818103606083015261360f8184613595565b905095945050505050565b6000815190506136298161267f565b92915050565b60006020828403121561364557613644612649565b5b60006136538482850161361a565b91505092915050565b7f455243373231456e756d657261626c653a20636f6e736563757469766520747260008201527f616e7366657273206e6f7420737570706f727465640000000000000000000000602082015250565b60006136b8603583612719565b91506136c38261365c565b604082019050919050565b600060208201905081810360008301526136e7816136ab565b9050919050565b7f4e487b7100000000000000000000000000000000000000000000000000000000600052601260045260246000fd5b7f4552433732313a206d696e7420746f20746865207a65726f2061646472657373600082015250565b6000613753602083612719565b915061375e8261371d565b602082019050919050565b6000602082019050818103600083015261378281613746565b9050919050565b7f4552433732313a20746f6b656e20616c7265616479206d696e74656400000000600082015250565b60006137bf601c83612719565b91506137ca82613789565b602082019050919050565b600060208201905081810360008301526137ee816137b2565b9050919050565b7f4e487b7100000000000000000000000000000000000000000000000000000000600052601160045260246000fd5b600061382f826127c9565b915061383a836127c9565b92508282101561384d5761384c6137f5565b5b828203905092915050565b7f4e487b7100000000000000000000000000000000000000000000000000000000600052603160045260246000fdfea26469706673582212207ec698ba7953b6658498f6b73c8374c9c6588de52701b8cfb0d2743e50bfc24064736f6c63430008090033",
  "linkReferences": {},
  "deployedLinkReferences": {}
}