{
  "_format": "hh-sol-artifact-1",
  "contractName": "exchange",
  "sourceName": "contracts/exchangeCentralised.sol",
  "abi": [
    {
      "inputs": [
        {
          "internalType": "address",
          "name": "_mynft",
          "type": "address"
        }
      ],
      "stateMutability": "nonpayable",
      "type": "constructor"
    },
    {
      "anonymous": false,
      "inputs": [
        {
          "indexed": false,
          "internalType": "address",
          "name": "_borrower",
          "type": "address"
        },
        {
          "indexed": false,
          "internalType": "uint256",
          "name": "_amount",
          "type": "uint256"
        },
        {
          "indexed": false,
          "internalType": "uint256",
          "name": "_expireTimestamp",
          "type": "uint256"
        },
        {
          "indexed": false,
          "internalType": "string",
          "name": "_nftChainId",
          "type": "string"
        },
        {
          "indexed": false,
          "internalType": "string",
          "name": "_nftTokenId",
          "type": "string"
        }
      ],
      "name": "Loan",
      "type": "event"
    },
    {
      "anonymous": false,
      "inputs": [
        {
          "indexed": false,
          "internalType": "uint256",
          "name": "value",
          "type": "uint256"
        },
        {
          "indexed": false,
          "internalType": "address",
          "name": "from",
          "type": "address"
        }
      ],
      "name": "ethReceived",
      "type": "event"
    },
    {
      "inputs": [],
      "name": "acceptEth",
      "outputs": [],
      "stateMutability": "payable",
      "type": "function"
    },
    {
      "inputs": [
        {
          "internalType": "address",
          "name": "_who",
          "type": "address"
        },
        {
          "internalType": "uint256",
          "name": "value",
          "type": "uint256"
        }
      ],
      "name": "burnStakedEth",
      "outputs": [],
      "stateMutability": "nonpayable",
      "type": "function"
    },
    {
      "inputs": [
        {
          "internalType": "address",
          "name": "_who",
          "type": "address"
        }
      ],
      "name": "checkIdentity",
      "outputs": [
        {
          "components": [
            {
              "internalType": "string",
              "name": "name",
              "type": "string"
            },
            {
              "internalType": "uint256",
              "name": "birth",
              "type": "uint256"
            },
            {
              "internalType": "uint256",
              "name": "creditScore",
              "type": "uint256"
            }
          ],
          "internalType": "struct exchange.id",
          "name": "",
          "type": "tuple"
        }
      ],
      "stateMutability": "view",
      "type": "function"
    },
    {
      "inputs": [
        {
          "internalType": "address",
          "name": "_who",
          "type": "address"
        }
      ],
      "name": "checkLoan",
      "outputs": [
        {
          "components": [
            {
              "internalType": "uint256",
              "name": "amount",
              "type": "uint256"
            },
            {
              "internalType": "uint256",
              "name": "cutOffTimestamp",
              "type": "uint256"
            },
            {
              "internalType": "string",
              "name": "nftChainId",
              "type": "string"
            },
            {
              "internalType": "string",
              "name": "nftTokenId",
              "type": "string"
            },
            {
              "internalType": "bool",
              "name": "collateralSold",
              "type": "bool"
            },
            {
              "internalType": "bool",
              "name": "set",
              "type": "bool"
            }
          ],
          "internalType": "struct exchange.loanStruct",
          "name": "",
          "type": "tuple"
        }
      ],
      "stateMutability": "view",
      "type": "function"
    },
    {
      "inputs": [],
      "name": "exchangeNftAddr",
      "outputs": [
        {
          "internalType": "address",
          "name": "",
          "type": "address"
        }
      ],
      "stateMutability": "view",
      "type": "function"
    },
    {
      "inputs": [
        {
          "internalType": "address",
          "name": "_who",
          "type": "address"
        }
      ],
      "name": "getIsUser",
      "outputs": [
        {
          "internalType": "bool",
          "name": "",
          "type": "bool"
        }
      ],
      "stateMutability": "view",
      "type": "function"
    },
    {
      "inputs": [
        {
          "internalType": "address",
          "name": "_borrower",
          "type": "address"
        },
        {
          "internalType": "uint256",
          "name": "_amount",
          "type": "uint256"
        },
        {
          "internalType": "uint256",
          "name": "_period",
          "type": "uint256"
        },
        {
          "internalType": "string",
          "name": "_nftChainId",
          "type": "string"
        },
        {
          "internalType": "string",
          "name": "_nftTokenId",
          "type": "string"
        }
      ],
      "name": "getLoan",
      "outputs": [],
      "stateMutability": "nonpayable",
      "type": "function"
    },
    {
      "inputs": [
        {
          "internalType": "uint256",
          "name": "_who",
          "type": "uint256"
        }
      ],
      "name": "getUser",
      "outputs": [
        {
          "internalType": "address",
          "name": "",
          "type": "address"
        }
      ],
      "stateMutability": "view",
      "type": "function"
    },
    {
      "inputs": [],
      "name": "owner",
      "outputs": [
        {
          "internalType": "address",
          "name": "",
          "type": "address"
        }
      ],
      "stateMutability": "view",
      "type": "function"
    },
    {
      "inputs": [],
      "name": "returnLoan",
      "outputs": [],
      "stateMutability": "payable",
      "type": "function"
    },
    {
      "inputs": [
        {
          "internalType": "address",
          "name": "_borrower",
          "type": "address"
        }
      ],
      "name": "setCollateralSold",
      "outputs": [],
      "stateMutability": "nonpayable",
      "type": "function"
    },
    {
      "inputs": [
        {
          "internalType": "address",
          "name": "_who",
          "type": "address"
        },
        {
          "internalType": "string",
          "name": "_name",
          "type": "string"
        },
        {
          "internalType": "uint256",
          "name": "_birth",
          "type": "uint256"
        },
        {
          "internalType": "uint256",
          "name": "_creditScore",
          "type": "uint256"
        }
      ],
      "name": "setIdentity",
      "outputs": [],
      "stateMutability": "nonpayable",
      "type": "function"
    },
    {
      "inputs": [
        {
          "internalType": "uint256",
          "name": "period",
          "type": "uint256"
        }
      ],
      "name": "stakeEth",
      "outputs": [],
      "stateMutability": "payable",
      "type": "function"
    },
    {
      "inputs": [],
      "name": "stakeTokenAddr",
      "outputs": [
        {
          "internalType": "address",
          "name": "",
          "type": "address"
        }
      ],
      "stateMutability": "view",
      "type": "function"
    },
    {
      "inputs": [
        {
          "internalType": "address",
          "name": "",
          "type": "address"
        },
        {
          "internalType": "uint256",
          "name": "",
          "type": "uint256"
        }
      ],
      "name": "stakes",
      "outputs": [
        {
          "internalType": "uint256",
          "name": "tokens",
          "type": "uint256"
        },
        {
          "internalType": "uint256",
          "name": "unlockTimestamp",
          "type": "uint256"
        }
      ],
      "stateMutability": "view",
      "type": "function"
    },
    {
      "inputs": [
        {
          "internalType": "address",
          "name": "",
          "type": "address"
        }
      ],
      "name": "stakesNumber",
      "outputs": [
        {
          "internalType": "uint256",
          "name": "",
          "type": "uint256"
        }
      ],
      "stateMutability": "view",
      "type": "function"
    },
    {
      "inputs": [],
      "name": "usersCount",
      "outputs": [
        {
          "internalType": "uint256",
          "name": "",
          "type": "uint256"
        }
      ],
      "stateMutability": "view",
      "type": "function"
    },
    {
      "inputs": [
        {
          "internalType": "address",
          "name": "_who",
          "type": "address"
        },
        {
          "internalType": "uint256",
          "name": "value",
          "type": "uint256"
        }
      ],
      "name": "withdrawEth",
      "outputs": [],
      "stateMutability": "nonpayable",
      "type": "function"
    }
  ],
  "bytecode": "0x60806040526040516200001290620001cf565b604051809103906000f0801580156200002f573d6000803e3d6000fd5b50600360006101000a81548173ffffffffffffffffffffffffffffffffffffffff021916908373ffffffffffffffffffffffffffffffffffffffff160217905550600360009054906101000a900473ffffffffffffffffffffffffffffffffffffffff16600460006101000a81548173ffffffffffffffffffffffffffffffffffffffff021916908373ffffffffffffffffffffffffffffffffffffffff160217905550348015620000e057600080fd5b5060405162007ad638038062007ad6833981810160405281019062000106919062000247565b336000806101000a81548173ffffffffffffffffffffffffffffffffffffffff021916908373ffffffffffffffffffffffffffffffffffffffff16021790555080600160006101000a81548173ffffffffffffffffffffffffffffffffffffffff021916908373ffffffffffffffffffffffffffffffffffffffff16021790555080600260006101000a81548173ffffffffffffffffffffffffffffffffffffffff021916908373ffffffffffffffffffffffffffffffffffffffff1602179055505062000279565b61507a8062002a5c83390190565b600080fd5b600073ffffffffffffffffffffffffffffffffffffffff82169050919050565b60006200020f82620001e2565b9050919050565b620002218162000202565b81146200022d57600080fd5b50565b600081519050620002418162000216565b92915050565b60006020828403121562000260576200025f620001dd565b5b6000620002708482850162000230565b91505092915050565b6127d380620002896000396000f3fe6080604052600436106101095760003560e01c806376f053601161009557806396db582a1161006457806396db582a14610328578063b0467deb14610344578063b97f016f14610381578063d9385c99146103be578063e95cccb1146103e957610109565b806376f05360146102a157806380043649146102ca57806382af4b1f146102f35780638da5cb5b146102fd57610109565b80633a372f59116100dc5780633a372f59146101da578063584b62a11461020557806367ee94f1146102435780636ba13a821461026c57806372dde3fe1461029757610109565b80630b494ff81461010e5780630ba527381461014b5780631b9a91a414610174578063305c1a731461019d575b600080fd5b34801561011a57600080fd5b5061013560048036038101906101309190611b2e565b610426565b6040516101429190611cb8565b60405180910390f35b34801561015757600080fd5b50610172600480360381019061016d9190611d06565b610645565b005b34801561018057600080fd5b5061019b60048036038101906101969190611d06565b6109cf565b005b3480156101a957600080fd5b506101c460048036038101906101bf9190611b2e565b610a72565b6040516101d19190611d55565b60405180910390f35b3480156101e657600080fd5b506101ef610a8a565b6040516101fc9190611d7f565b60405180910390f35b34801561021157600080fd5b5061022c60048036038101906102279190611d06565b610ab0565b60405161023a929190611d9a565b60405180910390f35b34801561024f57600080fd5b5061026a60048036038101906102659190611ef8565b610ae1565b005b34801561027857600080fd5b50610281610bcd565b60405161028e9190611d55565b60405180910390f35b61029f610bd3565b005b3480156102ad57600080fd5b506102c860048036038101906102c39190611f7b565b610e58565b005b3480156102d657600080fd5b506102f160048036038101906102ec9190611b2e565b61135c565b005b6102fb611412565b005b34801561030957600080fd5b5061031261144d565b60405161031f9190611d7f565b60405180910390f35b610342600480360381019061033d919061202e565b611471565b005b34801561035057600080fd5b5061036b6004803603810190610366919061202e565b6116bc565b6040516103789190611d7f565b60405180910390f35b34801561038d57600080fd5b506103a860048036038101906103a39190611b2e565b611752565b6040516103b5919061206a565b60405180910390f35b3480156103ca57600080fd5b506103d3611801565b6040516103e09190611d7f565b60405180910390f35b3480156103f557600080fd5b50610410600480360381019061040b9190611b2e565b611827565b60405161041d91906120d5565b60405180910390f35b61042e61197e565b60008054906101000a900473ffffffffffffffffffffffffffffffffffffffff1673ffffffffffffffffffffffffffffffffffffffff163373ffffffffffffffffffffffffffffffffffffffff161461048657600080fd5b600b60008373ffffffffffffffffffffffffffffffffffffffff1673ffffffffffffffffffffffffffffffffffffffff1681526020019081526020016000206040518060c001604052908160008201548152602001600182015481526020016002820180546104f490612126565b80601f016020809104026020016040519081016040528092919081815260200182805461052090612126565b801561056d5780601f106105425761010080835404028352916020019161056d565b820191906000526020600020905b81548152906001019060200180831161055057829003601f168201915b5050505050815260200160038201805461058690612126565b80601f01602080910402602001604051908101604052809291908181526020018280546105b290612126565b80156105ff5780601f106105d4576101008083540402835291602001916105ff565b820191906000526020600020905b8154815290600101906020018083116105e257829003601f168201915b505050505081526020016004820160009054906101000a900460ff161515151581526020016004820160019054906101000a900460ff1615151515815250509050919050565b60008054906101000a900473ffffffffffffffffffffffffffffffffffffffff1673ffffffffffffffffffffffffffffffffffffffff163373ffffffffffffffffffffffffffffffffffffffff16146106d3576040517f08c379a00000000000000000000000000000000000000000000000000000000081526004016106ca906121b5565b60405180910390fd5b600080600090505b600660008573ffffffffffffffffffffffffffffffffffffffff1673ffffffffffffffffffffffffffffffffffffffff168152602001908152602001600020548110156108f8576000600560008673ffffffffffffffffffffffffffffffffffffffff1673ffffffffffffffffffffffffffffffffffffffff1681526020019081526020016000206000838152602001908152602001600020600101549050428110156108e4576000600560008773ffffffffffffffffffffffffffffffffffffffff1673ffffffffffffffffffffffffffffffffffffffff16815260200190815260200160002060008481526020019081526020016000206000015490508481856107e79190612204565b116108585780846107f89190612204565b93506000600560008873ffffffffffffffffffffffffffffffffffffffff1673ffffffffffffffffffffffffffffffffffffffff1681526020019081526020016000206000858152602001908152602001600020600001819055506108e2565b60008486610866919061225a565b905080600560008973ffffffffffffffffffffffffffffffffffffffff1673ffffffffffffffffffffffffffffffffffffffff168152602001908152602001600020600086815260200190815260200160002060000160008282546108cb919061225a565b9250508190555080856108de9190612204565b9450505b505b5080806108f09061228e565b9150506106db565b5081811461093b576040517f08c379a000000000000000000000000000000000000000000000000000000000815260040161093290612323565b60405180910390fd5b600360009054906101000a900473ffffffffffffffffffffffffffffffffffffffff1673ffffffffffffffffffffffffffffffffffffffff16635ad748e484836040518363ffffffff1660e01b8152600401610998929190612343565b600060405180830381600087803b1580156109b257600080fd5b505af11580156109c6573d6000803e3d6000fd5b50505050505050565b60008054906101000a900473ffffffffffffffffffffffffffffffffffffffff1673ffffffffffffffffffffffffffffffffffffffff163373ffffffffffffffffffffffffffffffffffffffff1614610a2757600080fd5b8173ffffffffffffffffffffffffffffffffffffffff166108fc829081150290604051600060405180830381858888f19350505050158015610a6d573d6000803e3d6000fd5b505050565b60066020528060005260406000206000915090505481565b600260009054906101000a900473ffffffffffffffffffffffffffffffffffffffff1681565b6005602052816000526040600020602052806000526040600020600091509150508060000154908060010154905082565b60008054906101000a900473ffffffffffffffffffffffffffffffffffffffff1673ffffffffffffffffffffffffffffffffffffffff163373ffffffffffffffffffffffffffffffffffffffff1614610b3957600080fd5b604051806060016040528084815260200183815260200182815250600760008673ffffffffffffffffffffffffffffffffffffffff1673ffffffffffffffffffffffffffffffffffffffff1681526020019081526020016000206000820151816000019080519060200190610baf9291906119b8565b50602082015181600101556040820151816002015590505050505050565b600a5481565b6000600b60003373ffffffffffffffffffffffffffffffffffffffff1673ffffffffffffffffffffffffffffffffffffffff1681526020019081526020016000206040518060c00160405290816000820154815260200160018201548152602001600282018054610c4390612126565b80601f0160208091040260200160405190810160405280929190818152602001828054610c6f90612126565b8015610cbc5780601f10610c9157610100808354040283529160200191610cbc565b820191906000526020600020905b815481529060010190602001808311610c9f57829003601f168201915b50505050508152602001600382018054610cd590612126565b80601f0160208091040260200160405190810160405280929190818152602001828054610d0190612126565b8015610d4e5780601f10610d2357610100808354040283529160200191610d4e565b820191906000526020600020905b815481529060010190602001808311610d3157829003601f168201915b505050505081526020016004820160009054906101000a900460ff161515151581526020016004820160019054906101000a900460ff161515151581525050905060008160000151905080341015610da557600080fd5b600015158260800151151514610dba57600080fd5b600b60003373ffffffffffffffffffffffffffffffffffffffff1673ffffffffffffffffffffffffffffffffffffffff1681526020019081526020016000206000808201600090556001820160009055600282016000610e1a9190611a3e565b600382016000610e2a9190611a3e565b6004820160006101000a81549060ff02191690556004820160016101000a81549060ff021916905550505050565b60008054906101000a900473ffffffffffffffffffffffffffffffffffffffff1673ffffffffffffffffffffffffffffffffffffffff163373ffffffffffffffffffffffffffffffffffffffff1614610ee6576040517f08c379a0000000000000000000000000000000000000000000000000000000008152600401610edd906123de565b60405180910390fd5b600b60008673ffffffffffffffffffffffffffffffffffffffff1673ffffffffffffffffffffffffffffffffffffffff16815260200190815260200160002060040160019054906101000a900460ff1615610f76576040517f08c379a0000000000000000000000000000000000000000000000000000000008152600401610f6d9061244a565b60405180910390fd5b6046600760008773ffffffffffffffffffffffffffffffffffffffff1673ffffffffffffffffffffffffffffffffffffffff168152602001908152602001600020600201541015610fc657600080fd5b6014600760008773ffffffffffffffffffffffffffffffffffffffff1673ffffffffffffffffffffffffffffffffffffffff16815260200190815260200160002060020154611015919061246a565b841115611057576040517f08c379a000000000000000000000000000000000000000000000000000000000815260040161104e90612536565b60405180910390fd5b610e1083111561109c576040517f08c379a0000000000000000000000000000000000000000000000000000000008152600401611093906125c8565b60405180910390fd5b6040518060c0016040528085815260200184426110b99190612204565b815260200183815260200182815260200160001515815260200160011515815250600b60008773ffffffffffffffffffffffffffffffffffffffff1673ffffffffffffffffffffffffffffffffffffffff168152602001908152602001600020600082015181600001556020820151816001015560408201518160020190805190602001906111499291906119b8565b5060608201518160030190805190602001906111669291906119b8565b5060808201518160040160006101000a81548160ff02191690831515021790555060a08201518160040160016101000a81548160ff0219169083151502179055509050508473ffffffffffffffffffffffffffffffffffffffff166108fc859081150290604051600060405180830381858888f193505050501580156111f0573d6000803e3d6000fd5b5060001515600960008773ffffffffffffffffffffffffffffffffffffffff1673ffffffffffffffffffffffffffffffffffffffff16815260200190815260200160002060009054906101000a900460ff161515141561130b578460086000600a60008154809291906112629061228e565b91905055815260200190815260200160002060006101000a81548173ffffffffffffffffffffffffffffffffffffffff021916908373ffffffffffffffffffffffffffffffffffffffff1602179055506001600960008773ffffffffffffffffffffffffffffffffffffffff1673ffffffffffffffffffffffffffffffffffffffff16815260200190815260200160002060006101000a81548160ff0219169083151502179055505b7f82e6281ac3c0bb91b2321b3cdfe118d6ab71621a8f3de3134f08b27da3f961f18585854261133a9190612204565b858560405161134d959493929190612621565b60405180910390a15050505050565b60008054906101000a900473ffffffffffffffffffffffffffffffffffffffff1673ffffffffffffffffffffffffffffffffffffffff163373ffffffffffffffffffffffffffffffffffffffff16146113b457600080fd5b6001600b60008373ffffffffffffffffffffffffffffffffffffffff1673ffffffffffffffffffffffffffffffffffffffff16815260200190815260200160002060040160006101000a81548160ff02191690831515021790555050565b7fe01a37d1c478e83199bfb619c6044d681e2729a299eb91e639f80dd5d86eecac3433604051611443929190612682565b60405180910390a1565b60008054906101000a900473ffffffffffffffffffffffffffffffffffffffff1681565b601e81116114b4576040517f08c379a00000000000000000000000000000000000000000000000000000000081526004016114ab9061271d565b60405180910390fd5b600060b48211156114df5760646069346114ce919061246a565b6114d8919061276c565b905061154f565b60788211156115085760646068346114f7919061246a565b611501919061276c565b905061154e565b603c821115611531576064606734611520919061246a565b61152a919061276c565b905061154d565b6064606634611540919061246a565b61154a919061276c565b90505b5b5b6040518060400160405280828152602001834261156c9190612204565b815250600560003373ffffffffffffffffffffffffffffffffffffffff1673ffffffffffffffffffffffffffffffffffffffff1681526020019081526020016000206000600660003373ffffffffffffffffffffffffffffffffffffffff1673ffffffffffffffffffffffffffffffffffffffff16815260200190815260200160002060008154809291906116009061228e565b9190505581526020019081526020016000206000820151816000015560208201518160010155905050600360009054906101000a900473ffffffffffffffffffffffffffffffffffffffff1673ffffffffffffffffffffffffffffffffffffffff166340c10f1933836040518363ffffffff1660e01b8152600401611686929190612343565b600060405180830381600087803b1580156116a057600080fd5b505af11580156116b4573d6000803e3d6000fd5b505050505050565b60008060009054906101000a900473ffffffffffffffffffffffffffffffffffffffff1673ffffffffffffffffffffffffffffffffffffffff163373ffffffffffffffffffffffffffffffffffffffff161461171757600080fd5b6008600083815260200190815260200160002060009054906101000a900473ffffffffffffffffffffffffffffffffffffffff169050919050565b60008060009054906101000a900473ffffffffffffffffffffffffffffffffffffffff1673ffffffffffffffffffffffffffffffffffffffff163373ffffffffffffffffffffffffffffffffffffffff16146117ad57600080fd5b600960008373ffffffffffffffffffffffffffffffffffffffff1673ffffffffffffffffffffffffffffffffffffffff16815260200190815260200160002060009054906101000a900460ff169050919050565b600460009054906101000a900473ffffffffffffffffffffffffffffffffffffffff1681565b61182f611a7e565b60008054906101000a900473ffffffffffffffffffffffffffffffffffffffff1673ffffffffffffffffffffffffffffffffffffffff163373ffffffffffffffffffffffffffffffffffffffff161461188757600080fd5b600760008373ffffffffffffffffffffffffffffffffffffffff1673ffffffffffffffffffffffffffffffffffffffff1681526020019081526020016000206040518060600160405290816000820180546118e190612126565b80601f016020809104026020016040519081016040528092919081815260200182805461190d90612126565b801561195a5780601f1061192f5761010080835404028352916020019161195a565b820191906000526020600020905b81548152906001019060200180831161193d57829003601f168201915b50505050508152602001600182015481526020016002820154815250509050919050565b6040518060c00160405280600081526020016000815260200160608152602001606081526020016000151581526020016000151581525090565b8280546119c490612126565b90600052602060002090601f0160209004810192826119e65760008555611a2d565b82601f106119ff57805160ff1916838001178555611a2d565b82800160010185558215611a2d579182015b82811115611a2c578251825591602001919060010190611a11565b5b509050611a3a9190611a9f565b5090565b508054611a4a90612126565b6000825580601f10611a5c5750611a7b565b601f016020900490600052602060002090810190611a7a9190611a9f565b5b50565b60405180606001604052806060815260200160008152602001600081525090565b5b80821115611ab8576000816000905550600101611aa0565b5090565b6000604051905090565b600080fd5b600080fd5b600073ffffffffffffffffffffffffffffffffffffffff82169050919050565b6000611afb82611ad0565b9050919050565b611b0b81611af0565b8114611b1657600080fd5b50565b600081359050611b2881611b02565b92915050565b600060208284031215611b4457611b43611ac6565b5b6000611b5284828501611b19565b91505092915050565b6000819050919050565b611b6e81611b5b565b82525050565b600081519050919050565b600082825260208201905092915050565b60005b83811015611bae578082015181840152602081019050611b93565b83811115611bbd576000848401525b50505050565b6000601f19601f8301169050919050565b6000611bdf82611b74565b611be98185611b7f565b9350611bf9818560208601611b90565b611c0281611bc3565b840191505092915050565b60008115159050919050565b611c2281611c0d565b82525050565b600060c083016000830151611c406000860182611b65565b506020830151611c536020860182611b65565b5060408301518482036040860152611c6b8282611bd4565b91505060608301518482036060860152611c858282611bd4565b9150506080830151611c9a6080860182611c19565b5060a0830151611cad60a0860182611c19565b508091505092915050565b60006020820190508181036000830152611cd28184611c28565b905092915050565b611ce381611b5b565b8114611cee57600080fd5b50565b600081359050611d0081611cda565b92915050565b60008060408385031215611d1d57611d1c611ac6565b5b6000611d2b85828601611b19565b9250506020611d3c85828601611cf1565b9150509250929050565b611d4f81611b5b565b82525050565b6000602082019050611d6a6000830184611d46565b92915050565b611d7981611af0565b82525050565b6000602082019050611d946000830184611d70565b92915050565b6000604082019050611daf6000830185611d46565b611dbc6020830184611d46565b9392505050565b600080fd5b600080fd5b7f4e487b7100000000000000000000000000000000000000000000000000000000600052604160045260246000fd5b611e0582611bc3565b810181811067ffffffffffffffff82111715611e2457611e23611dcd565b5b80604052505050565b6000611e37611abc565b9050611e438282611dfc565b919050565b600067ffffffffffffffff821115611e6357611e62611dcd565b5b611e6c82611bc3565b9050602081019050919050565b82818337600083830152505050565b6000611e9b611e9684611e48565b611e2d565b905082815260208101848484011115611eb757611eb6611dc8565b5b611ec2848285611e79565b509392505050565b600082601f830112611edf57611ede611dc3565b5b8135611eef848260208601611e88565b91505092915050565b60008060008060808587031215611f1257611f11611ac6565b5b6000611f2087828801611b19565b945050602085013567ffffffffffffffff811115611f4157611f40611acb565b5b611f4d87828801611eca565b9350506040611f5e87828801611cf1565b9250506060611f6f87828801611cf1565b91505092959194509250565b600080600080600060a08688031215611f9757611f96611ac6565b5b6000611fa588828901611b19565b9550506020611fb688828901611cf1565b9450506040611fc788828901611cf1565b935050606086013567ffffffffffffffff811115611fe857611fe7611acb565b5b611ff488828901611eca565b925050608086013567ffffffffffffffff81111561201557612014611acb565b5b61202188828901611eca565b9150509295509295909350565b60006020828403121561204457612043611ac6565b5b600061205284828501611cf1565b91505092915050565b61206481611c0d565b82525050565b600060208201905061207f600083018461205b565b92915050565b600060608301600083015184820360008601526120a28282611bd4565b91505060208301516120b76020860182611b65565b5060408301516120ca6040860182611b65565b508091505092915050565b600060208201905081810360008301526120ef8184612085565b905092915050565b7f4e487b7100000000000000000000000000000000000000000000000000000000600052602260045260246000fd5b6000600282049050600182168061213e57607f821691505b60208210811415612152576121516120f7565b5b50919050565b600082825260208201905092915050565b7f6e6f7420617070726f7665640000000000000000000000000000000000000000600082015250565b600061219f600c83612158565b91506121aa82612169565b602082019050919050565b600060208201905081810360008301526121ce81612192565b9050919050565b7f4e487b7100000000000000000000000000000000000000000000000000000000600052601160045260246000fd5b600061220f82611b5b565b915061221a83611b5b565b9250827fffffffffffffffffffffffffffffffffffffffffffffffffffffffffffffffff0382111561224f5761224e6121d5565b5b828201905092915050565b600061226582611b5b565b915061227083611b5b565b925082821015612283576122826121d5565b5b828203905092915050565b600061229982611b5b565b91507fffffffffffffffffffffffffffffffffffffffffffffffffffffffffffffffff8214156122cc576122cb6121d5565b5b600182019050919050565b7f43616e6e6f7420776974686472617720746f6b656e7321000000000000000000600082015250565b600061230d601783612158565b9150612318826122d7565b602082019050919050565b6000602082019050818103600083015261233c81612300565b9050919050565b60006040820190506123586000830185611d70565b6123656020830184611d46565b9392505050565b7f6f6e6c7920636f6e7472616374206f776e657220697320617574686f7269736560008201527f6400000000000000000000000000000000000000000000000000000000000000602082015250565b60006123c8602183612158565b91506123d38261236c565b604082019050919050565b600060208201905081810360008301526123f7816123bb565b9050919050565b7f6170706c6963616e7420616c7265616479206861732061206c6f616e00000000600082015250565b6000612434601c83612158565b915061243f826123fe565b602082019050919050565b6000602082019050818103600083015261246381612427565b9050919050565b600061247582611b5b565b915061248083611b5b565b9250817fffffffffffffffffffffffffffffffffffffffffffffffffffffffffffffffff04831182151516156124b9576124b86121d5565b5b828202905092915050565b7f4372656469742053636f7265206e6f74206869676820656e6f75676820666f7260008201527f20726571756573746564206c6f616e20616d6f756e742e000000000000000000602082015250565b6000612520603783612158565b915061252b826124c4565b604082019050919050565b6000602082019050818103600083015261254f81612513565b9050919050565b7f4c6f616e20706572696f642073686f756c64206265206c657373207468616e2060008201527f33363030732e0000000000000000000000000000000000000000000000000000602082015250565b60006125b2602683612158565b91506125bd82612556565b604082019050919050565b600060208201905081810360008301526125e1816125a5565b9050919050565b60006125f382611b74565b6125fd8185612158565b935061260d818560208601611b90565b61261681611bc3565b840191505092915050565b600060a0820190506126366000830188611d70565b6126436020830187611d46565b6126506040830186611d46565b818103606083015261266281856125e8565b9050818103608083015261267681846125e8565b90509695505050505050565b60006040820190506126976000830185611d46565b6126a46020830184611d70565b9392505050565b7f7374616b696e6720706572696f64206d757374206265206c6f6e67657220746860008201527f616e203330730000000000000000000000000000000000000000000000000000602082015250565b6000612707602683612158565b9150612712826126ab565b604082019050919050565b60006020820190508181036000830152612736816126fa565b9050919050565b7f4e487b7100000000000000000000000000000000000000000000000000000000600052601260045260246000fd5b600061277782611b5b565b915061278283611b5b565b9250826127925761279161273d565b5b82820490509291505056fea2646970667358221220e604eb1396457e1311c952d08edf3fbdea0ee5735aba6885cb50b6313ceccc3664736f6c634300080900336101606040523480156200001257600080fd5b506040518060400160405280600a81526020017f7374616b65546f6b656e00000000000000000000000000000000000000000000815250806040518060400160405280600181526020017f31000000000000000000000000000000000000000000000000000000000000008152506040518060400160405280600a81526020017f7374616b65546f6b656e000000000000000000000000000000000000000000008152506040518060400160405280600381526020017f73746b000000000000000000000000000000000000000000000000000000000081525081600390805190602001906200010492919062000407565b5080600490805190602001906200011d92919062000407565b50505062000140620001346200020160201b60201c565b6200020960201b60201c565b6200015b600683620002cf60201b620013141790919060201c565b61012081815250506200017e600782620002cf60201b620013141790919060201c565b6101408181525050818051906020012060e08181525050808051906020012061010081815250504660a08181525050620001bd6200033360201b60201c565b608081815250503073ffffffffffffffffffffffffffffffffffffffff1660c08173ffffffffffffffffffffffffffffffffffffffff16815250505050506200076b565b600033905090565b6000600560009054906101000a900473ffffffffffffffffffffffffffffffffffffffff16905081600560006101000a81548173ffffffffffffffffffffffffffffffffffffffff021916908373ffffffffffffffffffffffffffffffffffffffff1602179055508173ffffffffffffffffffffffffffffffffffffffff168173ffffffffffffffffffffffffffffffffffffffff167f8be0079c531659141344cd1fd0a4f28419497f9722a3daafe3b4186f6b6457e060405160405180910390a35050565b6000602083511015620002f557620002ed836200039060201b60201c565b90506200032d565b826200030c83620003fd60201b6200135f1760201c565b60000190805190602001906200032492919062000407565b5060ff60001b90505b92915050565b60007f8b73c3c69bb8fe3d512ecc4cf759cc79239f7b179b0ffacaa9a75d522b39400f60e0516101005146306040516020016200037595949392919062000532565b60405160208183030381529060405280519060200120905090565b600080829050601f81511115620003e057826040517f305a27a9000000000000000000000000000000000000000000000000000000008152600401620003d7919062000633565b60405180910390fd5b805181620003ee9062000696565b60001c1760001b915050919050565b6000819050919050565b828054620004159062000735565b90600052602060002090601f01602090048101928262000439576000855562000485565b82601f106200045457805160ff191683800117855562000485565b8280016001018555821562000485579182015b828111156200048457825182559160200191906001019062000467565b5b50905062000494919062000498565b5090565b5b80821115620004b357600081600090555060010162000499565b5090565b6000819050919050565b620004cc81620004b7565b82525050565b6000819050919050565b620004e781620004d2565b82525050565b600073ffffffffffffffffffffffffffffffffffffffff82169050919050565b60006200051a82620004ed565b9050919050565b6200052c816200050d565b82525050565b600060a082019050620005496000830188620004c1565b620005586020830187620004c1565b620005676040830186620004c1565b620005766060830185620004dc565b62000585608083018462000521565b9695505050505050565b600081519050919050565b600082825260208201905092915050565b60005b83811015620005cb578082015181840152602081019050620005ae565b83811115620005db576000848401525b50505050565b6000601f19601f8301169050919050565b6000620005ff826200058f565b6200060b81856200059a565b93506200061d818560208601620005ab565b6200062881620005e1565b840191505092915050565b600060208201905081810360008301526200064f8184620005f2565b905092915050565b600081519050919050565b6000819050602082019050919050565b6000620006808251620004b7565b80915050919050565b600082821b905092915050565b6000620006a38262000657565b82620006af8462000662565b9050620006bc8162000672565b92506020821015620006ff57620006fa7fffffffffffffffffffffffffffffffffffffffffffffffffffffffffffffffff8360200360080262000689565b831692505b5050919050565b7f4e487b7100000000000000000000000000000000000000000000000000000000600052602260045260246000fd5b600060028204905060018216806200074e57607f821691505b6020821081141562000765576200076462000706565b5b50919050565b60805160a05160c05160e0516101005161012051610140516148b4620007c66000396000610b2501526000610af101526000611f8501526000611f64015260006118440152600061189a015260006118c301526148b46000f3fe608060405234801561001057600080fd5b50600436106101f05760003560e01c8063715018a61161010f5780639ab24eb0116100a2578063d505accf11610071578063d505accf146105fb578063dd62ed3e14610617578063f1127ed814610647578063f2fde38b14610677576101f0565b80639ab24eb01461054f578063a457c2d71461057f578063a9059cbb146105af578063c3cda520146105df576101f0565b80638da5cb5b116100de5780638da5cb5b146104c55780638e539e8c146104e357806391ddadf41461051357806395d89b4114610531576101f0565b8063715018a61461044b57806379cc6790146104555780637ecebe001461047157806384b0196e146104a1576101f0565b806340c10f19116101875780635ad748e4116101565780635ad748e4146103b35780635c19a95c146103cf5780636fcfff45146103eb57806370a082311461041b576101f0565b806340c10f191461032d57806342966c68146103495780634bf5d7e914610365578063587cde1e14610383576101f0565b8063313ce567116101c3578063313ce567146102915780633644e515146102af57806339509351146102cd5780633a46b1a8146102fd576101f0565b806306fdde03146101f5578063095ea7b31461021357806318160ddd1461024357806323b872dd14610261575b600080fd5b6101fd610693565b60405161020a9190613079565b60405180910390f35b61022d60048036038101906102289190613134565b610725565b60405161023a919061318f565b60405180910390f35b61024b610748565b60405161025891906131b9565b60405180910390f35b61027b600480360381019061027691906131d4565b610752565b604051610288919061318f565b60405180910390f35b610299610781565b6040516102a69190613243565b60405180910390f35b6102b761078a565b6040516102c49190613277565b60405180910390f35b6102e760048036038101906102e29190613134565b610799565b6040516102f4919061318f565b60405180910390f35b61031760048036038101906103129190613134565b6107d0565b60405161032491906131b9565b60405180910390f35b61034760048036038101906103429190613134565b610873565b005b610363600480360381019061035e9190613292565b610889565b005b61036d61089d565b60405161037a9190613079565b60405180910390f35b61039d600480360381019061039891906132bf565b61092b565b6040516103aa91906132fb565b60405180910390f35b6103cd60048036038101906103c89190613134565b610994565b005b6103e960048036038101906103e491906132bf565b6109aa565b005b610405600480360381019061040091906132bf565b6109be565b6040516104129190613335565b60405180910390f35b610435600480360381019061043091906132bf565b610a12565b60405161044291906131b9565b60405180910390f35b610453610a5a565b005b61046f600480360381019061046a9190613134565b610a6e565b005b61048b600480360381019061048691906132bf565b610a8e565b60405161049891906131b9565b60405180910390f35b6104a9610ade565b6040516104bc9796959493929190613449565b60405180910390f35b6104cd610be0565b6040516104da91906132fb565b60405180910390f35b6104fd60048036038101906104f89190613292565b610c0a565b60405161050a91906131b9565b60405180910390f35b61051b610c6f565b60405161052891906134ee565b60405180910390f35b610539610c7f565b6040516105469190613079565b60405180910390f35b610569600480360381019061056491906132bf565b610d11565b60405161057691906131b9565b60405180910390f35b61059960048036038101906105949190613134565b610e19565b6040516105a6919061318f565b60405180910390f35b6105c960048036038101906105c49190613134565b610e90565b6040516105d6919061318f565b60405180910390f35b6105f960048036038101906105f49190613561565b610eb3565b005b610615600480360381019061061091906135ee565b610fb7565b005b610631600480360381019061062c9190613690565b6110f9565b60405161063e91906131b9565b60405180910390f35b610661600480360381019061065c91906136fc565b611180565b60405161066e91906137b1565b60405180910390f35b610691600480360381019061068c91906132bf565b611290565b005b6060600380546106a2906137fb565b80601f01602080910402602001604051908101604052809291908181526020018280546106ce906137fb565b801561071b5780601f106106f05761010080835404028352916020019161071b565b820191906000526020600020905b8154815290600101906020018083116106fe57829003601f168201915b5050505050905090565b600080610730611369565b905061073d818585611371565b600191505092915050565b6000600254905090565b60008061075d611369565b905061076a85828561153c565b6107758585856115c8565b60019150509392505050565b60006012905090565b6000610794611840565b905090565b6000806107a4611369565b90506107c58185856107b685896110f9565b6107c0919061385c565b611371565b600191505092915050565b60006107da610c6f565b65ffffffffffff168210610823576040517f08c379a000000000000000000000000000000000000000000000000000000000815260040161081a906138fe565b60405180910390fd5b61086b600b60008573ffffffffffffffffffffffffffffffffffffffff1673ffffffffffffffffffffffffffffffffffffffff168152602001908152602001600020836118f7565b905092915050565b61087b611a3f565b6108858282611abd565b5050565b61089a610894611369565b82611acb565b50565b6060436108a8610c6f565b65ffffffffffff16146108f0576040517f08c379a00000000000000000000000000000000000000000000000000000000081526004016108e79061396a565b60405180910390fd5b6040518060400160405280601d81526020017f6d6f64653d626c6f636b6e756d6265722666726f6d3d64656661756c74000000815250905090565b6000600a60008373ffffffffffffffffffffffffffffffffffffffff1673ffffffffffffffffffffffffffffffffffffffff16815260200190815260200160002060009054906101000a900473ffffffffffffffffffffffffffffffffffffffff169050919050565b61099c611a3f565b6109a68282611acb565b5050565b6109bb6109b5611369565b82611ad9565b50565b6000610a0b600b60008473ffffffffffffffffffffffffffffffffffffffff1673ffffffffffffffffffffffffffffffffffffffff16815260200190815260200160002080549050611bf3565b9050919050565b60008060008373ffffffffffffffffffffffffffffffffffffffff1673ffffffffffffffffffffffffffffffffffffffff168152602001908152602001600020549050919050565b610a62611a3f565b610a6c6000611c46565b565b610a8082610a7a611369565b8361153c565b610a8a8282611acb565b5050565b6000610ad7600860008473ffffffffffffffffffffffffffffffffffffffff1673ffffffffffffffffffffffffffffffffffffffff168152602001908152602001600020611d0c565b9050919050565b600060608060008060006060610b1e60067f0000000000000000000000000000000000000000000000000000000000000000611d1a90919063ffffffff16565b610b5260077f0000000000000000000000000000000000000000000000000000000000000000611d1a90919063ffffffff16565b46306000801b600067ffffffffffffffff811115610b7357610b7261398a565b5b604051908082528060200260200182016040528015610ba15781602001602082028036833780820191505090505b507f0f00000000000000000000000000000000000000000000000000000000000000959493929190965096509650965096509650965090919293949596565b6000600560009054906101000a900473ffffffffffffffffffffffffffffffffffffffff16905090565b6000610c14610c6f565b65ffffffffffff168210610c5d576040517f08c379a0000000000000000000000000000000000000000000000000000000008152600401610c54906138fe565b60405180910390fd5b610c68600c836118f7565b9050919050565b6000610c7a43611dca565b905090565b606060048054610c8e906137fb565b80601f0160208091040260200160405190810160405280929190818152602001828054610cba906137fb565b8015610d075780601f10610cdc57610100808354040283529160200191610d07565b820191906000526020600020905b815481529060010190602001808311610cea57829003601f168201915b5050505050905090565b600080600b60008473ffffffffffffffffffffffffffffffffffffffff1673ffffffffffffffffffffffffffffffffffffffff16815260200190815260200160002080549050905060008114610df057600b60008473ffffffffffffffffffffffffffffffffffffffff1673ffffffffffffffffffffffffffffffffffffffff1681526020019081526020016000206001820381548110610db557610db46139b9565b5b9060005260206000200160000160049054906101000a90047bffffffffffffffffffffffffffffffffffffffffffffffffffffffff16610df3565b60005b7bffffffffffffffffffffffffffffffffffffffffffffffffffffffff16915050919050565b600080610e24611369565b90506000610e3282866110f9565b905083811015610e77576040517f08c379a0000000000000000000000000000000000000000000000000000000008152600401610e6e90613a5a565b60405180910390fd5b610e848286868403611371565b60019250505092915050565b600080610e9b611369565b9050610ea88185856115c8565b600191505092915050565b83421115610ef6576040517f08c379a0000000000000000000000000000000000000000000000000000000008152600401610eed90613ac6565b60405180910390fd5b6000610f58610f507fe48329057bfd03d55e49b547132e39cffd9c1820ad7b9d4c5307691425d15adf898989604051602001610f359493929190613ae6565b60405160208183030381529060405280519060200120611e1f565b858585611e39565b9050610f6381611e64565b8614610fa4576040517f08c379a0000000000000000000000000000000000000000000000000000000008152600401610f9b90613b77565b60405180910390fd5b610fae8188611ad9565b50505050505050565b83421115610ffa576040517f08c379a0000000000000000000000000000000000000000000000000000000008152600401610ff190613be3565b60405180910390fd5b60007f6e71edae12b1b97f4d1f60370fef10105fa2faae0126114a169c64845d6126c98888886110298c611e64565b8960405160200161103f96959493929190613c03565b604051602081830303815290604052805190602001209050600061106282611e1f565b9050600061107282878787611e39565b90508973ffffffffffffffffffffffffffffffffffffffff168173ffffffffffffffffffffffffffffffffffffffff16146110e2576040517f08c379a00000000000000000000000000000000000000000000000000000000081526004016110d990613cb0565b60405180910390fd5b6110ed8a8a8a611371565b50505050505050505050565b6000600160008473ffffffffffffffffffffffffffffffffffffffff1673ffffffffffffffffffffffffffffffffffffffff16815260200190815260200160002060008373ffffffffffffffffffffffffffffffffffffffff1673ffffffffffffffffffffffffffffffffffffffff16815260200190815260200160002054905092915050565b611188612eff565b600b60008473ffffffffffffffffffffffffffffffffffffffff1673ffffffffffffffffffffffffffffffffffffffff1681526020019081526020016000208263ffffffff16815481106111df576111de6139b9565b5b906000526020600020016040518060400160405290816000820160009054906101000a900463ffffffff1663ffffffff1663ffffffff1681526020016000820160049054906101000a90047bffffffffffffffffffffffffffffffffffffffffffffffffffffffff167bffffffffffffffffffffffffffffffffffffffffffffffffffffffff167bffffffffffffffffffffffffffffffffffffffffffffffffffffffff1681525050905092915050565b611298611a3f565b600073ffffffffffffffffffffffffffffffffffffffff168173ffffffffffffffffffffffffffffffffffffffff161415611308576040517f08c379a00000000000000000000000000000000000000000000000000000000081526004016112ff90613d42565b60405180910390fd5b61131181611c46565b50565b60006020835110156113305761132983611ec2565b9050611359565b8261133a8361135f565b6000019080519060200190611350929190612f3d565b5060ff60001b90505b92915050565b6000819050919050565b600033905090565b600073ffffffffffffffffffffffffffffffffffffffff168373ffffffffffffffffffffffffffffffffffffffff1614156113e1576040517f08c379a00000000000000000000000000000000000000000000000000000000081526004016113d890613dd4565b60405180910390fd5b600073ffffffffffffffffffffffffffffffffffffffff168273ffffffffffffffffffffffffffffffffffffffff161415611451576040517f08c379a000000000000000000000000000000000000000000000000000000000815260040161144890613e66565b60405180910390fd5b80600160008573ffffffffffffffffffffffffffffffffffffffff1673ffffffffffffffffffffffffffffffffffffffff16815260200190815260200160002060008473ffffffffffffffffffffffffffffffffffffffff1673ffffffffffffffffffffffffffffffffffffffff168152602001908152602001600020819055508173ffffffffffffffffffffffffffffffffffffffff168373ffffffffffffffffffffffffffffffffffffffff167f8c5be1e5ebec7d5bd14f71427d1e84f3dd0314c0f7b2291e5b200ac8c7c3b9258360405161152f91906131b9565b60405180910390a3505050565b600061154884846110f9565b90507fffffffffffffffffffffffffffffffffffffffffffffffffffffffffffffffff81146115c257818110156115b4576040517f08c379a00000000000000000000000000000000000000000000000000000000081526004016115ab90613ed2565b60405180910390fd5b6115c18484848403611371565b5b50505050565b600073ffffffffffffffffffffffffffffffffffffffff168373ffffffffffffffffffffffffffffffffffffffff161415611638576040517f08c379a000000000000000000000000000000000000000000000000000000000815260040161162f90613f64565b60405180910390fd5b600073ffffffffffffffffffffffffffffffffffffffff168273ffffffffffffffffffffffffffffffffffffffff1614156116a8576040517f08c379a000000000000000000000000000000000000000000000000000000000815260040161169f90613ff6565b60405180910390fd5b6116b3838383611f2a565b60008060008573ffffffffffffffffffffffffffffffffffffffff1673ffffffffffffffffffffffffffffffffffffffff16815260200190815260200160002054905081811015611739576040517f08c379a000000000000000000000000000000000000000000000000000000000815260040161173090614088565b60405180910390fd5b8181036000808673ffffffffffffffffffffffffffffffffffffffff1673ffffffffffffffffffffffffffffffffffffffff16815260200190815260200160002081905550816000808573ffffffffffffffffffffffffffffffffffffffff1673ffffffffffffffffffffffffffffffffffffffff168152602001908152602001600020600082825401925050819055508273ffffffffffffffffffffffffffffffffffffffff168473ffffffffffffffffffffffffffffffffffffffff167fddf252ad1be2c89b69c2b068fc378daa952ba7f163c4a11628f55a4df523b3ef8460405161182791906131b9565b60405180910390a361183a848484611f2f565b50505050565b60007f000000000000000000000000000000000000000000000000000000000000000073ffffffffffffffffffffffffffffffffffffffff163073ffffffffffffffffffffffffffffffffffffffff161480156118bc57507f000000000000000000000000000000000000000000000000000000000000000046145b156118e9577f000000000000000000000000000000000000000000000000000000000000000090506118f4565b6118f1611f3f565b90505b90565b60008083805490509050600080829050600583111561196d57600061191b84611fd5565b8461192691906140a8565b90508561193388836120cf565b60000160009054906101000a900463ffffffff1663ffffffff16111561195b5780915061196b565b600181611968919061385c565b92505b505b5b808210156119cd57600061198283836120e4565b90508561198f88836120cf565b60000160009054906101000a900463ffffffff1663ffffffff1611156119b7578091506119c7565b6001816119c4919061385c565b92505b5061196e565b60008114611a13576119e286600183036120cf565b60000160049054906101000a90047bffffffffffffffffffffffffffffffffffffffffffffffffffffffff16611a16565b60005b7bffffffffffffffffffffffffffffffffffffffffffffffffffffffff16935050505092915050565b611a47611369565b73ffffffffffffffffffffffffffffffffffffffff16611a65610be0565b73ffffffffffffffffffffffffffffffffffffffff1614611abb576040517f08c379a0000000000000000000000000000000000000000000000000000000008152600401611ab290614128565b60405180910390fd5b565b611ac7828261210a565b5050565b611ad58282612197565b5050565b6000611ae48361092b565b90506000611af184610a12565b905082600a60008673ffffffffffffffffffffffffffffffffffffffff1673ffffffffffffffffffffffffffffffffffffffff16815260200190815260200160002060006101000a81548173ffffffffffffffffffffffffffffffffffffffff021916908373ffffffffffffffffffffffffffffffffffffffff1602179055508273ffffffffffffffffffffffffffffffffffffffff168273ffffffffffffffffffffffffffffffffffffffff168573ffffffffffffffffffffffffffffffffffffffff167f3134e8a2e6d97e929a7e54011ea5485d7d196dd5f0ba4d4ef95803e8e3fc257f60405160405180910390a4611bed8284836121b5565b50505050565b600063ffffffff8016821115611c3e576040517f08c379a0000000000000000000000000000000000000000000000000000000008152600401611c35906141ba565b60405180910390fd5b819050919050565b6000600560009054906101000a900473ffffffffffffffffffffffffffffffffffffffff16905081600560006101000a81548173ffffffffffffffffffffffffffffffffffffffff021916908373ffffffffffffffffffffffffffffffffffffffff1602179055508173ffffffffffffffffffffffffffffffffffffffff168173ffffffffffffffffffffffffffffffffffffffff167f8be0079c531659141344cd1fd0a4f28419497f9722a3daafe3b4186f6b6457e060405160405180910390a35050565b600081600001549050919050565b606060ff60001b8314611d3757611d30836123ae565b9050611dc4565b818054611d43906137fb565b80601f0160208091040260200160405190810160405280929190818152602001828054611d6f906137fb565b8015611dbc5780601f10611d9157610100808354040283529160200191611dbc565b820191906000526020600020905b815481529060010190602001808311611d9f57829003601f168201915b505050505090505b92915050565b600065ffffffffffff8016821115611e17576040517f08c379a0000000000000000000000000000000000000000000000000000000008152600401611e0e9061424c565b60405180910390fd5b819050919050565b6000611e32611e2c611840565b83612422565b9050919050565b6000806000611e4a87878787612463565b91509150611e5781612546565b8192505050949350505050565b600080600860008473ffffffffffffffffffffffffffffffffffffffff1673ffffffffffffffffffffffffffffffffffffffff1681526020019081526020016000209050611eb181611d0c565b9150611ebc816126b4565b50919050565b600080829050601f81511115611f0f57826040517f305a27a9000000000000000000000000000000000000000000000000000000008152600401611f069190613079565b60405180910390fd5b805181611f1b906142a9565b60001c1760001b915050919050565b505050565b611f3a8383836126ca565b505050565b60007f8b73c3c69bb8fe3d512ecc4cf759cc79239f7b179b0ffacaa9a75d522b39400f7f00000000000000000000000000000000000000000000000000000000000000007f00000000000000000000000000000000000000000000000000000000000000004630604051602001611fba959493929190614310565b60405160208183030381529060405280519060200120905090565b600080821415611fe857600090506120ca565b60006001611ff5846126f5565b901c6001901b9050600181848161200f5761200e614363565b5b048201901c9050600181848161202857612027614363565b5b048201901c9050600181848161204157612040614363565b5b048201901c9050600181848161205a57612059614363565b5b048201901c9050600181848161207357612072614363565b5b048201901c9050600181848161208c5761208b614363565b5b048201901c905060018184816120a5576120a4614363565b5b048201901c90506120c6818285816120c0576120bf614363565b5b046127d6565b9150505b919050565b60008260005281602060002001905092915050565b600060028284186120f59190614392565b828416612102919061385c565b905092915050565b61211482826127ef565b61211c612946565b7bffffffffffffffffffffffffffffffffffffffffffffffffffffffff16612142610748565b1115612183576040517f08c379a000000000000000000000000000000000000000000000000000000000815260040161217a90614435565b60405180910390fd5b612191600c61296a83612980565b50505050565b6121a18282612c5b565b6121af600c612e2983612980565b50505050565b8173ffffffffffffffffffffffffffffffffffffffff168373ffffffffffffffffffffffffffffffffffffffff16141580156121f15750600081115b156123a957600073ffffffffffffffffffffffffffffffffffffffff168373ffffffffffffffffffffffffffffffffffffffff16146122cf57600080612278600b60008773ffffffffffffffffffffffffffffffffffffffff1673ffffffffffffffffffffffffffffffffffffffff168152602001908152602001600020612e2985612980565b915091508473ffffffffffffffffffffffffffffffffffffffff167fdec2bacdd2f05b59de34da9b523dff8be42e5e38e818c82fdb0bae774387a72483836040516122c4929190614455565b60405180910390a250505b600073ffffffffffffffffffffffffffffffffffffffff168273ffffffffffffffffffffffffffffffffffffffff16146123a857600080612351600b60008673ffffffffffffffffffffffffffffffffffffffff1673ffffffffffffffffffffffffffffffffffffffff16815260200190815260200160002061296a85612980565b915091508373ffffffffffffffffffffffffffffffffffffffff167fdec2bacdd2f05b59de34da9b523dff8be42e5e38e818c82fdb0bae774387a724838360405161239d929190614455565b60405180910390a250505b5b505050565b606060006123bb83612e3f565b90506000602067ffffffffffffffff8111156123da576123d961398a565b5b6040519080825280601f01601f19166020018201604052801561240c5781602001600182028036833780820191505090505b5090508181528360208201528092505050919050565b60006040517f190100000000000000000000000000000000000000000000000000000000000081528360028201528260228201526042812091505092915050565b6000807f7fffffffffffffffffffffffffffffff5d576e7357a4501ddfe92f46681b20a08360001c111561249e57600060039150915061253d565b6000600187878787604051600081526020016040526040516124c3949392919061447e565b6020604051602081039080840390855afa1580156124e5573d6000803e3d6000fd5b505050602060405103519050600073ffffffffffffffffffffffffffffffffffffffff168173ffffffffffffffffffffffffffffffffffffffff1614156125345760006001925092505061253d565b80600092509250505b94509492505050565b6000600481111561255a576125596144c3565b5b81600481111561256d5761256c6144c3565b5b1415612578576126b1565b6001600481111561258c5761258b6144c3565b5b81600481111561259f5761259e6144c3565b5b14156125e0576040517f08c379a00000000000000000000000000000000000000000000000000000000081526004016125d79061453e565b60405180910390fd5b600260048111156125f4576125f36144c3565b5b816004811115612607576126066144c3565b5b1415612648576040517f08c379a000000000000000000000000000000000000000000000000000000000815260040161263f906145aa565b60405180910390fd5b6003600481111561265c5761265b6144c3565b5b81600481111561266f5761266e6144c3565b5b14156126b0576040517f08c379a00000000000000000000000000000000000000000000000000000000081526004016126a79061463c565b60405180910390fd5b5b50565b6001816000016000828254019250508190555050565b6126d5838383612e8f565b6126f06126e18461092b565b6126ea8461092b565b836121b5565b505050565b600080600090506000608084901c111561271757608083901c92506080810190505b6000604084901c111561273257604083901c92506040810190505b6000602084901c111561274d57602083901c92506020810190505b6000601084901c111561276857601083901c92506010810190505b6000600884901c111561278357600883901c92506008810190505b6000600484901c111561279e57600483901c92506004810190505b6000600284901c11156127b957600283901c92506002810190505b6000600184901c11156127cd576001810190505b80915050919050565b60008183106127e557816127e7565b825b905092915050565b600073ffffffffffffffffffffffffffffffffffffffff168273ffffffffffffffffffffffffffffffffffffffff16141561285f576040517f08c379a0000000000000000000000000000000000000000000000000000000008152600401612856906146a8565b60405180910390fd5b61286b60008383611f2a565b806002600082825461287d919061385c565b92505081905550806000808473ffffffffffffffffffffffffffffffffffffffff1673ffffffffffffffffffffffffffffffffffffffff168152602001908152602001600020600082825401925050819055508173ffffffffffffffffffffffffffffffffffffffff16600073ffffffffffffffffffffffffffffffffffffffff167fddf252ad1be2c89b69c2b068fc378daa952ba7f163c4a11628f55a4df523b3ef8360405161292e91906131b9565b60405180910390a361294260008383611f2f565b5050565b60007bffffffffffffffffffffffffffffffffffffffffffffffffffffffff905090565b60008183612978919061385c565b905092915050565b6000806000858054905090506000808214612a46576129a287600184036120cf565b6040518060400160405290816000820160009054906101000a900463ffffffff1663ffffffff1663ffffffff1681526020016000820160049054906101000a90047bffffffffffffffffffffffffffffffffffffffffffffffffffffffff167bffffffffffffffffffffffffffffffffffffffffffffffffffffffff167bffffffffffffffffffffffffffffffffffffffffffffffffffffffff1681525050612a82565b6040518060400160405280600063ffffffff16815260200160007bffffffffffffffffffffffffffffffffffffffffffffffffffffffff168152505b905080602001517bffffffffffffffffffffffffffffffffffffffffffffffffffffffff169350612ab784868863ffffffff16565b9250600082118015612ae15750612acc610c6f565b65ffffffffffff16816000015163ffffffff16145b15612b5257612aef83612e94565b612afc88600185036120cf565b60000160046101000a8154817bffffffffffffffffffffffffffffffffffffffffffffffffffffffff02191690837bffffffffffffffffffffffffffffffffffffffffffffffffffffffff160217905550612c51565b866040518060400160405280612b76612b69610c6f565b65ffffffffffff16611bf3565b63ffffffff168152602001612b8a86612e94565b7bffffffffffffffffffffffffffffffffffffffffffffffffffffffff168152509080600181540180825580915050600190039060005260206000200160009091909190915060008201518160000160006101000a81548163ffffffff021916908363ffffffff16021790555060208201518160000160046101000a8154817bffffffffffffffffffffffffffffffffffffffffffffffffffffffff02191690837bffffffffffffffffffffffffffffffffffffffffffffffffffffffff16021790555050505b5050935093915050565b600073ffffffffffffffffffffffffffffffffffffffff168273ffffffffffffffffffffffffffffffffffffffff161415612ccb576040517f08c379a0000000000000000000000000000000000000000000000000000000008152600401612cc29061473a565b60405180910390fd5b612cd782600083611f2a565b60008060008473ffffffffffffffffffffffffffffffffffffffff1673ffffffffffffffffffffffffffffffffffffffff16815260200190815260200160002054905081811015612d5d576040517f08c379a0000000000000000000000000000000000000000000000000000000008152600401612d54906147cc565b60405180910390fd5b8181036000808573ffffffffffffffffffffffffffffffffffffffff1673ffffffffffffffffffffffffffffffffffffffff1681526020019081526020016000208190555081600260008282540392505081905550600073ffffffffffffffffffffffffffffffffffffffff168373ffffffffffffffffffffffffffffffffffffffff167fddf252ad1be2c89b69c2b068fc378daa952ba7f163c4a11628f55a4df523b3ef84604051612e1091906131b9565b60405180910390a3612e2483600084611f2f565b505050565b60008183612e3791906140a8565b905092915050565b60008060ff8360001c169050601f811115612e86576040517fb3512b0c00000000000000000000000000000000000000000000000000000000815260040160405180910390fd5b80915050919050565b505050565b60007bffffffffffffffffffffffffffffffffffffffffffffffffffffffff8016821115612ef7576040517f08c379a0000000000000000000000000000000000000000000000000000000008152600401612eee9061485e565b60405180910390fd5b819050919050565b6040518060400160405280600063ffffffff16815260200160007bffffffffffffffffffffffffffffffffffffffffffffffffffffffff1681525090565b828054612f49906137fb565b90600052602060002090601f016020900481019282612f6b5760008555612fb2565b82601f10612f8457805160ff1916838001178555612fb2565b82800160010185558215612fb2579182015b82811115612fb1578251825591602001919060010190612f96565b5b509050612fbf9190612fc3565b5090565b5b80821115612fdc576000816000905550600101612fc4565b5090565b600081519050919050565b600082825260208201905092915050565b60005b8381101561301a578082015181840152602081019050612fff565b83811115613029576000848401525b50505050565b6000601f19601f8301169050919050565b600061304b82612fe0565b6130558185612feb565b9350613065818560208601612ffc565b61306e8161302f565b840191505092915050565b600060208201905081810360008301526130938184613040565b905092915050565b600080fd5b600073ffffffffffffffffffffffffffffffffffffffff82169050919050565b60006130cb826130a0565b9050919050565b6130db816130c0565b81146130e657600080fd5b50565b6000813590506130f8816130d2565b92915050565b6000819050919050565b613111816130fe565b811461311c57600080fd5b50565b60008135905061312e81613108565b92915050565b6000806040838503121561314b5761314a61309b565b5b6000613159858286016130e9565b925050602061316a8582860161311f565b9150509250929050565b60008115159050919050565b61318981613174565b82525050565b60006020820190506131a46000830184613180565b92915050565b6131b3816130fe565b82525050565b60006020820190506131ce60008301846131aa565b92915050565b6000806000606084860312156131ed576131ec61309b565b5b60006131fb868287016130e9565b935050602061320c868287016130e9565b925050604061321d8682870161311f565b9150509250925092565b600060ff82169050919050565b61323d81613227565b82525050565b60006020820190506132586000830184613234565b92915050565b6000819050919050565b6132718161325e565b82525050565b600060208201905061328c6000830184613268565b92915050565b6000602082840312156132a8576132a761309b565b5b60006132b68482850161311f565b91505092915050565b6000602082840312156132d5576132d461309b565b5b60006132e3848285016130e9565b91505092915050565b6132f5816130c0565b82525050565b600060208201905061331060008301846132ec565b92915050565b600063ffffffff82169050919050565b61332f81613316565b82525050565b600060208201905061334a6000830184613326565b92915050565b60007fff0000000000000000000000000000000000000000000000000000000000000082169050919050565b61338581613350565b82525050565b600081519050919050565b600082825260208201905092915050565b6000819050602082019050919050565b6133c0816130fe565b82525050565b60006133d283836133b7565b60208301905092915050565b6000602082019050919050565b60006133f68261338b565b6134008185613396565b935061340b836133a7565b8060005b8381101561343c57815161342388826133c6565b975061342e836133de565b92505060018101905061340f565b5085935050505092915050565b600060e08201905061345e600083018a61337c565b81810360208301526134708189613040565b905081810360408301526134848188613040565b905061349360608301876131aa565b6134a060808301866132ec565b6134ad60a0830185613268565b81810360c08301526134bf81846133eb565b905098975050505050505050565b600065ffffffffffff82169050919050565b6134e8816134cd565b82525050565b600060208201905061350360008301846134df565b92915050565b61351281613227565b811461351d57600080fd5b50565b60008135905061352f81613509565b92915050565b61353e8161325e565b811461354957600080fd5b50565b60008135905061355b81613535565b92915050565b60008060008060008060c0878903121561357e5761357d61309b565b5b600061358c89828a016130e9565b965050602061359d89828a0161311f565b95505060406135ae89828a0161311f565b94505060606135bf89828a01613520565b93505060806135d089828a0161354c565b92505060a06135e189828a0161354c565b9150509295509295509295565b600080600080600080600060e0888a03121561360d5761360c61309b565b5b600061361b8a828b016130e9565b975050602061362c8a828b016130e9565b965050604061363d8a828b0161311f565b955050606061364e8a828b0161311f565b945050608061365f8a828b01613520565b93505060a06136708a828b0161354c565b92505060c06136818a828b0161354c565b91505092959891949750929550565b600080604083850312156136a7576136a661309b565b5b60006136b5858286016130e9565b92505060206136c6858286016130e9565b9150509250929050565b6136d981613316565b81146136e457600080fd5b50565b6000813590506136f6816136d0565b92915050565b600080604083850312156137135761371261309b565b5b6000613721858286016130e9565b9250506020613732858286016136e7565b9150509250929050565b61374581613316565b82525050565b60007bffffffffffffffffffffffffffffffffffffffffffffffffffffffff82169050919050565b61377c8161374b565b82525050565b604082016000820151613798600085018261373c565b5060208201516137ab6020850182613773565b50505050565b60006040820190506137c66000830184613782565b92915050565b7f4e487b7100000000000000000000000000000000000000000000000000000000600052602260045260246000fd5b6000600282049050600182168061381357607f821691505b60208210811415613827576138266137cc565b5b50919050565b7f4e487b7100000000000000000000000000000000000000000000000000000000600052601160045260246000fd5b6000613867826130fe565b9150613872836130fe565b9250827fffffffffffffffffffffffffffffffffffffffffffffffffffffffffffffffff038211156138a7576138a661382d565b5b828201905092915050565b7f4552433230566f7465733a20667574757265206c6f6f6b757000000000000000600082015250565b60006138e8601983612feb565b91506138f3826138b2565b602082019050919050565b60006020820190508181036000830152613917816138db565b9050919050565b7f4552433230566f7465733a2062726f6b656e20636c6f636b206d6f6465000000600082015250565b6000613954601d83612feb565b915061395f8261391e565b602082019050919050565b6000602082019050818103600083015261398381613947565b9050919050565b7f4e487b7100000000000000000000000000000000000000000000000000000000600052604160045260246000fd5b7f4e487b7100000000000000000000000000000000000000000000000000000000600052603260045260246000fd5b7f45524332303a2064656372656173656420616c6c6f77616e63652062656c6f7760008201527f207a65726f000000000000000000000000000000000000000000000000000000602082015250565b6000613a44602583612feb565b9150613a4f826139e8565b604082019050919050565b60006020820190508181036000830152613a7381613a37565b9050919050565b7f4552433230566f7465733a207369676e61747572652065787069726564000000600082015250565b6000613ab0601d83612feb565b9150613abb82613a7a565b602082019050919050565b60006020820190508181036000830152613adf81613aa3565b9050919050565b6000608082019050613afb6000830187613268565b613b0860208301866132ec565b613b1560408301856131aa565b613b2260608301846131aa565b95945050505050565b7f4552433230566f7465733a20696e76616c6964206e6f6e636500000000000000600082015250565b6000613b61601983612feb565b9150613b6c82613b2b565b602082019050919050565b60006020820190508181036000830152613b9081613b54565b9050919050565b7f45524332305065726d69743a206578706972656420646561646c696e65000000600082015250565b6000613bcd601d83612feb565b9150613bd882613b97565b602082019050919050565b60006020820190508181036000830152613bfc81613bc0565b9050919050565b600060c082019050613c186000830189613268565b613c2560208301886132ec565b613c3260408301876132ec565b613c3f60608301866131aa565b613c4c60808301856131aa565b613c5960a08301846131aa565b979650505050505050565b7f45524332305065726d69743a20696e76616c6964207369676e61747572650000600082015250565b6000613c9a601e83612feb565b9150613ca582613c64565b602082019050919050565b60006020820190508181036000830152613cc981613c8d565b9050919050565b7f4f776e61626c653a206e6577206f776e657220697320746865207a65726f206160008201527f6464726573730000000000000000000000000000000000000000000000000000602082015250565b6000613d2c602683612feb565b9150613d3782613cd0565b604082019050919050565b60006020820190508181036000830152613d5b81613d1f565b9050919050565b7f45524332303a20617070726f76652066726f6d20746865207a65726f2061646460008201527f7265737300000000000000000000000000000000000000000000000000000000602082015250565b6000613dbe602483612feb565b9150613dc982613d62565b604082019050919050565b60006020820190508181036000830152613ded81613db1565b9050919050565b7f45524332303a20617070726f766520746f20746865207a65726f20616464726560008201527f7373000000000000000000000000000000000000000000000000000000000000602082015250565b6000613e50602283612feb565b9150613e5b82613df4565b604082019050919050565b60006020820190508181036000830152613e7f81613e43565b9050919050565b7f45524332303a20696e73756666696369656e7420616c6c6f77616e6365000000600082015250565b6000613ebc601d83612feb565b9150613ec782613e86565b602082019050919050565b60006020820190508181036000830152613eeb81613eaf565b9050919050565b7f45524332303a207472616e736665722066726f6d20746865207a65726f20616460008201527f6472657373000000000000000000000000000000000000000000000000000000602082015250565b6000613f4e602583612feb565b9150613f5982613ef2565b604082019050919050565b60006020820190508181036000830152613f7d81613f41565b9050919050565b7f45524332303a207472616e7366657220746f20746865207a65726f206164647260008201527f6573730000000000000000000000000000000000000000000000000000000000602082015250565b6000613fe0602383612feb565b9150613feb82613f84565b604082019050919050565b6000602082019050818103600083015261400f81613fd3565b9050919050565b7f45524332303a207472616e7366657220616d6f756e742065786365656473206260008201527f616c616e63650000000000000000000000000000000000000000000000000000602082015250565b6000614072602683612feb565b915061407d82614016565b604082019050919050565b600060208201905081810360008301526140a181614065565b9050919050565b60006140b3826130fe565b91506140be836130fe565b9250828210156140d1576140d061382d565b5b828203905092915050565b7f4f776e61626c653a2063616c6c6572206973206e6f7420746865206f776e6572600082015250565b6000614112602083612feb565b915061411d826140dc565b602082019050919050565b6000602082019050818103600083015261414181614105565b9050919050565b7f53616665436173743a2076616c756520646f65736e27742066697420696e203360008201527f3220626974730000000000000000000000000000000000000000000000000000602082015250565b60006141a4602683612feb565b91506141af82614148565b604082019050919050565b600060208201905081810360008301526141d381614197565b9050919050565b7f53616665436173743a2076616c756520646f65736e27742066697420696e203460008201527f3820626974730000000000000000000000000000000000000000000000000000602082015250565b6000614236602683612feb565b9150614241826141da565b604082019050919050565b6000602082019050818103600083015261426581614229565b9050919050565b600081519050919050565b6000819050602082019050919050565b6000614293825161325e565b80915050919050565b600082821b905092915050565b60006142b48261426c565b826142be84614277565b90506142c981614287565b92506020821015614309576143047fffffffffffffffffffffffffffffffffffffffffffffffffffffffffffffffff8360200360080261429c565b831692505b5050919050565b600060a0820190506143256000830188613268565b6143326020830187613268565b61433f6040830186613268565b61434c60608301856131aa565b61435960808301846132ec565b9695505050505050565b7f4e487b7100000000000000000000000000000000000000000000000000000000600052601260045260246000fd5b600061439d826130fe565b91506143a8836130fe565b9250826143b8576143b7614363565b5b828204905092915050565b7f4552433230566f7465733a20746f74616c20737570706c79207269736b73206f60008201527f766572666c6f77696e6720766f74657300000000000000000000000000000000602082015250565b600061441f603083612feb565b915061442a826143c3565b604082019050919050565b6000602082019050818103600083015261444e81614412565b9050919050565b600060408201905061446a60008301856131aa565b61447760208301846131aa565b9392505050565b60006080820190506144936000830187613268565b6144a06020830186613234565b6144ad6040830185613268565b6144ba6060830184613268565b95945050505050565b7f4e487b7100000000000000000000000000000000000000000000000000000000600052602160045260246000fd5b7f45434453413a20696e76616c6964207369676e61747572650000000000000000600082015250565b6000614528601883612feb565b9150614533826144f2565b602082019050919050565b600060208201905081810360008301526145578161451b565b9050919050565b7f45434453413a20696e76616c6964207369676e6174757265206c656e67746800600082015250565b6000614594601f83612feb565b915061459f8261455e565b602082019050919050565b600060208201905081810360008301526145c381614587565b9050919050565b7f45434453413a20696e76616c6964207369676e6174757265202773272076616c60008201527f7565000000000000000000000000000000000000000000000000000000000000602082015250565b6000614626602283612feb565b9150614631826145ca565b604082019050919050565b6000602082019050818103600083015261465581614619565b9050919050565b7f45524332303a206d696e7420746f20746865207a65726f206164647265737300600082015250565b6000614692601f83612feb565b915061469d8261465c565b602082019050919050565b600060208201905081810360008301526146c181614685565b9050919050565b7f45524332303a206275726e2066726f6d20746865207a65726f2061646472657360008201527f7300000000000000000000000000000000000000000000000000000000000000602082015250565b6000614724602183612feb565b915061472f826146c8565b604082019050919050565b6000602082019050818103600083015261475381614717565b9050919050565b7f45524332303a206275726e20616d6f756e7420657863656564732062616c616e60008201527f6365000000000000000000000000000000000000000000000000000000000000602082015250565b60006147b6602283612feb565b91506147c18261475a565b604082019050919050565b600060208201905081810360008301526147e5816147a9565b9050919050565b7f53616665436173743a2076616c756520646f65736e27742066697420696e203260008201527f3234206269747300000000000000000000000000000000000000000000000000602082015250565b6000614848602783612feb565b9150614853826147ec565b604082019050919050565b600060208201905081810360008301526148778161483b565b905091905056fea2646970667358221220f54a8edbbdf28452bb626345d4b684649e8b3e248f7403bd26ff76895f3bfa0364736f6c63430008090033",
  "linkReferences": {},
  "deployedLinkReferences": {}
}