{
  "_format": "hh-sol-artifact-1",
  "contractName": "exchange",
  "sourceName": "contracts/exchangeDecentralised.sol",
  "abi": [
    {
      "anonymous": false,
      "inputs": [
        {
          "indexed": false,
          "internalType": "uint256",
          "name": "amount",
          "type": "uint256"
        },
        {
          "indexed": false,
          "internalType": "address",
          "name": "_who",
          "type": "address"
        },
        {
          "indexed": false,
          "internalType": "uint256",
          "name": "nonce",
          "type": "uint256"
        }
      ],
      "name": "ethReceived",
      "type": "event"
    },
    {
      "anonymous": false,
      "inputs": [
        {
          "indexed": false,
          "internalType": "address",
          "name": "owner",
          "type": "address"
        },
        {
          "indexed": false,
          "internalType": "string",
          "name": "uri",
          "type": "string"
        },
        {
          "indexed": false,
          "internalType": "uint256",
          "name": "nonce",
          "type": "uint256"
        }
      ],
      "name": "nftBurned",
      "type": "event"
    },
    {
      "anonymous": false,
      "inputs": [
        {
          "indexed": false,
          "internalType": "uint256",
          "name": "nonce",
          "type": "uint256"
        }
      ],
      "name": "transactionAttested",
      "type": "event"
    },
    {
      "inputs": [
        {
          "internalType": "uint256",
          "name": "",
          "type": "uint256"
        }
      ],
      "name": "allTransactions",
      "outputs": [
        {
          "internalType": "uint256",
          "name": "versionCount",
          "type": "uint256"
        },
        {
          "internalType": "bool",
          "name": "minted",
          "type": "bool"
        }
      ],
      "stateMutability": "view",
      "type": "function"
    },
    {
      "inputs": [
        {
          "internalType": "uint256",
          "name": "_nonce",
          "type": "uint256"
        },
        {
          "internalType": "string",
          "name": "_uri",
          "type": "string"
        },
        {
          "internalType": "address",
          "name": "_owner",
          "type": "address"
        },
        {
          "internalType": "uint256",
          "name": "_amount",
          "type": "uint256"
        }
      ],
      "name": "attestTransaction",
      "outputs": [],
      "stateMutability": "nonpayable",
      "type": "function"
    },
    {
      "inputs": [],
      "name": "becomeAttestor",
      "outputs": [],
      "stateMutability": "payable",
      "type": "function"
    },
    {
      "inputs": [
        {
          "internalType": "address",
          "name": "_borrower",
          "type": "address"
        }
      ],
      "name": "buyCollateralNft",
      "outputs": [],
      "stateMutability": "payable",
      "type": "function"
    },
    {
      "inputs": [
        {
          "internalType": "uint256",
          "name": "_nonce",
          "type": "uint256"
        }
      ],
      "name": "completeAttestedTx",
      "outputs": [],
      "stateMutability": "nonpayable",
      "type": "function"
    },
    {
      "inputs": [],
      "name": "exchangeNftAddr",
      "outputs": [
        {
          "internalType": "address",
          "name": "",
          "type": "address"
        }
      ],
      "stateMutability": "view",
      "type": "function"
    },
    {
      "inputs": [
        {
          "internalType": "uint256",
          "name": "_amount",
          "type": "uint256"
        },
        {
          "internalType": "uint256",
          "name": "_period",
          "type": "uint256"
        },
        {
          "internalType": "uint256",
          "name": "_nftTokenId",
          "type": "uint256"
        }
      ],
      "name": "getLoan",
      "outputs": [],
      "stateMutability": "nonpayable",
      "type": "function"
    },
    {
      "inputs": [
        {
          "internalType": "address",
          "name": "",
          "type": "address"
        }
      ],
      "name": "isAttestor",
      "outputs": [
        {
          "internalType": "bool",
          "name": "",
          "type": "bool"
        }
      ],
      "stateMutability": "view",
      "type": "function"
    },
    {
      "inputs": [
        {
          "internalType": "address",
          "name": "",
          "type": "address"
        }
      ],
      "name": "loan",
      "outputs": [
        {
          "internalType": "uint256",
          "name": "amount",
          "type": "uint256"
        },
        {
          "internalType": "uint256",
          "name": "cutOffTimestamp",
          "type": "uint256"
        },
        {
          "internalType": "uint256",
          "name": "nftTokenId",
          "type": "uint256"
        },
        {
          "internalType": "bool",
          "name": "set",
          "type": "bool"
        }
      ],
      "stateMutability": "view",
      "type": "function"
    },
    {
      "inputs": [],
      "name": "nonce",
      "outputs": [
        {
          "internalType": "uint256",
          "name": "",
          "type": "uint256"
        }
      ],
      "stateMutability": "view",
      "type": "function"
    },
    {
      "inputs": [],
      "name": "returnLoan",
      "outputs": [],
      "stateMutability": "payable",
      "type": "function"
    },
    {
      "inputs": [],
      "name": "sendEthOver",
      "outputs": [],
      "stateMutability": "payable",
      "type": "function"
    },
    {
      "inputs": [
        {
          "internalType": "uint256",
          "name": "period",
          "type": "uint256"
        }
      ],
      "name": "stakeEth",
      "outputs": [],
      "stateMutability": "payable",
      "type": "function"
    },
    {
      "inputs": [],
      "name": "stakeTokenAddr",
      "outputs": [
        {
          "internalType": "address",
          "name": "",
          "type": "address"
        }
      ],
      "stateMutability": "view",
      "type": "function"
    },
    {
      "inputs": [
        {
          "internalType": "address",
          "name": "",
          "type": "address"
        },
        {
          "internalType": "uint256",
          "name": "",
          "type": "uint256"
        }
      ],
      "name": "stakes",
      "outputs": [
        {
          "internalType": "uint256",
          "name": "tokens",
          "type": "uint256"
        },
        {
          "internalType": "uint256",
          "name": "unlockTimestamp",
          "type": "uint256"
        }
      ],
      "stateMutability": "view",
      "type": "function"
    },
    {
      "inputs": [
        {
          "internalType": "address",
          "name": "",
          "type": "address"
        }
      ],
      "name": "stakesNumber",
      "outputs": [
        {
          "internalType": "uint256",
          "name": "",
          "type": "uint256"
        }
      ],
      "stateMutability": "view",
      "type": "function"
    },
    {
      "inputs": [
        {
          "internalType": "uint256",
          "name": "_tokenId",
          "type": "uint256"
        }
      ],
      "name": "transferToDead",
      "outputs": [],
      "stateMutability": "nonpayable",
      "type": "function"
    },
    {
      "inputs": [
        {
          "internalType": "uint256",
          "name": "",
          "type": "uint256"
        }
      ],
      "name": "users",
      "outputs": [
        {
          "internalType": "address",
          "name": "",
          "type": "address"
        }
      ],
      "stateMutability": "view",
      "type": "function"
    },
    {
      "inputs": [],
      "name": "usersCount",
      "outputs": [
        {
          "internalType": "uint256",
          "name": "",
          "type": "uint256"
        }
      ],
      "stateMutability": "view",
      "type": "function"
    },
    {
      "inputs": [
        {
          "internalType": "uint256",
          "name": "value",
          "type": "uint256"
        }
      ],
      "name": "withdrawStakedEth",
      "outputs": [],
      "stateMutability": "nonpayable",
      "type": "function"
    }
  ],
  "bytecode": "0x60806040526040516200001290620001b3565b604051809103906000f0801580156200002f573d6000803e3d6000fd5b506000806101000a81548173ffffffffffffffffffffffffffffffffffffffff021916908373ffffffffffffffffffffffffffffffffffffffff1602179055506040516200007d90620001c1565b604051809103906000f0801580156200009a573d6000803e3d6000fd5b50600160006101000a81548173ffffffffffffffffffffffffffffffffffffffff021916908373ffffffffffffffffffffffffffffffffffffffff160217905550600160009054906101000a900473ffffffffffffffffffffffffffffffffffffffff16600260006101000a81548173ffffffffffffffffffffffffffffffffffffffff021916908373ffffffffffffffffffffffffffffffffffffffff16021790555060008054906101000a900473ffffffffffffffffffffffffffffffffffffffff16600360006101000a81548173ffffffffffffffffffffffffffffffffffffffff021916908373ffffffffffffffffffffffffffffffffffffffff160217905550348015620001ac57600080fd5b50620001cf565b61507a8062002f1f83390190565b613b888062007f9983390190565b612d4080620001df6000396000f3fe60806040526004361061011f5760003560e01c80638501813e116100a0578063bab15d1211610064578063bab15d12146103c0578063d7ff0714146103ca578063d9385c9914610408578063d9f6184414610433578063e9087bf71461045c5761011f565b80638501813e146102e757806396db582a14610310578063a48cdf981461032c578063affed0e014610355578063b5e2ebc6146103805761011f565b80633a372f59116100e75780633a372f5914610220578063430572ed1461024b578063584b62a1146102745780636ba13a82146102b257806372dde3fe146102dd5761011f565b80632ad1285b146101245780632e2f4e241461014d578063305c1a731461018a578063326508f2146101c7578063365b98b2146101e3575b600080fd5b34801561013057600080fd5b5061014b6004803603810190610146919061209a565b610466565b005b34801561015957600080fd5b50610174600480360381019061016f9190612125565b6107a8565b604051610181919061216d565b60405180910390f35b34801561019657600080fd5b506101b160048036038101906101ac9190612125565b6107c8565b6040516101be9190612197565b60405180910390f35b6101e160048036038101906101dc9190612125565b6107e0565b005b3480156101ef57600080fd5b5061020a6004803603810190610205919061209a565b610990565b60405161021791906121c1565b60405180910390f35b34801561022c57600080fd5b506102356109c3565b60405161024291906121c1565b60405180910390f35b34801561025757600080fd5b50610272600480360381019061026d919061209a565b6109e9565b005b34801561028057600080fd5b5061029b600480360381019061029691906121dc565b610b85565b6040516102a992919061221c565b60405180910390f35b3480156102be57600080fd5b506102c7610bb6565b6040516102d49190612197565b60405180910390f35b6102e5610bbc565b005b3480156102f357600080fd5b5061030e6004803603810190610309919061238b565b610d60565b005b61032a6004803603810190610325919061209a565b611299565b005b34801561033857600080fd5b50610353600480360381019061034e919061209a565b6114e2565b005b34801561036157600080fd5b5061036a611a78565b6040516103779190612197565b60405180910390f35b34801561038c57600080fd5b506103a760048036038101906103a29190612125565b611a7e565b6040516103b7949392919061240e565b60405180910390f35b6103c8611abb565b005b3480156103d657600080fd5b506103f160048036038101906103ec919061209a565b611b26565b6040516103ff929190612453565b60405180910390f35b34801561041457600080fd5b5061041d611b57565b60405161042a91906121c1565b60405180910390f35b34801561043f57600080fd5b5061045a6004803603810190610455919061247c565b611b7d565b005b610464611eb7565b005b60008033905060005b600860008373ffffffffffffffffffffffffffffffffffffffff1673ffffffffffffffffffffffffffffffffffffffff1681526020019081526020016000205481101561068c576000600760008473ffffffffffffffffffffffffffffffffffffffff1673ffffffffffffffffffffffffffffffffffffffff168152602001908152602001600020600083815260200190815260200160002060010154905042811015610678576000600760008573ffffffffffffffffffffffffffffffffffffffff1673ffffffffffffffffffffffffffffffffffffffff168152602001908152602001600020600084815260200190815260200160002060000154905085818661057b91906124fe565b116105ec57808561058c91906124fe565b94506000600760008673ffffffffffffffffffffffffffffffffffffffff1673ffffffffffffffffffffffffffffffffffffffff168152602001908152602001600020600085815260200190815260200160002060000181905550610676565b600085876105fa9190612554565b905080600760008773ffffffffffffffffffffffffffffffffffffffff1673ffffffffffffffffffffffffffffffffffffffff1681526020019081526020016000206000868152602001908152602001600020600001600082825461065f9190612554565b92505081905550808661067291906124fe565b9550505b505b50808061068490612588565b91505061046f565b508282146106cf576040517f08c379a00000000000000000000000000000000000000000000000000000000081526004016106c69061262e565b60405180910390fd5b60008054906101000a900473ffffffffffffffffffffffffffffffffffffffff1673ffffffffffffffffffffffffffffffffffffffff16635ad748e433846040518363ffffffff1660e01b815260040161072a92919061264e565b600060405180830381600087803b15801561074457600080fd5b505af1158015610758573d6000803e3d6000fd5b505050503373ffffffffffffffffffffffffffffffffffffffff166108fc839081150290604051600060405180830381858888f193505050501580156107a2573d6000803e3d6000fd5b50505050565b60056020528060005260406000206000915054906101000a900460ff1681565b60086020528060005260406000206000915090505481565b6000600960008373ffffffffffffffffffffffffffffffffffffffff1673ffffffffffffffffffffffffffffffffffffffff1681526020019081526020016000206040518060800160405290816000820154815260200160018201548152602001600282015481526020016003820160009054906101000a900460ff1615151515815250509050428160200151111561087857600080fd5b806000015134101561088957600080fd5b600160009054906101000a900473ffffffffffffffffffffffffffffffffffffffff1673ffffffffffffffffffffffffffffffffffffffff166323b872dd303384604001516040518463ffffffff1660e01b81526004016108ec93929190612677565b600060405180830381600087803b15801561090657600080fd5b505af115801561091a573d6000803e3d6000fd5b50505050600960008373ffffffffffffffffffffffffffffffffffffffff1673ffffffffffffffffffffffffffffffffffffffff168152602001908152602001600020600080820160009055600182016000905560028201600090556003820160006101000a81549060ff021916905550505050565b600a6020528060005260406000206000915054906101000a900473ffffffffffffffffffffffffffffffffffffffff1681565b600260009054906101000a900473ffffffffffffffffffffffffffffffffffffffff1681565b600061dead9050600160009054906101000a900473ffffffffffffffffffffffffffffffffffffffff1673ffffffffffffffffffffffffffffffffffffffff166323b872dd3383856040518463ffffffff1660e01b8152600401610a4f93929190612677565b600060405180830381600087803b158015610a6957600080fd5b505af1158015610a7d573d6000803e3d6000fd5b505050507fbb07688619cbfd71f01581c355bbd872d29e28fa2ce10e2919c3f77bd7e2737633600160009054906101000a900473ffffffffffffffffffffffffffffffffffffffff1673ffffffffffffffffffffffffffffffffffffffff1663c87b56dd856040518263ffffffff1660e01b8152600401610afe9190612197565b60006040518083038186803b158015610b1657600080fd5b505afa158015610b2a573d6000803e3d6000fd5b505050506040513d6000823e3d601f19601f82011682018060405250810190610b539190612751565b60046000815480929190610b6690612588565b91905055604051610b79939291906127de565b60405180910390a15050565b6007602052816000526040600020602052806000526040600020600091509150508060000154908060010154905082565b600b5481565b6000600960003373ffffffffffffffffffffffffffffffffffffffff1673ffffffffffffffffffffffffffffffffffffffff1681526020019081526020016000206040518060800160405290816000820154815260200160018201548152602001600282015481526020016003820160009054906101000a900460ff161515151581525050905060008160000151905080341015610c5957600080fd5b600160009054906101000a900473ffffffffffffffffffffffffffffffffffffffff1673ffffffffffffffffffffffffffffffffffffffff166323b872dd303385604001516040518463ffffffff1660e01b8152600401610cbc93929190612677565b600060405180830381600087803b158015610cd657600080fd5b505af1158015610cea573d6000803e3d6000fd5b50505050600960003373ffffffffffffffffffffffffffffffffffffffff1673ffffffffffffffffffffffffffffffffffffffff168152602001908152602001600020600080820160009055600182016000905560028201600090556003820160006101000a81549060ff021916905550505050565b600560003373ffffffffffffffffffffffffffffffffffffffff1673ffffffffffffffffffffffffffffffffffffffff16815260200190815260200160002060009054906101000a900460ff16610db657600080fd5b600015156006600086815260200190815260200160002060030160003373ffffffffffffffffffffffffffffffffffffffff1673ffffffffffffffffffffffffffffffffffffffff16815260200190815260200160002060009054906101000a900460ff16151514610e2757600080fd5b6000600660008681526020019081526020016000209050600080600090505b8260010154811015611002576000836000016000838152602001908152602001600020905086604051602001610e7c9190612858565b6040516020818303038152906040528051906020012081600001604051602001610ea69190612964565b60405160208183030381529060405280519060200120148015610f1857508060030160009054906101000a900473ffffffffffffffffffffffffffffffffffffffff1673ffffffffffffffffffffffffffffffffffffffff168673ffffffffffffffffffffffffffffffffffffffff16145b8015610f275750848160040154145b15610fee576001925033600660008a815260200190815260200160002060000160008481526020019081526020016000206002016000600660008c815260200190815260200160002060000160008681526020019081526020016000206001016000815480929190610f9890612588565b91905055815260200190815260200160002060006101000a81548173ffffffffffffffffffffffffffffffffffffffff021916908373ffffffffffffffffffffffffffffffffffffffff16021790555050611002565b508080610ffa90612588565b915050610e46565b50600082600101541415611048577f74832c7c53e7f1044cc7bd8e003df78af00f54d29b751843ec3f9ea69d5b10cb8660405161103f9190612197565b60405180910390a15b60001515811515141561122557836006600088815260200190815260200160002060000160008460010154815260200190815260200160002060030160006101000a81548173ffffffffffffffffffffffffffffffffffffffff021916908373ffffffffffffffffffffffffffffffffffffffff16021790555084600660008881526020019081526020016000206000016000846001015481526020019081526020016000206000019080519060200190611104929190611fad565b5082600660008881526020019081526020016000206000016000846001015481526020019081526020016000206004018190555033600660008881526020019081526020016000206000016000846001015481526020019081526020016000206002016000600660008a815260200190815260200160002060000160008660010154815260200190815260200160002060010160008154809291906111a890612588565b91905055815260200190815260200160002060006101000a81548173ffffffffffffffffffffffffffffffffffffffff021916908373ffffffffffffffffffffffffffffffffffffffff16021790555060066000878152602001908152602001600020600101600081548092919061121f90612588565b91905055505b60016006600088815260200190815260200160002060030160003373ffffffffffffffffffffffffffffffffffffffff1673ffffffffffffffffffffffffffffffffffffffff16815260200190815260200160002060006101000a81548160ff021916908315150217905550505050505050565b601e81116112dc576040517f08c379a00000000000000000000000000000000000000000000000000000000081526004016112d3906129ed565b60405180910390fd5b600060b48211156113075760646069346112f69190612a0d565b6113009190612a96565b9050611377565b607882111561133057606460683461131f9190612a0d565b6113299190612a96565b9050611376565b603c8211156113595760646067346113489190612a0d565b6113529190612a96565b9050611375565b60646066346113689190612a0d565b6113729190612a96565b90505b5b5b6040518060400160405280828152602001834261139491906124fe565b815250600760003373ffffffffffffffffffffffffffffffffffffffff1673ffffffffffffffffffffffffffffffffffffffff1681526020019081526020016000206000600860003373ffffffffffffffffffffffffffffffffffffffff1673ffffffffffffffffffffffffffffffffffffffff168152602001908152602001600020600081548092919061142890612588565b919050558152602001908152602001600020600082015181600001556020820151816001015590505060008054906101000a900473ffffffffffffffffffffffffffffffffffffffff1673ffffffffffffffffffffffffffffffffffffffff166340c10f1933836040518363ffffffff1660e01b81526004016114ac92919061264e565b600060405180830381600087803b1580156114c657600080fd5b505af11580156114da573d6000803e3d6000fd5b505050505050565b600060066000838152602001908152602001600020600101541161150557600080fd5b60008060005b600660008581526020019081526020016000206001015481101561159f578160066000868152602001908152602001600020600001600083815260200190815260200160002060010154111561158c576006600085815260200190815260200160002060000160008281526020019081526020016000206001015491508092505b808061159790612588565b91505061150b565b5060005b6006600085815260200190815260200160002060010154811015611a7257816006600086815260200190815260200160002060000160008381526020019081526020016000206001015410156117305760005b6006600086815260200190815260200160002060000160008381526020019081526020016000206001015481101561172a576000600660008781526020019081526020016000206000016000848152602001908152602001600020600201600083815260200190815260200160002060009054906101000a900473ffffffffffffffffffffffffffffffffffffffff16905060008054906101000a900473ffffffffffffffffffffffffffffffffffffffff1673ffffffffffffffffffffffffffffffffffffffff16635ad748e48260146040518363ffffffff1660e01b81526004016116e4929190612b0c565b600060405180830381600087803b1580156116fe57600080fd5b505af1158015611712573d6000803e3d6000fd5b5050505050808061172290612588565b9150506115f6565b50611869565b60005b60066000868152602001908152602001600020600001600083815260200190815260200160002060010154811015611867576000600660008781526020019081526020016000206000016000848152602001908152602001600020600201600083815260200190815260200160002060009054906101000a900473ffffffffffffffffffffffffffffffffffffffff16905060008054906101000a900473ffffffffffffffffffffffffffffffffffffffff1673ffffffffffffffffffffffffffffffffffffffff166340c10f198260146040518363ffffffff1660e01b8152600401611821929190612b0c565b600060405180830381600087803b15801561183b57600080fd5b505af115801561184f573d6000803e3d6000fd5b5050505050808061185f90612588565b915050611733565b505b60006006600086815260200190815260200160002060000160008581526020019081526020016000206004015414156119a357600160009054906101000a900473ffffffffffffffffffffffffffffffffffffffff1673ffffffffffffffffffffffffffffffffffffffff1663d204c45e60066000878152602001908152602001600020600001600086815260200190815260200160002060030160009054906101000a900473ffffffffffffffffffffffffffffffffffffffff166006600088815260200190815260200160002060000160008781526020019081526020016000206000016040518363ffffffff1660e01b815260040161196c929190612bb5565b600060405180830381600087803b15801561198657600080fd5b505af115801561199a573d6000803e3d6000fd5b50505050611a5f565b60066000858152602001908152602001600020600001600084815260200190815260200160002060030160009054906101000a900473ffffffffffffffffffffffffffffffffffffffff1673ffffffffffffffffffffffffffffffffffffffff166108fc600660008781526020019081526020016000206000016000868152602001908152602001600020600401549081150290604051600060405180830381858888f19350505050158015611a5d573d6000803e3d6000fd5b505b8080611a6a90612588565b9150506115a3565b50505050565b60045481565b60096020528060005260406000206000915090508060000154908060010154908060020154908060030160009054906101000a900460ff16905084565b7f986adee8ce29b0b5beeb126dfa4b1fc6aa7d88da8cc27dd323317fb6e5ed175a600a600934611aeb9190612a0d565b611af59190612a96565b3360046000815480929190611b0990612588565b91905055604051611b1c93929190612be5565b60405180910390a1565b60066020528060005260406000206000915090508060010154908060020160009054906101000a900460ff16905082565b600360009054906101000a900473ffffffffffffffffffffffffffffffffffffffff1681565b600960003373ffffffffffffffffffffffffffffffffffffffff1673ffffffffffffffffffffffffffffffffffffffff16815260200190815260200160002060030160009054906101000a900460ff1615611c0d576040517f08c379a0000000000000000000000000000000000000000000000000000000008152600401611c0490612c68565b60405180910390fd5b600160009054906101000a900473ffffffffffffffffffffffffffffffffffffffff1673ffffffffffffffffffffffffffffffffffffffff1663e985e9c533306040518363ffffffff1660e01b8152600401611c6a929190612c88565b60206040518083038186803b158015611c8257600080fd5b505afa158015611c96573d6000803e3d6000fd5b505050506040513d601f19601f82011682018060405250810190611cba9190612cdd565b611cc357600080fd5b600160009054906101000a900473ffffffffffffffffffffffffffffffffffffffff1673ffffffffffffffffffffffffffffffffffffffff166323b872dd3330846040518463ffffffff1660e01b8152600401611d2293929190612677565b600060405180830381600087803b158015611d3c57600080fd5b505af1158015611d50573d6000803e3d6000fd5b5050505060405180608001604052808481526020018342611d7191906124fe565b815260200182815260200160011515815250600960003373ffffffffffffffffffffffffffffffffffffffff1673ffffffffffffffffffffffffffffffffffffffff16815260200190815260200160002060008201518160000155602082015181600101556040820151816002015560608201518160030160006101000a81548160ff0219169083151502179055509050503373ffffffffffffffffffffffffffffffffffffffff166108fc849081150290604051600060405180830381858888f19350505050158015611e49573d6000803e3d6000fd5b5033600a6000600b6000815480929190611e6290612588565b91905055815260200190815260200160002060006101000a81548173ffffffffffffffffffffffffffffffffffffffff021916908373ffffffffffffffffffffffffffffffffffffffff160217905550505050565b6103e8341015611ec657600080fd5b6001600560003373ffffffffffffffffffffffffffffffffffffffff1673ffffffffffffffffffffffffffffffffffffffff16815260200190815260200160002060006101000a81548160ff02191690831515021790555060008054906101000a900473ffffffffffffffffffffffffffffffffffffffff1673ffffffffffffffffffffffffffffffffffffffff166340c10f1933346040518363ffffffff1660e01b8152600401611f7992919061264e565b600060405180830381600087803b158015611f9357600080fd5b505af1158015611fa7573d6000803e3d6000fd5b50505050565b828054611fb99061289e565b90600052602060002090601f016020900481019282611fdb5760008555612022565b82601f10611ff457805160ff1916838001178555612022565b82800160010185558215612022579182015b82811115612021578251825591602001919060010190612006565b5b50905061202f9190612033565b5090565b5b8082111561204c576000816000905550600101612034565b5090565b6000604051905090565b600080fd5b600080fd5b6000819050919050565b61207781612064565b811461208257600080fd5b50565b6000813590506120948161206e565b92915050565b6000602082840312156120b0576120af61205a565b5b60006120be84828501612085565b91505092915050565b600073ffffffffffffffffffffffffffffffffffffffff82169050919050565b60006120f2826120c7565b9050919050565b612102816120e7565b811461210d57600080fd5b50565b60008135905061211f816120f9565b92915050565b60006020828403121561213b5761213a61205a565b5b600061214984828501612110565b91505092915050565b60008115159050919050565b61216781612152565b82525050565b6000602082019050612182600083018461215e565b92915050565b61219181612064565b82525050565b60006020820190506121ac6000830184612188565b92915050565b6121bb816120e7565b82525050565b60006020820190506121d660008301846121b2565b92915050565b600080604083850312156121f3576121f261205a565b5b600061220185828601612110565b925050602061221285828601612085565b9150509250929050565b60006040820190506122316000830185612188565b61223e6020830184612188565b9392505050565b600080fd5b600080fd5b6000601f19601f8301169050919050565b7f4e487b7100000000000000000000000000000000000000000000000000000000600052604160045260246000fd5b6122988261224f565b810181811067ffffffffffffffff821117156122b7576122b6612260565b5b80604052505050565b60006122ca612050565b90506122d6828261228f565b919050565b600067ffffffffffffffff8211156122f6576122f5612260565b5b6122ff8261224f565b9050602081019050919050565b82818337600083830152505050565b600061232e612329846122db565b6122c0565b90508281526020810184848401111561234a5761234961224a565b5b61235584828561230c565b509392505050565b600082601f83011261237257612371612245565b5b813561238284826020860161231b565b91505092915050565b600080600080608085870312156123a5576123a461205a565b5b60006123b387828801612085565b945050602085013567ffffffffffffffff8111156123d4576123d361205f565b5b6123e08782880161235d565b93505060406123f187828801612110565b925050606061240287828801612085565b91505092959194509250565b60006080820190506124236000830187612188565b6124306020830186612188565b61243d6040830185612188565b61244a606083018461215e565b95945050505050565b60006040820190506124686000830185612188565b612475602083018461215e565b9392505050565b6000806000606084860312156124955761249461205a565b5b60006124a386828701612085565b93505060206124b486828701612085565b92505060406124c586828701612085565b9150509250925092565b7f4e487b7100000000000000000000000000000000000000000000000000000000600052601160045260246000fd5b600061250982612064565b915061251483612064565b9250827fffffffffffffffffffffffffffffffffffffffffffffffffffffffffffffffff03821115612549576125486124cf565b5b828201905092915050565b600061255f82612064565b915061256a83612064565b92508282101561257d5761257c6124cf565b5b828203905092915050565b600061259382612064565b91507fffffffffffffffffffffffffffffffffffffffffffffffffffffffffffffffff8214156125c6576125c56124cf565b5b600182019050919050565b600082825260208201905092915050565b7f43616e6e6f7420776974686472617720746f6b656e7321000000000000000000600082015250565b60006126186017836125d1565b9150612623826125e2565b602082019050919050565b600060208201905081810360008301526126478161260b565b9050919050565b600060408201905061266360008301856121b2565b6126706020830184612188565b9392505050565b600060608201905061268c60008301866121b2565b61269960208301856121b2565b6126a66040830184612188565b949350505050565b60005b838110156126cc5780820151818401526020810190506126b1565b838111156126db576000848401525b50505050565b60006126f46126ef846122db565b6122c0565b9050828152602081018484840111156127105761270f61224a565b5b61271b8482856126ae565b509392505050565b600082601f83011261273857612737612245565b5b81516127488482602086016126e1565b91505092915050565b6000602082840312156127675761276661205a565b5b600082015167ffffffffffffffff8111156127855761278461205f565b5b61279184828501612723565b91505092915050565b600081519050919050565b60006127b08261279a565b6127ba81856125d1565b93506127ca8185602086016126ae565b6127d38161224f565b840191505092915050565b60006060820190506127f360008301866121b2565b818103602083015261280581856127a5565b90506128146040830184612188565b949350505050565b600081905092915050565b60006128328261279a565b61283c818561281c565b935061284c8185602086016126ae565b80840191505092915050565b60006128648284612827565b915081905092915050565b7f4e487b7100000000000000000000000000000000000000000000000000000000600052602260045260246000fd5b600060028204905060018216806128b657607f821691505b602082108114156128ca576128c961286f565b5b50919050565b60008190508160005260206000209050919050565b600081546128f28161289e565b6128fc818661281c565b9450600182166000811461291757600181146129285761295b565b60ff1983168652818601935061295b565b612931856128d0565b60005b8381101561295357815481890152600182019150602081019050612934565b838801955050505b50505092915050565b600061297082846128e5565b915081905092915050565b7f7374616b696e6720706572696f64206d757374206265206c6f6e67657220746860008201527f616e203330730000000000000000000000000000000000000000000000000000602082015250565b60006129d76026836125d1565b91506129e28261297b565b604082019050919050565b60006020820190508181036000830152612a06816129ca565b9050919050565b6000612a1882612064565b9150612a2383612064565b9250817fffffffffffffffffffffffffffffffffffffffffffffffffffffffffffffffff0483118215151615612a5c57612a5b6124cf565b5b828202905092915050565b7f4e487b7100000000000000000000000000000000000000000000000000000000600052601260045260246000fd5b6000612aa182612064565b9150612aac83612064565b925082612abc57612abb612a67565b5b828204905092915050565b6000819050919050565b6000819050919050565b6000612af6612af1612aec84612ac7565b612ad1565b612064565b9050919050565b612b0681612adb565b82525050565b6000604082019050612b2160008301856121b2565b612b2e6020830184612afd565b9392505050565b60008154612b428161289e565b612b4c81866125d1565b94506001821660008114612b675760018114612b7957612bac565b60ff1983168652602086019350612bac565b612b82856128d0565b60005b83811015612ba457815481890152600182019150602081019050612b85565b808801955050505b50505092915050565b6000604082019050612bca60008301856121b2565b8181036020830152612bdc8184612b35565b90509392505050565b6000606082019050612bfa6000830186612188565b612c0760208301856121b2565b612c146040830184612188565b949350505050565b7f6170706c6963616e7420616c7265616479206861732061206c6f616e00000000600082015250565b6000612c52601c836125d1565b9150612c5d82612c1c565b602082019050919050565b60006020820190508181036000830152612c8181612c45565b9050919050565b6000604082019050612c9d60008301856121b2565b612caa60208301846121b2565b9392505050565b612cba81612152565b8114612cc557600080fd5b50565b600081519050612cd781612cb1565b92915050565b600060208284031215612cf357612cf261205a565b5b6000612d0184828501612cc8565b9150509291505056fea26469706673582212203c9564a7bebf8445fee599191694c2d65c5057efd7e69204a2e54a0874db430864736f6c634300080900336101606040523480156200001257600080fd5b506040518060400160405280600a81526020017f7374616b65546f6b656e00000000000000000000000000000000000000000000815250806040518060400160405280600181526020017f31000000000000000000000000000000000000000000000000000000000000008152506040518060400160405280600a81526020017f7374616b65546f6b656e000000000000000000000000000000000000000000008152506040518060400160405280600381526020017f73746b000000000000000000000000000000000000000000000000000000000081525081600390805190602001906200010492919062000407565b5080600490805190602001906200011d92919062000407565b50505062000140620001346200020160201b60201c565b6200020960201b60201c565b6200015b600683620002cf60201b620013141790919060201c565b61012081815250506200017e600782620002cf60201b620013141790919060201c565b6101408181525050818051906020012060e08181525050808051906020012061010081815250504660a08181525050620001bd6200033360201b60201c565b608081815250503073ffffffffffffffffffffffffffffffffffffffff1660c08173ffffffffffffffffffffffffffffffffffffffff16815250505050506200076b565b600033905090565b6000600560009054906101000a900473ffffffffffffffffffffffffffffffffffffffff16905081600560006101000a81548173ffffffffffffffffffffffffffffffffffffffff021916908373ffffffffffffffffffffffffffffffffffffffff1602179055508173ffffffffffffffffffffffffffffffffffffffff168173ffffffffffffffffffffffffffffffffffffffff167f8be0079c531659141344cd1fd0a4f28419497f9722a3daafe3b4186f6b6457e060405160405180910390a35050565b6000602083511015620002f557620002ed836200039060201b60201c565b90506200032d565b826200030c83620003fd60201b6200135f1760201c565b60000190805190602001906200032492919062000407565b5060ff60001b90505b92915050565b60007f8b73c3c69bb8fe3d512ecc4cf759cc79239f7b179b0ffacaa9a75d522b39400f60e0516101005146306040516020016200037595949392919062000532565b60405160208183030381529060405280519060200120905090565b600080829050601f81511115620003e057826040517f305a27a9000000000000000000000000000000000000000000000000000000008152600401620003d7919062000633565b60405180910390fd5b805181620003ee9062000696565b60001c1760001b915050919050565b6000819050919050565b828054620004159062000735565b90600052602060002090601f01602090048101928262000439576000855562000485565b82601f106200045457805160ff191683800117855562000485565b8280016001018555821562000485579182015b828111156200048457825182559160200191906001019062000467565b5b50905062000494919062000498565b5090565b5b80821115620004b357600081600090555060010162000499565b5090565b6000819050919050565b620004cc81620004b7565b82525050565b6000819050919050565b620004e781620004d2565b82525050565b600073ffffffffffffffffffffffffffffffffffffffff82169050919050565b60006200051a82620004ed565b9050919050565b6200052c816200050d565b82525050565b600060a082019050620005496000830188620004c1565b620005586020830187620004c1565b620005676040830186620004c1565b620005766060830185620004dc565b62000585608083018462000521565b9695505050505050565b600081519050919050565b600082825260208201905092915050565b60005b83811015620005cb578082015181840152602081019050620005ae565b83811115620005db576000848401525b50505050565b6000601f19601f8301169050919050565b6000620005ff826200058f565b6200060b81856200059a565b93506200061d818560208601620005ab565b6200062881620005e1565b840191505092915050565b600060208201905081810360008301526200064f8184620005f2565b905092915050565b600081519050919050565b6000819050602082019050919050565b6000620006808251620004b7565b80915050919050565b600082821b905092915050565b6000620006a38262000657565b82620006af8462000662565b9050620006bc8162000672565b92506020821015620006ff57620006fa7fffffffffffffffffffffffffffffffffffffffffffffffffffffffffffffffff8360200360080262000689565b831692505b5050919050565b7f4e487b7100000000000000000000000000000000000000000000000000000000600052602260045260246000fd5b600060028204905060018216806200074e57607f821691505b6020821081141562000765576200076462000706565b5b50919050565b60805160a05160c05160e0516101005161012051610140516148b4620007c66000396000610b2501526000610af101526000611f8501526000611f64015260006118440152600061189a015260006118c301526148b46000f3fe608060405234801561001057600080fd5b50600436106101f05760003560e01c8063715018a61161010f5780639ab24eb0116100a2578063d505accf11610071578063d505accf146105fb578063dd62ed3e14610617578063f1127ed814610647578063f2fde38b14610677576101f0565b80639ab24eb01461054f578063a457c2d71461057f578063a9059cbb146105af578063c3cda520146105df576101f0565b80638da5cb5b116100de5780638da5cb5b146104c55780638e539e8c146104e357806391ddadf41461051357806395d89b4114610531576101f0565b8063715018a61461044b57806379cc6790146104555780637ecebe001461047157806384b0196e146104a1576101f0565b806340c10f19116101875780635ad748e4116101565780635ad748e4146103b35780635c19a95c146103cf5780636fcfff45146103eb57806370a082311461041b576101f0565b806340c10f191461032d57806342966c68146103495780634bf5d7e914610365578063587cde1e14610383576101f0565b8063313ce567116101c3578063313ce567146102915780633644e515146102af57806339509351146102cd5780633a46b1a8146102fd576101f0565b806306fdde03146101f5578063095ea7b31461021357806318160ddd1461024357806323b872dd14610261575b600080fd5b6101fd610693565b60405161020a9190613079565b60405180910390f35b61022d60048036038101906102289190613134565b610725565b60405161023a919061318f565b60405180910390f35b61024b610748565b60405161025891906131b9565b60405180910390f35b61027b600480360381019061027691906131d4565b610752565b604051610288919061318f565b60405180910390f35b610299610781565b6040516102a69190613243565b60405180910390f35b6102b761078a565b6040516102c49190613277565b60405180910390f35b6102e760048036038101906102e29190613134565b610799565b6040516102f4919061318f565b60405180910390f35b61031760048036038101906103129190613134565b6107d0565b60405161032491906131b9565b60405180910390f35b61034760048036038101906103429190613134565b610873565b005b610363600480360381019061035e9190613292565b610889565b005b61036d61089d565b60405161037a9190613079565b60405180910390f35b61039d600480360381019061039891906132bf565b61092b565b6040516103aa91906132fb565b60405180910390f35b6103cd60048036038101906103c89190613134565b610994565b005b6103e960048036038101906103e491906132bf565b6109aa565b005b610405600480360381019061040091906132bf565b6109be565b6040516104129190613335565b60405180910390f35b610435600480360381019061043091906132bf565b610a12565b60405161044291906131b9565b60405180910390f35b610453610a5a565b005b61046f600480360381019061046a9190613134565b610a6e565b005b61048b600480360381019061048691906132bf565b610a8e565b60405161049891906131b9565b60405180910390f35b6104a9610ade565b6040516104bc9796959493929190613449565b60405180910390f35b6104cd610be0565b6040516104da91906132fb565b60405180910390f35b6104fd60048036038101906104f89190613292565b610c0a565b60405161050a91906131b9565b60405180910390f35b61051b610c6f565b60405161052891906134ee565b60405180910390f35b610539610c7f565b6040516105469190613079565b60405180910390f35b610569600480360381019061056491906132bf565b610d11565b60405161057691906131b9565b60405180910390f35b61059960048036038101906105949190613134565b610e19565b6040516105a6919061318f565b60405180910390f35b6105c960048036038101906105c49190613134565b610e90565b6040516105d6919061318f565b60405180910390f35b6105f960048036038101906105f49190613561565b610eb3565b005b610615600480360381019061061091906135ee565b610fb7565b005b610631600480360381019061062c9190613690565b6110f9565b60405161063e91906131b9565b60405180910390f35b610661600480360381019061065c91906136fc565b611180565b60405161066e91906137b1565b60405180910390f35b610691600480360381019061068c91906132bf565b611290565b005b6060600380546106a2906137fb565b80601f01602080910402602001604051908101604052809291908181526020018280546106ce906137fb565b801561071b5780601f106106f05761010080835404028352916020019161071b565b820191906000526020600020905b8154815290600101906020018083116106fe57829003601f168201915b5050505050905090565b600080610730611369565b905061073d818585611371565b600191505092915050565b6000600254905090565b60008061075d611369565b905061076a85828561153c565b6107758585856115c8565b60019150509392505050565b60006012905090565b6000610794611840565b905090565b6000806107a4611369565b90506107c58185856107b685896110f9565b6107c0919061385c565b611371565b600191505092915050565b60006107da610c6f565b65ffffffffffff168210610823576040517f08c379a000000000000000000000000000000000000000000000000000000000815260040161081a906138fe565b60405180910390fd5b61086b600b60008573ffffffffffffffffffffffffffffffffffffffff1673ffffffffffffffffffffffffffffffffffffffff168152602001908152602001600020836118f7565b905092915050565b61087b611a3f565b6108858282611abd565b5050565b61089a610894611369565b82611acb565b50565b6060436108a8610c6f565b65ffffffffffff16146108f0576040517f08c379a00000000000000000000000000000000000000000000000000000000081526004016108e79061396a565b60405180910390fd5b6040518060400160405280601d81526020017f6d6f64653d626c6f636b6e756d6265722666726f6d3d64656661756c74000000815250905090565b6000600a60008373ffffffffffffffffffffffffffffffffffffffff1673ffffffffffffffffffffffffffffffffffffffff16815260200190815260200160002060009054906101000a900473ffffffffffffffffffffffffffffffffffffffff169050919050565b61099c611a3f565b6109a68282611acb565b5050565b6109bb6109b5611369565b82611ad9565b50565b6000610a0b600b60008473ffffffffffffffffffffffffffffffffffffffff1673ffffffffffffffffffffffffffffffffffffffff16815260200190815260200160002080549050611bf3565b9050919050565b60008060008373ffffffffffffffffffffffffffffffffffffffff1673ffffffffffffffffffffffffffffffffffffffff168152602001908152602001600020549050919050565b610a62611a3f565b610a6c6000611c46565b565b610a8082610a7a611369565b8361153c565b610a8a8282611acb565b5050565b6000610ad7600860008473ffffffffffffffffffffffffffffffffffffffff1673ffffffffffffffffffffffffffffffffffffffff168152602001908152602001600020611d0c565b9050919050565b600060608060008060006060610b1e60067f0000000000000000000000000000000000000000000000000000000000000000611d1a90919063ffffffff16565b610b5260077f0000000000000000000000000000000000000000000000000000000000000000611d1a90919063ffffffff16565b46306000801b600067ffffffffffffffff811115610b7357610b7261398a565b5b604051908082528060200260200182016040528015610ba15781602001602082028036833780820191505090505b507f0f00000000000000000000000000000000000000000000000000000000000000959493929190965096509650965096509650965090919293949596565b6000600560009054906101000a900473ffffffffffffffffffffffffffffffffffffffff16905090565b6000610c14610c6f565b65ffffffffffff168210610c5d576040517f08c379a0000000000000000000000000000000000000000000000000000000008152600401610c54906138fe565b60405180910390fd5b610c68600c836118f7565b9050919050565b6000610c7a43611dca565b905090565b606060048054610c8e906137fb565b80601f0160208091040260200160405190810160405280929190818152602001828054610cba906137fb565b8015610d075780601f10610cdc57610100808354040283529160200191610d07565b820191906000526020600020905b815481529060010190602001808311610cea57829003601f168201915b5050505050905090565b600080600b60008473ffffffffffffffffffffffffffffffffffffffff1673ffffffffffffffffffffffffffffffffffffffff16815260200190815260200160002080549050905060008114610df057600b60008473ffffffffffffffffffffffffffffffffffffffff1673ffffffffffffffffffffffffffffffffffffffff1681526020019081526020016000206001820381548110610db557610db46139b9565b5b9060005260206000200160000160049054906101000a90047bffffffffffffffffffffffffffffffffffffffffffffffffffffffff16610df3565b60005b7bffffffffffffffffffffffffffffffffffffffffffffffffffffffff16915050919050565b600080610e24611369565b90506000610e3282866110f9565b905083811015610e77576040517f08c379a0000000000000000000000000000000000000000000000000000000008152600401610e6e90613a5a565b60405180910390fd5b610e848286868403611371565b60019250505092915050565b600080610e9b611369565b9050610ea88185856115c8565b600191505092915050565b83421115610ef6576040517f08c379a0000000000000000000000000000000000000000000000000000000008152600401610eed90613ac6565b60405180910390fd5b6000610f58610f507fe48329057bfd03d55e49b547132e39cffd9c1820ad7b9d4c5307691425d15adf898989604051602001610f359493929190613ae6565b60405160208183030381529060405280519060200120611e1f565b858585611e39565b9050610f6381611e64565b8614610fa4576040517f08c379a0000000000000000000000000000000000000000000000000000000008152600401610f9b90613b77565b60405180910390fd5b610fae8188611ad9565b50505050505050565b83421115610ffa576040517f08c379a0000000000000000000000000000000000000000000000000000000008152600401610ff190613be3565b60405180910390fd5b60007f6e71edae12b1b97f4d1f60370fef10105fa2faae0126114a169c64845d6126c98888886110298c611e64565b8960405160200161103f96959493929190613c03565b604051602081830303815290604052805190602001209050600061106282611e1f565b9050600061107282878787611e39565b90508973ffffffffffffffffffffffffffffffffffffffff168173ffffffffffffffffffffffffffffffffffffffff16146110e2576040517f08c379a00000000000000000000000000000000000000000000000000000000081526004016110d990613cb0565b60405180910390fd5b6110ed8a8a8a611371565b50505050505050505050565b6000600160008473ffffffffffffffffffffffffffffffffffffffff1673ffffffffffffffffffffffffffffffffffffffff16815260200190815260200160002060008373ffffffffffffffffffffffffffffffffffffffff1673ffffffffffffffffffffffffffffffffffffffff16815260200190815260200160002054905092915050565b611188612eff565b600b60008473ffffffffffffffffffffffffffffffffffffffff1673ffffffffffffffffffffffffffffffffffffffff1681526020019081526020016000208263ffffffff16815481106111df576111de6139b9565b5b906000526020600020016040518060400160405290816000820160009054906101000a900463ffffffff1663ffffffff1663ffffffff1681526020016000820160049054906101000a90047bffffffffffffffffffffffffffffffffffffffffffffffffffffffff167bffffffffffffffffffffffffffffffffffffffffffffffffffffffff167bffffffffffffffffffffffffffffffffffffffffffffffffffffffff1681525050905092915050565b611298611a3f565b600073ffffffffffffffffffffffffffffffffffffffff168173ffffffffffffffffffffffffffffffffffffffff161415611308576040517f08c379a00000000000000000000000000000000000000000000000000000000081526004016112ff90613d42565b60405180910390fd5b61131181611c46565b50565b60006020835110156113305761132983611ec2565b9050611359565b8261133a8361135f565b6000019080519060200190611350929190612f3d565b5060ff60001b90505b92915050565b6000819050919050565b600033905090565b600073ffffffffffffffffffffffffffffffffffffffff168373ffffffffffffffffffffffffffffffffffffffff1614156113e1576040517f08c379a00000000000000000000000000000000000000000000000000000000081526004016113d890613dd4565b60405180910390fd5b600073ffffffffffffffffffffffffffffffffffffffff168273ffffffffffffffffffffffffffffffffffffffff161415611451576040517f08c379a000000000000000000000000000000000000000000000000000000000815260040161144890613e66565b60405180910390fd5b80600160008573ffffffffffffffffffffffffffffffffffffffff1673ffffffffffffffffffffffffffffffffffffffff16815260200190815260200160002060008473ffffffffffffffffffffffffffffffffffffffff1673ffffffffffffffffffffffffffffffffffffffff168152602001908152602001600020819055508173ffffffffffffffffffffffffffffffffffffffff168373ffffffffffffffffffffffffffffffffffffffff167f8c5be1e5ebec7d5bd14f71427d1e84f3dd0314c0f7b2291e5b200ac8c7c3b9258360405161152f91906131b9565b60405180910390a3505050565b600061154884846110f9565b90507fffffffffffffffffffffffffffffffffffffffffffffffffffffffffffffffff81146115c257818110156115b4576040517f08c379a00000000000000000000000000000000000000000000000000000000081526004016115ab90613ed2565b60405180910390fd5b6115c18484848403611371565b5b50505050565b600073ffffffffffffffffffffffffffffffffffffffff168373ffffffffffffffffffffffffffffffffffffffff161415611638576040517f08c379a000000000000000000000000000000000000000000000000000000000815260040161162f90613f64565b60405180910390fd5b600073ffffffffffffffffffffffffffffffffffffffff168273ffffffffffffffffffffffffffffffffffffffff1614156116a8576040517f08c379a000000000000000000000000000000000000000000000000000000000815260040161169f90613ff6565b60405180910390fd5b6116b3838383611f2a565b60008060008573ffffffffffffffffffffffffffffffffffffffff1673ffffffffffffffffffffffffffffffffffffffff16815260200190815260200160002054905081811015611739576040517f08c379a000000000000000000000000000000000000000000000000000000000815260040161173090614088565b60405180910390fd5b8181036000808673ffffffffffffffffffffffffffffffffffffffff1673ffffffffffffffffffffffffffffffffffffffff16815260200190815260200160002081905550816000808573ffffffffffffffffffffffffffffffffffffffff1673ffffffffffffffffffffffffffffffffffffffff168152602001908152602001600020600082825401925050819055508273ffffffffffffffffffffffffffffffffffffffff168473ffffffffffffffffffffffffffffffffffffffff167fddf252ad1be2c89b69c2b068fc378daa952ba7f163c4a11628f55a4df523b3ef8460405161182791906131b9565b60405180910390a361183a848484611f2f565b50505050565b60007f000000000000000000000000000000000000000000000000000000000000000073ffffffffffffffffffffffffffffffffffffffff163073ffffffffffffffffffffffffffffffffffffffff161480156118bc57507f000000000000000000000000000000000000000000000000000000000000000046145b156118e9577f000000000000000000000000000000000000000000000000000000000000000090506118f4565b6118f1611f3f565b90505b90565b60008083805490509050600080829050600583111561196d57600061191b84611fd5565b8461192691906140a8565b90508561193388836120cf565b60000160009054906101000a900463ffffffff1663ffffffff16111561195b5780915061196b565b600181611968919061385c565b92505b505b5b808210156119cd57600061198283836120e4565b90508561198f88836120cf565b60000160009054906101000a900463ffffffff1663ffffffff1611156119b7578091506119c7565b6001816119c4919061385c565b92505b5061196e565b60008114611a13576119e286600183036120cf565b60000160049054906101000a90047bffffffffffffffffffffffffffffffffffffffffffffffffffffffff16611a16565b60005b7bffffffffffffffffffffffffffffffffffffffffffffffffffffffff16935050505092915050565b611a47611369565b73ffffffffffffffffffffffffffffffffffffffff16611a65610be0565b73ffffffffffffffffffffffffffffffffffffffff1614611abb576040517f08c379a0000000000000000000000000000000000000000000000000000000008152600401611ab290614128565b60405180910390fd5b565b611ac7828261210a565b5050565b611ad58282612197565b5050565b6000611ae48361092b565b90506000611af184610a12565b905082600a60008673ffffffffffffffffffffffffffffffffffffffff1673ffffffffffffffffffffffffffffffffffffffff16815260200190815260200160002060006101000a81548173ffffffffffffffffffffffffffffffffffffffff021916908373ffffffffffffffffffffffffffffffffffffffff1602179055508273ffffffffffffffffffffffffffffffffffffffff168273ffffffffffffffffffffffffffffffffffffffff168573ffffffffffffffffffffffffffffffffffffffff167f3134e8a2e6d97e929a7e54011ea5485d7d196dd5f0ba4d4ef95803e8e3fc257f60405160405180910390a4611bed8284836121b5565b50505050565b600063ffffffff8016821115611c3e576040517f08c379a0000000000000000000000000000000000000000000000000000000008152600401611c35906141ba565b60405180910390fd5b819050919050565b6000600560009054906101000a900473ffffffffffffffffffffffffffffffffffffffff16905081600560006101000a81548173ffffffffffffffffffffffffffffffffffffffff021916908373ffffffffffffffffffffffffffffffffffffffff1602179055508173ffffffffffffffffffffffffffffffffffffffff168173ffffffffffffffffffffffffffffffffffffffff167f8be0079c531659141344cd1fd0a4f28419497f9722a3daafe3b4186f6b6457e060405160405180910390a35050565b600081600001549050919050565b606060ff60001b8314611d3757611d30836123ae565b9050611dc4565b818054611d43906137fb565b80601f0160208091040260200160405190810160405280929190818152602001828054611d6f906137fb565b8015611dbc5780601f10611d9157610100808354040283529160200191611dbc565b820191906000526020600020905b815481529060010190602001808311611d9f57829003601f168201915b505050505090505b92915050565b600065ffffffffffff8016821115611e17576040517f08c379a0000000000000000000000000000000000000000000000000000000008152600401611e0e9061424c565b60405180910390fd5b819050919050565b6000611e32611e2c611840565b83612422565b9050919050565b6000806000611e4a87878787612463565b91509150611e5781612546565b8192505050949350505050565b600080600860008473ffffffffffffffffffffffffffffffffffffffff1673ffffffffffffffffffffffffffffffffffffffff1681526020019081526020016000209050611eb181611d0c565b9150611ebc816126b4565b50919050565b600080829050601f81511115611f0f57826040517f305a27a9000000000000000000000000000000000000000000000000000000008152600401611f069190613079565b60405180910390fd5b805181611f1b906142a9565b60001c1760001b915050919050565b505050565b611f3a8383836126ca565b505050565b60007f8b73c3c69bb8fe3d512ecc4cf759cc79239f7b179b0ffacaa9a75d522b39400f7f00000000000000000000000000000000000000000000000000000000000000007f00000000000000000000000000000000000000000000000000000000000000004630604051602001611fba959493929190614310565b60405160208183030381529060405280519060200120905090565b600080821415611fe857600090506120ca565b60006001611ff5846126f5565b901c6001901b9050600181848161200f5761200e614363565b5b048201901c9050600181848161202857612027614363565b5b048201901c9050600181848161204157612040614363565b5b048201901c9050600181848161205a57612059614363565b5b048201901c9050600181848161207357612072614363565b5b048201901c9050600181848161208c5761208b614363565b5b048201901c905060018184816120a5576120a4614363565b5b048201901c90506120c6818285816120c0576120bf614363565b5b046127d6565b9150505b919050565b60008260005281602060002001905092915050565b600060028284186120f59190614392565b828416612102919061385c565b905092915050565b61211482826127ef565b61211c612946565b7bffffffffffffffffffffffffffffffffffffffffffffffffffffffff16612142610748565b1115612183576040517f08c379a000000000000000000000000000000000000000000000000000000000815260040161217a90614435565b60405180910390fd5b612191600c61296a83612980565b50505050565b6121a18282612c5b565b6121af600c612e2983612980565b50505050565b8173ffffffffffffffffffffffffffffffffffffffff168373ffffffffffffffffffffffffffffffffffffffff16141580156121f15750600081115b156123a957600073ffffffffffffffffffffffffffffffffffffffff168373ffffffffffffffffffffffffffffffffffffffff16146122cf57600080612278600b60008773ffffffffffffffffffffffffffffffffffffffff1673ffffffffffffffffffffffffffffffffffffffff168152602001908152602001600020612e2985612980565b915091508473ffffffffffffffffffffffffffffffffffffffff167fdec2bacdd2f05b59de34da9b523dff8be42e5e38e818c82fdb0bae774387a72483836040516122c4929190614455565b60405180910390a250505b600073ffffffffffffffffffffffffffffffffffffffff168273ffffffffffffffffffffffffffffffffffffffff16146123a857600080612351600b60008673ffffffffffffffffffffffffffffffffffffffff1673ffffffffffffffffffffffffffffffffffffffff16815260200190815260200160002061296a85612980565b915091508373ffffffffffffffffffffffffffffffffffffffff167fdec2bacdd2f05b59de34da9b523dff8be42e5e38e818c82fdb0bae774387a724838360405161239d929190614455565b60405180910390a250505b5b505050565b606060006123bb83612e3f565b90506000602067ffffffffffffffff8111156123da576123d961398a565b5b6040519080825280601f01601f19166020018201604052801561240c5781602001600182028036833780820191505090505b5090508181528360208201528092505050919050565b60006040517f190100000000000000000000000000000000000000000000000000000000000081528360028201528260228201526042812091505092915050565b6000807f7fffffffffffffffffffffffffffffff5d576e7357a4501ddfe92f46681b20a08360001c111561249e57600060039150915061253d565b6000600187878787604051600081526020016040526040516124c3949392919061447e565b6020604051602081039080840390855afa1580156124e5573d6000803e3d6000fd5b505050602060405103519050600073ffffffffffffffffffffffffffffffffffffffff168173ffffffffffffffffffffffffffffffffffffffff1614156125345760006001925092505061253d565b80600092509250505b94509492505050565b6000600481111561255a576125596144c3565b5b81600481111561256d5761256c6144c3565b5b1415612578576126b1565b6001600481111561258c5761258b6144c3565b5b81600481111561259f5761259e6144c3565b5b14156125e0576040517f08c379a00000000000000000000000000000000000000000000000000000000081526004016125d79061453e565b60405180910390fd5b600260048111156125f4576125f36144c3565b5b816004811115612607576126066144c3565b5b1415612648576040517f08c379a000000000000000000000000000000000000000000000000000000000815260040161263f906145aa565b60405180910390fd5b6003600481111561265c5761265b6144c3565b5b81600481111561266f5761266e6144c3565b5b14156126b0576040517f08c379a00000000000000000000000000000000000000000000000000000000081526004016126a79061463c565b60405180910390fd5b5b50565b6001816000016000828254019250508190555050565b6126d5838383612e8f565b6126f06126e18461092b565b6126ea8461092b565b836121b5565b505050565b600080600090506000608084901c111561271757608083901c92506080810190505b6000604084901c111561273257604083901c92506040810190505b6000602084901c111561274d57602083901c92506020810190505b6000601084901c111561276857601083901c92506010810190505b6000600884901c111561278357600883901c92506008810190505b6000600484901c111561279e57600483901c92506004810190505b6000600284901c11156127b957600283901c92506002810190505b6000600184901c11156127cd576001810190505b80915050919050565b60008183106127e557816127e7565b825b905092915050565b600073ffffffffffffffffffffffffffffffffffffffff168273ffffffffffffffffffffffffffffffffffffffff16141561285f576040517f08c379a0000000000000000000000000000000000000000000000000000000008152600401612856906146a8565b60405180910390fd5b61286b60008383611f2a565b806002600082825461287d919061385c565b92505081905550806000808473ffffffffffffffffffffffffffffffffffffffff1673ffffffffffffffffffffffffffffffffffffffff168152602001908152602001600020600082825401925050819055508173ffffffffffffffffffffffffffffffffffffffff16600073ffffffffffffffffffffffffffffffffffffffff167fddf252ad1be2c89b69c2b068fc378daa952ba7f163c4a11628f55a4df523b3ef8360405161292e91906131b9565b60405180910390a361294260008383611f2f565b5050565b60007bffffffffffffffffffffffffffffffffffffffffffffffffffffffff905090565b60008183612978919061385c565b905092915050565b6000806000858054905090506000808214612a46576129a287600184036120cf565b6040518060400160405290816000820160009054906101000a900463ffffffff1663ffffffff1663ffffffff1681526020016000820160049054906101000a90047bffffffffffffffffffffffffffffffffffffffffffffffffffffffff167bffffffffffffffffffffffffffffffffffffffffffffffffffffffff167bffffffffffffffffffffffffffffffffffffffffffffffffffffffff1681525050612a82565b6040518060400160405280600063ffffffff16815260200160007bffffffffffffffffffffffffffffffffffffffffffffffffffffffff168152505b905080602001517bffffffffffffffffffffffffffffffffffffffffffffffffffffffff169350612ab784868863ffffffff16565b9250600082118015612ae15750612acc610c6f565b65ffffffffffff16816000015163ffffffff16145b15612b5257612aef83612e94565b612afc88600185036120cf565b60000160046101000a8154817bffffffffffffffffffffffffffffffffffffffffffffffffffffffff02191690837bffffffffffffffffffffffffffffffffffffffffffffffffffffffff160217905550612c51565b866040518060400160405280612b76612b69610c6f565b65ffffffffffff16611bf3565b63ffffffff168152602001612b8a86612e94565b7bffffffffffffffffffffffffffffffffffffffffffffffffffffffff168152509080600181540180825580915050600190039060005260206000200160009091909190915060008201518160000160006101000a81548163ffffffff021916908363ffffffff16021790555060208201518160000160046101000a8154817bffffffffffffffffffffffffffffffffffffffffffffffffffffffff02191690837bffffffffffffffffffffffffffffffffffffffffffffffffffffffff16021790555050505b5050935093915050565b600073ffffffffffffffffffffffffffffffffffffffff168273ffffffffffffffffffffffffffffffffffffffff161415612ccb576040517f08c379a0000000000000000000000000000000000000000000000000000000008152600401612cc29061473a565b60405180910390fd5b612cd782600083611f2a565b60008060008473ffffffffffffffffffffffffffffffffffffffff1673ffffffffffffffffffffffffffffffffffffffff16815260200190815260200160002054905081811015612d5d576040517f08c379a0000000000000000000000000000000000000000000000000000000008152600401612d54906147cc565b60405180910390fd5b8181036000808573ffffffffffffffffffffffffffffffffffffffff1673ffffffffffffffffffffffffffffffffffffffff1681526020019081526020016000208190555081600260008282540392505081905550600073ffffffffffffffffffffffffffffffffffffffff168373ffffffffffffffffffffffffffffffffffffffff167fddf252ad1be2c89b69c2b068fc378daa952ba7f163c4a11628f55a4df523b3ef84604051612e1091906131b9565b60405180910390a3612e2483600084611f2f565b505050565b60008183612e3791906140a8565b905092915050565b60008060ff8360001c169050601f811115612e86576040517fb3512b0c00000000000000000000000000000000000000000000000000000000815260040160405180910390fd5b80915050919050565b505050565b60007bffffffffffffffffffffffffffffffffffffffffffffffffffffffff8016821115612ef7576040517f08c379a0000000000000000000000000000000000000000000000000000000008152600401612eee9061485e565b60405180910390fd5b819050919050565b6040518060400160405280600063ffffffff16815260200160007bffffffffffffffffffffffffffffffffffffffffffffffffffffffff1681525090565b828054612f49906137fb565b90600052602060002090601f016020900481019282612f6b5760008555612fb2565b82601f10612f8457805160ff1916838001178555612fb2565b82800160010185558215612fb2579182015b82811115612fb1578251825591602001919060010190612f96565b5b509050612fbf9190612fc3565b5090565b5b80821115612fdc576000816000905550600101612fc4565b5090565b600081519050919050565b600082825260208201905092915050565b60005b8381101561301a578082015181840152602081019050612fff565b83811115613029576000848401525b50505050565b6000601f19601f8301169050919050565b600061304b82612fe0565b6130558185612feb565b9350613065818560208601612ffc565b61306e8161302f565b840191505092915050565b600060208201905081810360008301526130938184613040565b905092915050565b600080fd5b600073ffffffffffffffffffffffffffffffffffffffff82169050919050565b60006130cb826130a0565b9050919050565b6130db816130c0565b81146130e657600080fd5b50565b6000813590506130f8816130d2565b92915050565b6000819050919050565b613111816130fe565b811461311c57600080fd5b50565b60008135905061312e81613108565b92915050565b6000806040838503121561314b5761314a61309b565b5b6000613159858286016130e9565b925050602061316a8582860161311f565b9150509250929050565b60008115159050919050565b61318981613174565b82525050565b60006020820190506131a46000830184613180565b92915050565b6131b3816130fe565b82525050565b60006020820190506131ce60008301846131aa565b92915050565b6000806000606084860312156131ed576131ec61309b565b5b60006131fb868287016130e9565b935050602061320c868287016130e9565b925050604061321d8682870161311f565b9150509250925092565b600060ff82169050919050565b61323d81613227565b82525050565b60006020820190506132586000830184613234565b92915050565b6000819050919050565b6132718161325e565b82525050565b600060208201905061328c6000830184613268565b92915050565b6000602082840312156132a8576132a761309b565b5b60006132b68482850161311f565b91505092915050565b6000602082840312156132d5576132d461309b565b5b60006132e3848285016130e9565b91505092915050565b6132f5816130c0565b82525050565b600060208201905061331060008301846132ec565b92915050565b600063ffffffff82169050919050565b61332f81613316565b82525050565b600060208201905061334a6000830184613326565b92915050565b60007fff0000000000000000000000000000000000000000000000000000000000000082169050919050565b61338581613350565b82525050565b600081519050919050565b600082825260208201905092915050565b6000819050602082019050919050565b6133c0816130fe565b82525050565b60006133d283836133b7565b60208301905092915050565b6000602082019050919050565b60006133f68261338b565b6134008185613396565b935061340b836133a7565b8060005b8381101561343c57815161342388826133c6565b975061342e836133de565b92505060018101905061340f565b5085935050505092915050565b600060e08201905061345e600083018a61337c565b81810360208301526134708189613040565b905081810360408301526134848188613040565b905061349360608301876131aa565b6134a060808301866132ec565b6134ad60a0830185613268565b81810360c08301526134bf81846133eb565b905098975050505050505050565b600065ffffffffffff82169050919050565b6134e8816134cd565b82525050565b600060208201905061350360008301846134df565b92915050565b61351281613227565b811461351d57600080fd5b50565b60008135905061352f81613509565b92915050565b61353e8161325e565b811461354957600080fd5b50565b60008135905061355b81613535565b92915050565b60008060008060008060c0878903121561357e5761357d61309b565b5b600061358c89828a016130e9565b965050602061359d89828a0161311f565b95505060406135ae89828a0161311f565b94505060606135bf89828a01613520565b93505060806135d089828a0161354c565b92505060a06135e189828a0161354c565b9150509295509295509295565b600080600080600080600060e0888a03121561360d5761360c61309b565b5b600061361b8a828b016130e9565b975050602061362c8a828b016130e9565b965050604061363d8a828b0161311f565b955050606061364e8a828b0161311f565b945050608061365f8a828b01613520565b93505060a06136708a828b0161354c565b92505060c06136818a828b0161354c565b91505092959891949750929550565b600080604083850312156136a7576136a661309b565b5b60006136b5858286016130e9565b92505060206136c6858286016130e9565b9150509250929050565b6136d981613316565b81146136e457600080fd5b50565b6000813590506136f6816136d0565b92915050565b600080604083850312156137135761371261309b565b5b6000613721858286016130e9565b9250506020613732858286016136e7565b9150509250929050565b61374581613316565b82525050565b60007bffffffffffffffffffffffffffffffffffffffffffffffffffffffff82169050919050565b61377c8161374b565b82525050565b604082016000820151613798600085018261373c565b5060208201516137ab6020850182613773565b50505050565b60006040820190506137c66000830184613782565b92915050565b7f4e487b7100000000000000000000000000000000000000000000000000000000600052602260045260246000fd5b6000600282049050600182168061381357607f821691505b60208210811415613827576138266137cc565b5b50919050565b7f4e487b7100000000000000000000000000000000000000000000000000000000600052601160045260246000fd5b6000613867826130fe565b9150613872836130fe565b9250827fffffffffffffffffffffffffffffffffffffffffffffffffffffffffffffffff038211156138a7576138a661382d565b5b828201905092915050565b7f4552433230566f7465733a20667574757265206c6f6f6b757000000000000000600082015250565b60006138e8601983612feb565b91506138f3826138b2565b602082019050919050565b60006020820190508181036000830152613917816138db565b9050919050565b7f4552433230566f7465733a2062726f6b656e20636c6f636b206d6f6465000000600082015250565b6000613954601d83612feb565b915061395f8261391e565b602082019050919050565b6000602082019050818103600083015261398381613947565b9050919050565b7f4e487b7100000000000000000000000000000000000000000000000000000000600052604160045260246000fd5b7f4e487b7100000000000000000000000000000000000000000000000000000000600052603260045260246000fd5b7f45524332303a2064656372656173656420616c6c6f77616e63652062656c6f7760008201527f207a65726f000000000000000000000000000000000000000000000000000000602082015250565b6000613a44602583612feb565b9150613a4f826139e8565b604082019050919050565b60006020820190508181036000830152613a7381613a37565b9050919050565b7f4552433230566f7465733a207369676e61747572652065787069726564000000600082015250565b6000613ab0601d83612feb565b9150613abb82613a7a565b602082019050919050565b60006020820190508181036000830152613adf81613aa3565b9050919050565b6000608082019050613afb6000830187613268565b613b0860208301866132ec565b613b1560408301856131aa565b613b2260608301846131aa565b95945050505050565b7f4552433230566f7465733a20696e76616c6964206e6f6e636500000000000000600082015250565b6000613b61601983612feb565b9150613b6c82613b2b565b602082019050919050565b60006020820190508181036000830152613b9081613b54565b9050919050565b7f45524332305065726d69743a206578706972656420646561646c696e65000000600082015250565b6000613bcd601d83612feb565b9150613bd882613b97565b602082019050919050565b60006020820190508181036000830152613bfc81613bc0565b9050919050565b600060c082019050613c186000830189613268565b613c2560208301886132ec565b613c3260408301876132ec565b613c3f60608301866131aa565b613c4c60808301856131aa565b613c5960a08301846131aa565b979650505050505050565b7f45524332305065726d69743a20696e76616c6964207369676e61747572650000600082015250565b6000613c9a601e83612feb565b9150613ca582613c64565b602082019050919050565b60006020820190508181036000830152613cc981613c8d565b9050919050565b7f4f776e61626c653a206e6577206f776e657220697320746865207a65726f206160008201527f6464726573730000000000000000000000000000000000000000000000000000602082015250565b6000613d2c602683612feb565b9150613d3782613cd0565b604082019050919050565b60006020820190508181036000830152613d5b81613d1f565b9050919050565b7f45524332303a20617070726f76652066726f6d20746865207a65726f2061646460008201527f7265737300000000000000000000000000000000000000000000000000000000602082015250565b6000613dbe602483612feb565b9150613dc982613d62565b604082019050919050565b60006020820190508181036000830152613ded81613db1565b9050919050565b7f45524332303a20617070726f766520746f20746865207a65726f20616464726560008201527f7373000000000000000000000000000000000000000000000000000000000000602082015250565b6000613e50602283612feb565b9150613e5b82613df4565b604082019050919050565b60006020820190508181036000830152613e7f81613e43565b9050919050565b7f45524332303a20696e73756666696369656e7420616c6c6f77616e6365000000600082015250565b6000613ebc601d83612feb565b9150613ec782613e86565b602082019050919050565b60006020820190508181036000830152613eeb81613eaf565b9050919050565b7f45524332303a207472616e736665722066726f6d20746865207a65726f20616460008201527f6472657373000000000000000000000000000000000000000000000000000000602082015250565b6000613f4e602583612feb565b9150613f5982613ef2565b604082019050919050565b60006020820190508181036000830152613f7d81613f41565b9050919050565b7f45524332303a207472616e7366657220746f20746865207a65726f206164647260008201527f6573730000000000000000000000000000000000000000000000000000000000602082015250565b6000613fe0602383612feb565b9150613feb82613f84565b604082019050919050565b6000602082019050818103600083015261400f81613fd3565b9050919050565b7f45524332303a207472616e7366657220616d6f756e742065786365656473206260008201527f616c616e63650000000000000000000000000000000000000000000000000000602082015250565b6000614072602683612feb565b915061407d82614016565b604082019050919050565b600060208201905081810360008301526140a181614065565b9050919050565b60006140b3826130fe565b91506140be836130fe565b9250828210156140d1576140d061382d565b5b828203905092915050565b7f4f776e61626c653a2063616c6c6572206973206e6f7420746865206f776e6572600082015250565b6000614112602083612feb565b915061411d826140dc565b602082019050919050565b6000602082019050818103600083015261414181614105565b9050919050565b7f53616665436173743a2076616c756520646f65736e27742066697420696e203360008201527f3220626974730000000000000000000000000000000000000000000000000000602082015250565b60006141a4602683612feb565b91506141af82614148565b604082019050919050565b600060208201905081810360008301526141d381614197565b9050919050565b7f53616665436173743a2076616c756520646f65736e27742066697420696e203460008201527f3820626974730000000000000000000000000000000000000000000000000000602082015250565b6000614236602683612feb565b9150614241826141da565b604082019050919050565b6000602082019050818103600083015261426581614229565b9050919050565b600081519050919050565b6000819050602082019050919050565b6000614293825161325e565b80915050919050565b600082821b905092915050565b60006142b48261426c565b826142be84614277565b90506142c981614287565b92506020821015614309576143047fffffffffffffffffffffffffffffffffffffffffffffffffffffffffffffffff8360200360080261429c565b831692505b5050919050565b600060a0820190506143256000830188613268565b6143326020830187613268565b61433f6040830186613268565b61434c60608301856131aa565b61435960808301846132ec565b9695505050505050565b7f4e487b7100000000000000000000000000000000000000000000000000000000600052601260045260246000fd5b600061439d826130fe565b91506143a8836130fe565b9250826143b8576143b7614363565b5b828204905092915050565b7f4552433230566f7465733a20746f74616c20737570706c79207269736b73206f60008201527f766572666c6f77696e6720766f74657300000000000000000000000000000000602082015250565b600061441f603083612feb565b915061442a826143c3565b604082019050919050565b6000602082019050818103600083015261444e81614412565b9050919050565b600060408201905061446a60008301856131aa565b61447760208301846131aa565b9392505050565b60006080820190506144936000830187613268565b6144a06020830186613234565b6144ad6040830185613268565b6144ba6060830184613268565b95945050505050565b7f4e487b7100000000000000000000000000000000000000000000000000000000600052602160045260246000fd5b7f45434453413a20696e76616c6964207369676e61747572650000000000000000600082015250565b6000614528601883612feb565b9150614533826144f2565b602082019050919050565b600060208201905081810360008301526145578161451b565b9050919050565b7f45434453413a20696e76616c6964207369676e6174757265206c656e67746800600082015250565b6000614594601f83612feb565b915061459f8261455e565b602082019050919050565b600060208201905081810360008301526145c381614587565b9050919050565b7f45434453413a20696e76616c6964207369676e6174757265202773272076616c60008201527f7565000000000000000000000000000000000000000000000000000000000000602082015250565b6000614626602283612feb565b9150614631826145ca565b604082019050919050565b6000602082019050818103600083015261465581614619565b9050919050565b7f45524332303a206d696e7420746f20746865207a65726f206164647265737300600082015250565b6000614692601f83612feb565b915061469d8261465c565b602082019050919050565b600060208201905081810360008301526146c181614685565b9050919050565b7f45524332303a206275726e2066726f6d20746865207a65726f2061646472657360008201527f7300000000000000000000000000000000000000000000000000000000000000602082015250565b6000614724602183612feb565b915061472f826146c8565b604082019050919050565b6000602082019050818103600083015261475381614717565b9050919050565b7f45524332303a206275726e20616d6f756e7420657863656564732062616c616e60008201527f6365000000000000000000000000000000000000000000000000000000000000602082015250565b60006147b6602283612feb565b91506147c18261475a565b604082019050919050565b600060208201905081810360008301526147e5816147a9565b9050919050565b7f53616665436173743a2076616c756520646f65736e27742066697420696e203260008201527f3234206269747300000000000000000000000000000000000000000000000000602082015250565b6000614848602783612feb565b9150614853826147ec565b604082019050919050565b600060208201905081810360008301526148778161483b565b905091905056fea264697066735822122015ca450f6ad7c452a91e5adb16506109398223ba9b88ff4e42273fec1035e9b664736f6c6343000809003360806040523480156200001157600080fd5b506040518060400160405280600b81526020017f65786368616e67654e46540000000000000000000000000000000000000000008152506040518060400160405280600581526020017f65784e4654000000000000000000000000000000000000000000000000000000815250816000908051906020019062000096929190620001a6565b508060019080519060200190620000af929190620001a6565b505050620000d2620000c6620000d860201b60201c565b620000e060201b60201c565b620002bb565b600033905090565b6000600b60009054906101000a900473ffffffffffffffffffffffffffffffffffffffff16905081600b60006101000a81548173ffffffffffffffffffffffffffffffffffffffff021916908373ffffffffffffffffffffffffffffffffffffffff1602179055508173ffffffffffffffffffffffffffffffffffffffff168173ffffffffffffffffffffffffffffffffffffffff167f8be0079c531659141344cd1fd0a4f28419497f9722a3daafe3b4186f6b6457e060405160405180910390a35050565b828054620001b49062000285565b90600052602060002090601f016020900481019282620001d8576000855562000224565b82601f10620001f357805160ff191683800117855562000224565b8280016001018555821562000224579182015b828111156200022357825182559160200191906001019062000206565b5b50905062000233919062000237565b5090565b5b808211156200025257600081600090555060010162000238565b5090565b7f4e487b7100000000000000000000000000000000000000000000000000000000600052602260045260246000fd5b600060028204905060018216806200029e57607f821691505b60208210811415620002b557620002b462000256565b5b50919050565b6138bd80620002cb6000396000f3fe608060405234801561001057600080fd5b50600436106101375760003560e01c80636352211e116100b8578063a22cb4651161007c578063a22cb4651461034e578063b88d4fde1461036a578063c87b56dd14610386578063d204c45e146103b6578063e985e9c5146103d2578063f2fde38b1461040257610137565b80636352211e146102a857806370a08231146102d8578063715018a6146103085780638da5cb5b1461031257806395d89b411461033057610137565b806323b872dd116100ff57806323b872dd146101f45780632f745c591461021057806342842e0e1461024057806342966c681461025c5780634f6ccce71461027857610137565b806301ffc9a71461013c57806306fdde031461016c578063081812fc1461018a578063095ea7b3146101ba57806318160ddd146101d6575b600080fd5b610156600480360381019061015191906126ab565b61041e565b60405161016391906126f3565b60405180910390f35b610174610430565b60405161018191906127a7565b60405180910390f35b6101a4600480360381019061019f91906127ff565b6104c2565b6040516101b1919061286d565b60405180910390f35b6101d460048036038101906101cf91906128b4565b610508565b005b6101de610620565b6040516101eb9190612903565b60405180910390f35b61020e6004803603810190610209919061291e565b61062d565b005b61022a600480360381019061022591906128b4565b61068d565b6040516102379190612903565b60405180910390f35b61025a6004803603810190610255919061291e565b610732565b005b610276600480360381019061027191906127ff565b610752565b005b610292600480360381019061028d91906127ff565b6107ae565b60405161029f9190612903565b60405180910390f35b6102c260048036038101906102bd91906127ff565b61081f565b6040516102cf919061286d565b60405180910390f35b6102f260048036038101906102ed9190612971565b6108a6565b6040516102ff9190612903565b60405180910390f35b61031061095e565b005b61031a610972565b604051610327919061286d565b60405180910390f35b61033861099c565b60405161034591906127a7565b60405180910390f35b610368600480360381019061036391906129ca565b610a2e565b005b610384600480360381019061037f9190612b3f565b610a44565b005b6103a0600480360381019061039b91906127ff565b610aa6565b6040516103ad91906127a7565b60405180910390f35b6103d060048036038101906103cb9190612c63565b610ab8565b005b6103ec60048036038101906103e79190612cbf565b610ae9565b6040516103f991906126f3565b60405180910390f35b61041c60048036038101906104179190612971565b610b7d565b005b600061042982610c01565b9050919050565b60606000805461043f90612d2e565b80601f016020809104026020016040519081016040528092919081815260200182805461046b90612d2e565b80156104b85780601f1061048d576101008083540402835291602001916104b8565b820191906000526020600020905b81548152906001019060200180831161049b57829003601f168201915b5050505050905090565b60006104cd82610c62565b6004600083815260200190815260200160002060009054906101000a900473ffffffffffffffffffffffffffffffffffffffff169050919050565b60006105138261081f565b90508073ffffffffffffffffffffffffffffffffffffffff168373ffffffffffffffffffffffffffffffffffffffff161415610584576040517f08c379a000000000000000000000000000000000000000000000000000000000815260040161057b90612dd2565b60405180910390fd5b8073ffffffffffffffffffffffffffffffffffffffff166105a3610cad565b73ffffffffffffffffffffffffffffffffffffffff1614806105d257506105d1816105cc610cad565b610ae9565b5b610611576040517f08c379a000000000000000000000000000000000000000000000000000000000815260040161060890612e64565b60405180910390fd5b61061b8383610cb5565b505050565b6000600880549050905090565b61063e610638610cad565b82610d6e565b61067d576040517f08c379a000000000000000000000000000000000000000000000000000000000815260040161067490612ef6565b60405180910390fd5b610688838383610e03565b505050565b6000610698836108a6565b82106106d9576040517f08c379a00000000000000000000000000000000000000000000000000000000081526004016106d090612f88565b60405180910390fd5b600660008473ffffffffffffffffffffffffffffffffffffffff1673ffffffffffffffffffffffffffffffffffffffff168152602001908152602001600020600083815260200190815260200160002054905092915050565b61074d83838360405180602001604052806000815250610a44565b505050565b61076361075d610cad565b82610d6e565b6107a2576040517f08c379a000000000000000000000000000000000000000000000000000000000815260040161079990612ef6565b60405180910390fd5b6107ab816110fd565b50565b60006107b8610620565b82106107f9576040517f08c379a00000000000000000000000000000000000000000000000000000000081526004016107f09061301a565b60405180910390fd5b6008828154811061080d5761080c61303a565b5b90600052602060002001549050919050565b60008061082b83611109565b9050600073ffffffffffffffffffffffffffffffffffffffff168173ffffffffffffffffffffffffffffffffffffffff16141561089d576040517f08c379a0000000000000000000000000000000000000000000000000000000008152600401610894906130b5565b60405180910390fd5b80915050919050565b60008073ffffffffffffffffffffffffffffffffffffffff168273ffffffffffffffffffffffffffffffffffffffff161415610917576040517f08c379a000000000000000000000000000000000000000000000000000000000815260040161090e90613147565b60405180910390fd5b600360008373ffffffffffffffffffffffffffffffffffffffff1673ffffffffffffffffffffffffffffffffffffffff168152602001908152602001600020549050919050565b610966611146565b61097060006111c4565b565b6000600b60009054906101000a900473ffffffffffffffffffffffffffffffffffffffff16905090565b6060600180546109ab90612d2e565b80601f01602080910402602001604051908101604052809291908181526020018280546109d790612d2e565b8015610a245780601f106109f957610100808354040283529160200191610a24565b820191906000526020600020905b815481529060010190602001808311610a0757829003601f168201915b5050505050905090565b610a40610a39610cad565b838361128a565b5050565b610a55610a4f610cad565b83610d6e565b610a94576040517f08c379a0000000000000000000000000000000000000000000000000000000008152600401610a8b90612ef6565b60405180910390fd5b610aa0848484846113f7565b50505050565b6060610ab182611453565b9050919050565b6000610ac4600c611566565b9050610ad0600c611574565b610ada838261158a565b610ae481836115a8565b505050565b6000600560008473ffffffffffffffffffffffffffffffffffffffff1673ffffffffffffffffffffffffffffffffffffffff16815260200190815260200160002060008373ffffffffffffffffffffffffffffffffffffffff1673ffffffffffffffffffffffffffffffffffffffff16815260200190815260200160002060009054906101000a900460ff16905092915050565b610b85611146565b600073ffffffffffffffffffffffffffffffffffffffff168173ffffffffffffffffffffffffffffffffffffffff161415610bf5576040517f08c379a0000000000000000000000000000000000000000000000000000000008152600401610bec906131d9565b60405180910390fd5b610bfe816111c4565b50565b6000634906490660e01b7bffffffffffffffffffffffffffffffffffffffffffffffffffffffff1916827bffffffffffffffffffffffffffffffffffffffffffffffffffffffff19161480610c5b5750610c5a82611653565b5b9050919050565b610c6b816116cd565b610caa576040517f08c379a0000000000000000000000000000000000000000000000000000000008152600401610ca1906130b5565b60405180910390fd5b50565b600033905090565b816004600083815260200190815260200160002060006101000a81548173ffffffffffffffffffffffffffffffffffffffff021916908373ffffffffffffffffffffffffffffffffffffffff160217905550808273ffffffffffffffffffffffffffffffffffffffff16610d288361081f565b73ffffffffffffffffffffffffffffffffffffffff167f8c5be1e5ebec7d5bd14f71427d1e84f3dd0314c0f7b2291e5b200ac8c7c3b92560405160405180910390a45050565b600080610d7a8361081f565b90508073ffffffffffffffffffffffffffffffffffffffff168473ffffffffffffffffffffffffffffffffffffffff161480610dbc5750610dbb8185610ae9565b5b80610dfa57508373ffffffffffffffffffffffffffffffffffffffff16610de2846104c2565b73ffffffffffffffffffffffffffffffffffffffff16145b91505092915050565b8273ffffffffffffffffffffffffffffffffffffffff16610e238261081f565b73ffffffffffffffffffffffffffffffffffffffff1614610e79576040517f08c379a0000000000000000000000000000000000000000000000000000000008152600401610e709061326b565b60405180910390fd5b600073ffffffffffffffffffffffffffffffffffffffff168273ffffffffffffffffffffffffffffffffffffffff161415610ee9576040517f08c379a0000000000000000000000000000000000000000000000000000000008152600401610ee0906132fd565b60405180910390fd5b610ef6838383600161170e565b8273ffffffffffffffffffffffffffffffffffffffff16610f168261081f565b73ffffffffffffffffffffffffffffffffffffffff1614610f6c576040517f08c379a0000000000000000000000000000000000000000000000000000000008152600401610f639061326b565b60405180910390fd5b6004600082815260200190815260200160002060006101000a81549073ffffffffffffffffffffffffffffffffffffffff02191690556001600360008573ffffffffffffffffffffffffffffffffffffffff1673ffffffffffffffffffffffffffffffffffffffff168152602001908152602001600020600082825403925050819055506001600360008473ffffffffffffffffffffffffffffffffffffffff1673ffffffffffffffffffffffffffffffffffffffff16815260200190815260200160002060008282540192505081905550816002600083815260200190815260200160002060006101000a81548173ffffffffffffffffffffffffffffffffffffffff021916908373ffffffffffffffffffffffffffffffffffffffff160217905550808273ffffffffffffffffffffffffffffffffffffffff168473ffffffffffffffffffffffffffffffffffffffff167fddf252ad1be2c89b69c2b068fc378daa952ba7f163c4a11628f55a4df523b3ef60405160405180910390a46110f88383836001611720565b505050565b61110681611726565b50565b60006002600083815260200190815260200160002060009054906101000a900473ffffffffffffffffffffffffffffffffffffffff169050919050565b61114e610cad565b73ffffffffffffffffffffffffffffffffffffffff1661116c610972565b73ffffffffffffffffffffffffffffffffffffffff16146111c2576040517f08c379a00000000000000000000000000000000000000000000000000000000081526004016111b990613369565b60405180910390fd5b565b6000600b60009054906101000a900473ffffffffffffffffffffffffffffffffffffffff16905081600b60006101000a81548173ffffffffffffffffffffffffffffffffffffffff021916908373ffffffffffffffffffffffffffffffffffffffff1602179055508173ffffffffffffffffffffffffffffffffffffffff168173ffffffffffffffffffffffffffffffffffffffff167f8be0079c531659141344cd1fd0a4f28419497f9722a3daafe3b4186f6b6457e060405160405180910390a35050565b8173ffffffffffffffffffffffffffffffffffffffff168373ffffffffffffffffffffffffffffffffffffffff1614156112f9576040517f08c379a00000000000000000000000000000000000000000000000000000000081526004016112f0906133d5565b60405180910390fd5b80600560008573ffffffffffffffffffffffffffffffffffffffff1673ffffffffffffffffffffffffffffffffffffffff16815260200190815260200160002060008473ffffffffffffffffffffffffffffffffffffffff1673ffffffffffffffffffffffffffffffffffffffff16815260200190815260200160002060006101000a81548160ff0219169083151502179055508173ffffffffffffffffffffffffffffffffffffffff168373ffffffffffffffffffffffffffffffffffffffff167f17307eab39ab6107e8899845ad3d59bd9653f200f220920489ca2b5937696c31836040516113ea91906126f3565b60405180910390a3505050565b611402848484610e03565b61140e84848484611779565b61144d576040517f08c379a000000000000000000000000000000000000000000000000000000000815260040161144490613467565b60405180910390fd5b50505050565b606061145e82610c62565b6000600a6000848152602001908152602001600020805461147e90612d2e565b80601f01602080910402602001604051908101604052809291908181526020018280546114aa90612d2e565b80156114f75780601f106114cc576101008083540402835291602001916114f7565b820191906000526020600020905b8154815290600101906020018083116114da57829003601f168201915b505050505090506000611508611910565b905060008151141561151e578192505050611561565b60008251111561155357808260405160200161153b9291906134c3565b60405160208183030381529060405292505050611561565b61155c84611927565b925050505b919050565b600081600001549050919050565b6001816000016000828254019250508190555050565b6115a482826040518060200160405280600081525061198f565b5050565b6115b1826116cd565b6115f0576040517f08c379a00000000000000000000000000000000000000000000000000000000081526004016115e790613559565b60405180910390fd5b80600a6000848152602001908152602001600020908051906020019061161792919061255c565b507ff8e1a15aba9398e019f0b49df1a4fde98ee17ae345cb5f6b5e2c27f5033e8ce7826040516116479190612903565b60405180910390a15050565b60007f780e9d63000000000000000000000000000000000000000000000000000000007bffffffffffffffffffffffffffffffffffffffffffffffffffffffff1916827bffffffffffffffffffffffffffffffffffffffffffffffffffffffff191614806116c657506116c5826119ea565b5b9050919050565b60008073ffffffffffffffffffffffffffffffffffffffff166116ef83611109565b73ffffffffffffffffffffffffffffffffffffffff1614159050919050565b61171a84848484611acc565b50505050565b50505050565b61172f81611c2c565b6000600a6000838152602001908152602001600020805461174f90612d2e565b90501461177657600a6000828152602001908152602001600020600061177591906125e2565b5b50565b600061179a8473ffffffffffffffffffffffffffffffffffffffff16611d7a565b15611903578373ffffffffffffffffffffffffffffffffffffffff1663150b7a026117c3610cad565b8786866040518563ffffffff1660e01b81526004016117e594939291906135ce565b602060405180830381600087803b1580156117ff57600080fd5b505af192505050801561183057506040513d601f19601f8201168201806040525081019061182d919061362f565b60015b6118b3573d8060008114611860576040519150601f19603f3d011682016040523d82523d6000602084013e611865565b606091505b506000815114156118ab576040517f08c379a00000000000000000000000000000000000000000000000000000000081526004016118a290613467565b60405180910390fd5b805181602001fd5b63150b7a0260e01b7bffffffffffffffffffffffffffffffffffffffffffffffffffffffff1916817bffffffffffffffffffffffffffffffffffffffffffffffffffffffff191614915050611908565b600190505b949350505050565b606060405180602001604052806000815250905090565b606061193282610c62565b600061193c611910565b9050600081511161195c5760405180602001604052806000815250611987565b8061196684611d9d565b6040516020016119779291906134c3565b6040516020818303038152906040525b915050919050565b6119998383611e75565b6119a66000848484611779565b6119e5576040517f08c379a00000000000000000000000000000000000000000000000000000000081526004016119dc90613467565b60405180910390fd5b505050565b60007f80ac58cd000000000000000000000000000000000000000000000000000000007bffffffffffffffffffffffffffffffffffffffffffffffffffffffff1916827bffffffffffffffffffffffffffffffffffffffffffffffffffffffff19161480611ab557507f5b5e139f000000000000000000000000000000000000000000000000000000007bffffffffffffffffffffffffffffffffffffffffffffffffffffffff1916827bffffffffffffffffffffffffffffffffffffffffffffffffffffffff1916145b80611ac55750611ac482612093565b5b9050919050565b611ad8848484846120fd565b6001811115611b1c576040517f08c379a0000000000000000000000000000000000000000000000000000000008152600401611b13906136ce565b60405180910390fd5b6000829050600073ffffffffffffffffffffffffffffffffffffffff168573ffffffffffffffffffffffffffffffffffffffff161415611b6457611b5f81612103565b611ba3565b8373ffffffffffffffffffffffffffffffffffffffff168573ffffffffffffffffffffffffffffffffffffffff1614611ba257611ba1858261214c565b5b5b600073ffffffffffffffffffffffffffffffffffffffff168473ffffffffffffffffffffffffffffffffffffffff161415611be657611be1816122b9565b611c25565b8473ffffffffffffffffffffffffffffffffffffffff168473ffffffffffffffffffffffffffffffffffffffff1614611c2457611c23848261238a565b5b5b5050505050565b6000611c378261081f565b9050611c4781600084600161170e565b611c508261081f565b90506004600083815260200190815260200160002060006101000a81549073ffffffffffffffffffffffffffffffffffffffff02191690556001600360008373ffffffffffffffffffffffffffffffffffffffff1673ffffffffffffffffffffffffffffffffffffffff168152602001908152602001600020600082825403925050819055506002600083815260200190815260200160002060006101000a81549073ffffffffffffffffffffffffffffffffffffffff021916905581600073ffffffffffffffffffffffffffffffffffffffff168273ffffffffffffffffffffffffffffffffffffffff167fddf252ad1be2c89b69c2b068fc378daa952ba7f163c4a11628f55a4df523b3ef60405160405180910390a4611d76816000846001611720565b5050565b6000808273ffffffffffffffffffffffffffffffffffffffff163b119050919050565b606060006001611dac84612409565b01905060008167ffffffffffffffff811115611dcb57611dca612a14565b5b6040519080825280601f01601f191660200182016040528015611dfd5781602001600182028036833780820191505090505b509050600082602001820190505b600115611e6a578080600190039150507f3031323334353637383961626364656600000000000000000000000000000000600a86061a8153600a8581611e5457611e536136ee565b5b0494506000851415611e6557611e6a565b611e0b565b819350505050919050565b600073ffffffffffffffffffffffffffffffffffffffff168273ffffffffffffffffffffffffffffffffffffffff161415611ee5576040517f08c379a0000000000000000000000000000000000000000000000000000000008152600401611edc90613769565b60405180910390fd5b611eee816116cd565b15611f2e576040517f08c379a0000000000000000000000000000000000000000000000000000000008152600401611f25906137d5565b60405180910390fd5b611f3c60008383600161170e565b611f45816116cd565b15611f85576040517f08c379a0000000000000000000000000000000000000000000000000000000008152600401611f7c906137d5565b60405180910390fd5b6001600360008473ffffffffffffffffffffffffffffffffffffffff1673ffffffffffffffffffffffffffffffffffffffff16815260200190815260200160002060008282540192505081905550816002600083815260200190815260200160002060006101000a81548173ffffffffffffffffffffffffffffffffffffffff021916908373ffffffffffffffffffffffffffffffffffffffff160217905550808273ffffffffffffffffffffffffffffffffffffffff16600073ffffffffffffffffffffffffffffffffffffffff167fddf252ad1be2c89b69c2b068fc378daa952ba7f163c4a11628f55a4df523b3ef60405160405180910390a461208f600083836001611720565b5050565b60007f01ffc9a7000000000000000000000000000000000000000000000000000000007bffffffffffffffffffffffffffffffffffffffffffffffffffffffff1916827bffffffffffffffffffffffffffffffffffffffffffffffffffffffff1916149050919050565b50505050565b6008805490506009600083815260200190815260200160002081905550600881908060018154018082558091505060019003906000526020600020016000909190919091505550565b60006001612159846108a6565b6121639190613824565b9050600060076000848152602001908152602001600020549050818114612248576000600660008673ffffffffffffffffffffffffffffffffffffffff1673ffffffffffffffffffffffffffffffffffffffff168152602001908152602001600020600084815260200190815260200160002054905080600660008773ffffffffffffffffffffffffffffffffffffffff1673ffffffffffffffffffffffffffffffffffffffff168152602001908152602001600020600084815260200190815260200160002081905550816007600083815260200190815260200160002081905550505b6007600084815260200190815260200160002060009055600660008573ffffffffffffffffffffffffffffffffffffffff1673ffffffffffffffffffffffffffffffffffffffff16815260200190815260200160002060008381526020019081526020016000206000905550505050565b600060016008805490506122cd9190613824565b90506000600960008481526020019081526020016000205490506000600883815481106122fd576122fc61303a565b5b90600052602060002001549050806008838154811061231f5761231e61303a565b5b90600052602060002001819055508160096000838152602001908152602001600020819055506009600085815260200190815260200160002060009055600880548061236e5761236d613858565b5b6001900381819060005260206000200160009055905550505050565b6000612395836108a6565b905081600660008573ffffffffffffffffffffffffffffffffffffffff1673ffffffffffffffffffffffffffffffffffffffff168152602001908152602001600020600083815260200190815260200160002081905550806007600084815260200190815260200160002081905550505050565b600080600090507a184f03e93ff9f4daa797ed6e38ed64bf6a1f0100000000000000008310612467577a184f03e93ff9f4daa797ed6e38ed64bf6a1f010000000000000000838161245d5761245c6136ee565b5b0492506040810190505b6d04ee2d6d415b85acef810000000083106124a4576d04ee2d6d415b85acef8100000000838161249a576124996136ee565b5b0492506020810190505b662386f26fc1000083106124d357662386f26fc1000083816124c9576124c86136ee565b5b0492506010810190505b6305f5e10083106124fc576305f5e10083816124f2576124f16136ee565b5b0492506008810190505b6127108310612521576127108381612517576125166136ee565b5b0492506004810190505b60648310612544576064838161253a576125396136ee565b5b0492506002810190505b600a8310612553576001810190505b80915050919050565b82805461256890612d2e565b90600052602060002090601f01602090048101928261258a57600085556125d1565b82601f106125a357805160ff19168380011785556125d1565b828001600101855582156125d1579182015b828111156125d05782518255916020019190600101906125b5565b5b5090506125de9190612622565b5090565b5080546125ee90612d2e565b6000825580601f10612600575061261f565b601f01602090049060005260206000209081019061261e9190612622565b5b50565b5b8082111561263b576000816000905550600101612623565b5090565b6000604051905090565b600080fd5b600080fd5b60007fffffffff0000000000000000000000000000000000000000000000000000000082169050919050565b61268881612653565b811461269357600080fd5b50565b6000813590506126a58161267f565b92915050565b6000602082840312156126c1576126c0612649565b5b60006126cf84828501612696565b91505092915050565b60008115159050919050565b6126ed816126d8565b82525050565b600060208201905061270860008301846126e4565b92915050565b600081519050919050565b600082825260208201905092915050565b60005b8381101561274857808201518184015260208101905061272d565b83811115612757576000848401525b50505050565b6000601f19601f8301169050919050565b60006127798261270e565b6127838185612719565b935061279381856020860161272a565b61279c8161275d565b840191505092915050565b600060208201905081810360008301526127c1818461276e565b905092915050565b6000819050919050565b6127dc816127c9565b81146127e757600080fd5b50565b6000813590506127f9816127d3565b92915050565b60006020828403121561281557612814612649565b5b6000612823848285016127ea565b91505092915050565b600073ffffffffffffffffffffffffffffffffffffffff82169050919050565b60006128578261282c565b9050919050565b6128678161284c565b82525050565b6000602082019050612882600083018461285e565b92915050565b6128918161284c565b811461289c57600080fd5b50565b6000813590506128ae81612888565b92915050565b600080604083850312156128cb576128ca612649565b5b60006128d98582860161289f565b92505060206128ea858286016127ea565b9150509250929050565b6128fd816127c9565b82525050565b600060208201905061291860008301846128f4565b92915050565b60008060006060848603121561293757612936612649565b5b60006129458682870161289f565b93505060206129568682870161289f565b9250506040612967868287016127ea565b9150509250925092565b60006020828403121561298757612986612649565b5b60006129958482850161289f565b91505092915050565b6129a7816126d8565b81146129b257600080fd5b50565b6000813590506129c48161299e565b92915050565b600080604083850312156129e1576129e0612649565b5b60006129ef8582860161289f565b9250506020612a00858286016129b5565b9150509250929050565b600080fd5b600080fd5b7f4e487b7100000000000000000000000000000000000000000000000000000000600052604160045260246000fd5b612a4c8261275d565b810181811067ffffffffffffffff82111715612a6b57612a6a612a14565b5b80604052505050565b6000612a7e61263f565b9050612a8a8282612a43565b919050565b600067ffffffffffffffff821115612aaa57612aa9612a14565b5b612ab38261275d565b9050602081019050919050565b82818337600083830152505050565b6000612ae2612add84612a8f565b612a74565b905082815260208101848484011115612afe57612afd612a0f565b5b612b09848285612ac0565b509392505050565b600082601f830112612b2657612b25612a0a565b5b8135612b36848260208601612acf565b91505092915050565b60008060008060808587031215612b5957612b58612649565b5b6000612b678782880161289f565b9450506020612b788782880161289f565b9350506040612b89878288016127ea565b925050606085013567ffffffffffffffff811115612baa57612ba961264e565b5b612bb687828801612b11565b91505092959194509250565b600067ffffffffffffffff821115612bdd57612bdc612a14565b5b612be68261275d565b9050602081019050919050565b6000612c06612c0184612bc2565b612a74565b905082815260208101848484011115612c2257612c21612a0f565b5b612c2d848285612ac0565b509392505050565b600082601f830112612c4a57612c49612a0a565b5b8135612c5a848260208601612bf3565b91505092915050565b60008060408385031215612c7a57612c79612649565b5b6000612c888582860161289f565b925050602083013567ffffffffffffffff811115612ca957612ca861264e565b5b612cb585828601612c35565b9150509250929050565b60008060408385031215612cd657612cd5612649565b5b6000612ce48582860161289f565b9250506020612cf58582860161289f565b9150509250929050565b7f4e487b7100000000000000000000000000000000000000000000000000000000600052602260045260246000fd5b60006002820490506001821680612d4657607f821691505b60208210811415612d5a57612d59612cff565b5b50919050565b7f4552433732313a20617070726f76616c20746f2063757272656e74206f776e6560008201527f7200000000000000000000000000000000000000000000000000000000000000602082015250565b6000612dbc602183612719565b9150612dc782612d60565b604082019050919050565b60006020820190508181036000830152612deb81612daf565b9050919050565b7f4552433732313a20617070726f76652063616c6c6572206973206e6f7420746f60008201527f6b656e206f776e6572206f7220617070726f76656420666f7220616c6c000000602082015250565b6000612e4e603d83612719565b9150612e5982612df2565b604082019050919050565b60006020820190508181036000830152612e7d81612e41565b9050919050565b7f4552433732313a2063616c6c6572206973206e6f7420746f6b656e206f776e6560008201527f72206f7220617070726f76656400000000000000000000000000000000000000602082015250565b6000612ee0602d83612719565b9150612eeb82612e84565b604082019050919050565b60006020820190508181036000830152612f0f81612ed3565b9050919050565b7f455243373231456e756d657261626c653a206f776e657220696e646578206f7560008201527f74206f6620626f756e6473000000000000000000000000000000000000000000602082015250565b6000612f72602b83612719565b9150612f7d82612f16565b604082019050919050565b60006020820190508181036000830152612fa181612f65565b9050919050565b7f455243373231456e756d657261626c653a20676c6f62616c20696e646578206f60008201527f7574206f6620626f756e64730000000000000000000000000000000000000000602082015250565b6000613004602c83612719565b915061300f82612fa8565b604082019050919050565b6000602082019050818103600083015261303381612ff7565b9050919050565b7f4e487b7100000000000000000000000000000000000000000000000000000000600052603260045260246000fd5b7f4552433732313a20696e76616c696420746f6b656e2049440000000000000000600082015250565b600061309f601883612719565b91506130aa82613069565b602082019050919050565b600060208201905081810360008301526130ce81613092565b9050919050565b7f4552433732313a2061646472657373207a65726f206973206e6f74206120766160008201527f6c6964206f776e65720000000000000000000000000000000000000000000000602082015250565b6000613131602983612719565b915061313c826130d5565b604082019050919050565b6000602082019050818103600083015261316081613124565b9050919050565b7f4f776e61626c653a206e6577206f776e657220697320746865207a65726f206160008201527f6464726573730000000000000000000000000000000000000000000000000000602082015250565b60006131c3602683612719565b91506131ce82613167565b604082019050919050565b600060208201905081810360008301526131f2816131b6565b9050919050565b7f4552433732313a207472616e736665722066726f6d20696e636f72726563742060008201527f6f776e6572000000000000000000000000000000000000000000000000000000602082015250565b6000613255602583612719565b9150613260826131f9565b604082019050919050565b6000602082019050818103600083015261328481613248565b9050919050565b7f4552433732313a207472616e7366657220746f20746865207a65726f2061646460008201527f7265737300000000000000000000000000000000000000000000000000000000602082015250565b60006132e7602483612719565b91506132f28261328b565b604082019050919050565b60006020820190508181036000830152613316816132da565b9050919050565b7f4f776e61626c653a2063616c6c6572206973206e6f7420746865206f776e6572600082015250565b6000613353602083612719565b915061335e8261331d565b602082019050919050565b6000602082019050818103600083015261338281613346565b9050919050565b7f4552433732313a20617070726f766520746f2063616c6c657200000000000000600082015250565b60006133bf601983612719565b91506133ca82613389565b602082019050919050565b600060208201905081810360008301526133ee816133b2565b9050919050565b7f4552433732313a207472616e7366657220746f206e6f6e20455243373231526560008201527f63656976657220696d706c656d656e7465720000000000000000000000000000602082015250565b6000613451603283612719565b915061345c826133f5565b604082019050919050565b6000602082019050818103600083015261348081613444565b9050919050565b600081905092915050565b600061349d8261270e565b6134a78185613487565b93506134b781856020860161272a565b80840191505092915050565b60006134cf8285613492565b91506134db8284613492565b91508190509392505050565b7f45524337323155524953746f726167653a2055524920736574206f66206e6f6e60008201527f6578697374656e7420746f6b656e000000000000000000000000000000000000602082015250565b6000613543602e83612719565b915061354e826134e7565b604082019050919050565b6000602082019050818103600083015261357281613536565b9050919050565b600081519050919050565b600082825260208201905092915050565b60006135a082613579565b6135aa8185613584565b93506135ba81856020860161272a565b6135c38161275d565b840191505092915050565b60006080820190506135e3600083018761285e565b6135f0602083018661285e565b6135fd60408301856128f4565b818103606083015261360f8184613595565b905095945050505050565b6000815190506136298161267f565b92915050565b60006020828403121561364557613644612649565b5b60006136538482850161361a565b91505092915050565b7f455243373231456e756d657261626c653a20636f6e736563757469766520747260008201527f616e7366657273206e6f7420737570706f727465640000000000000000000000602082015250565b60006136b8603583612719565b91506136c38261365c565b604082019050919050565b600060208201905081810360008301526136e7816136ab565b9050919050565b7f4e487b7100000000000000000000000000000000000000000000000000000000600052601260045260246000fd5b7f4552433732313a206d696e7420746f20746865207a65726f2061646472657373600082015250565b6000613753602083612719565b915061375e8261371d565b602082019050919050565b6000602082019050818103600083015261378281613746565b9050919050565b7f4552433732313a20746f6b656e20616c7265616479206d696e74656400000000600082015250565b60006137bf601c83612719565b91506137ca82613789565b602082019050919050565b600060208201905081810360008301526137ee816137b2565b9050919050565b7f4e487b7100000000000000000000000000000000000000000000000000000000600052601160045260246000fd5b600061382f826127c9565b915061383a836127c9565b92508282101561384d5761384c6137f5565b5b828203905092915050565b7f4e487b7100000000000000000000000000000000000000000000000000000000600052603160045260246000fdfea264697066735822122002a065b8800d10c2f35c2504964e22df8c66b2525282ff88e6549016f2b66cab64736f6c63430008090033",
  "linkReferences": {},
  "deployedLinkReferences": {}
}