{
  "_format": "hh-sol-artifact-1",
  "contractName": "exchange",
  "sourceName": "contracts/ExchangeCrypto.sol",
  "abi": [
    {
      "inputs": [],
      "stateMutability": "nonpayable",
      "type": "constructor"
    },
    {
      "anonymous": false,
      "inputs": [
        {
          "indexed": false,
          "internalType": "address",
          "name": "_borrower",
          "type": "address"
        },
        {
          "indexed": false,
          "internalType": "uint256",
          "name": "_amount",
          "type": "uint256"
        },
        {
          "indexed": false,
          "internalType": "uint256",
          "name": "_expireTimestamp",
          "type": "uint256"
        },
        {
          "indexed": false,
          "internalType": "string",
          "name": "_nftChainId",
          "type": "string"
        },
        {
          "indexed": false,
          "internalType": "string",
          "name": "_nftTokenId",
          "type": "string"
        }
      ],
      "name": "Loan",
      "type": "event"
    },
    {
      "anonymous": false,
      "inputs": [
        {
          "indexed": false,
          "internalType": "uint256",
          "name": "value",
          "type": "uint256"
        },
        {
          "indexed": false,
          "internalType": "address",
          "name": "from",
          "type": "address"
        }
      ],
      "name": "ethReceived",
      "type": "event"
    },
    {
      "inputs": [],
      "name": "acceptEth",
      "outputs": [],
      "stateMutability": "payable",
      "type": "function"
    },
    {
      "inputs": [
        {
          "internalType": "address",
          "name": "_who",
          "type": "address"
        }
      ],
      "name": "checkIdentity",
      "outputs": [
        {
          "components": [
            {
              "internalType": "string",
              "name": "name",
              "type": "string"
            },
            {
              "internalType": "uint256",
              "name": "birth",
              "type": "uint256"
            },
            {
              "internalType": "uint256",
              "name": "creditScore",
              "type": "uint256"
            }
          ],
          "internalType": "struct exchange.id",
          "name": "",
          "type": "tuple"
        }
      ],
      "stateMutability": "view",
      "type": "function"
    },
    {
      "inputs": [
        {
          "internalType": "address",
          "name": "_who",
          "type": "address"
        }
      ],
      "name": "checkLoan",
      "outputs": [
        {
          "components": [
            {
              "internalType": "uint256",
              "name": "amount",
              "type": "uint256"
            },
            {
              "internalType": "uint256",
              "name": "cutOffTimestamp",
              "type": "uint256"
            },
            {
              "internalType": "string",
              "name": "nftChainId",
              "type": "string"
            },
            {
              "internalType": "string",
              "name": "nftTokenId",
              "type": "string"
            },
            {
              "internalType": "bool",
              "name": "collateralSold",
              "type": "bool"
            },
            {
              "internalType": "bool",
              "name": "set",
              "type": "bool"
            }
          ],
          "internalType": "struct exchange.loanStruct",
          "name": "",
          "type": "tuple"
        }
      ],
      "stateMutability": "view",
      "type": "function"
    },
    {
      "inputs": [],
      "name": "exchangeNftAddr",
      "outputs": [
        {
          "internalType": "address",
          "name": "",
          "type": "address"
        }
      ],
      "stateMutability": "view",
      "type": "function"
    },
    {
      "inputs": [
        {
          "internalType": "address",
          "name": "_who",
          "type": "address"
        }
      ],
      "name": "getIsUser",
      "outputs": [
        {
          "internalType": "bool",
          "name": "",
          "type": "bool"
        }
      ],
      "stateMutability": "view",
      "type": "function"
    },
    {
      "inputs": [
        {
          "internalType": "address",
          "name": "_borrower",
          "type": "address"
        },
        {
          "internalType": "uint256",
          "name": "_amount",
          "type": "uint256"
        },
        {
          "internalType": "uint256",
          "name": "_period",
          "type": "uint256"
        },
        {
          "internalType": "string",
          "name": "_nftChainId",
          "type": "string"
        },
        {
          "internalType": "string",
          "name": "_nftTokenId",
          "type": "string"
        }
      ],
      "name": "getLoan",
      "outputs": [],
      "stateMutability": "nonpayable",
      "type": "function"
    },
    {
      "inputs": [
        {
          "internalType": "uint256",
          "name": "_who",
          "type": "uint256"
        }
      ],
      "name": "getUser",
      "outputs": [
        {
          "internalType": "address",
          "name": "",
          "type": "address"
        }
      ],
      "stateMutability": "view",
      "type": "function"
    },
    {
      "inputs": [],
      "name": "owner",
      "outputs": [
        {
          "internalType": "address",
          "name": "",
          "type": "address"
        }
      ],
      "stateMutability": "view",
      "type": "function"
    },
    {
      "inputs": [],
      "name": "returnLoan",
      "outputs": [],
      "stateMutability": "payable",
      "type": "function"
    },
    {
      "inputs": [
        {
          "internalType": "address",
          "name": "_borrower",
          "type": "address"
        }
      ],
      "name": "setCollateralSold",
      "outputs": [],
      "stateMutability": "nonpayable",
      "type": "function"
    },
    {
      "inputs": [
        {
          "internalType": "address",
          "name": "_who",
          "type": "address"
        },
        {
          "internalType": "string",
          "name": "_name",
          "type": "string"
        },
        {
          "internalType": "uint256",
          "name": "_birth",
          "type": "uint256"
        },
        {
          "internalType": "uint256",
          "name": "_creditScore",
          "type": "uint256"
        }
      ],
      "name": "setIdentity",
      "outputs": [],
      "stateMutability": "nonpayable",
      "type": "function"
    },
    {
      "inputs": [
        {
          "internalType": "uint256",
          "name": "period",
          "type": "uint256"
        }
      ],
      "name": "stakeEth",
      "outputs": [],
      "stateMutability": "payable",
      "type": "function"
    },
    {
      "inputs": [],
      "name": "stakeTokenAddr",
      "outputs": [
        {
          "internalType": "address",
          "name": "",
          "type": "address"
        }
      ],
      "stateMutability": "view",
      "type": "function"
    },
    {
      "inputs": [
        {
          "internalType": "address",
          "name": "",
          "type": "address"
        },
        {
          "internalType": "uint256",
          "name": "",
          "type": "uint256"
        }
      ],
      "name": "stakes",
      "outputs": [
        {
          "internalType": "uint256",
          "name": "tokens",
          "type": "uint256"
        },
        {
          "internalType": "uint256",
          "name": "unlockTimestamp",
          "type": "uint256"
        }
      ],
      "stateMutability": "view",
      "type": "function"
    },
    {
      "inputs": [
        {
          "internalType": "address",
          "name": "",
          "type": "address"
        }
      ],
      "name": "stakesNumber",
      "outputs": [
        {
          "internalType": "uint256",
          "name": "",
          "type": "uint256"
        }
      ],
      "stateMutability": "view",
      "type": "function"
    },
    {
      "inputs": [],
      "name": "usersCount",
      "outputs": [
        {
          "internalType": "uint256",
          "name": "",
          "type": "uint256"
        }
      ],
      "stateMutability": "view",
      "type": "function"
    },
    {
      "inputs": [
        {
          "internalType": "uint256",
          "name": "value",
          "type": "uint256"
        }
      ],
      "name": "withdrawEth",
      "outputs": [],
      "stateMutability": "nonpayable",
      "type": "function"
    },
    {
      "inputs": [
        {
          "internalType": "uint256",
          "name": "value",
          "type": "uint256"
        }
      ],
      "name": "withdrawStakedEth",
      "outputs": [],
      "stateMutability": "nonpayable",
      "type": "function"
    }
  ],
  "bytecode": "0x60806040526040516200001290620001f6565b604051809103906000f0801580156200002f573d6000803e3d6000fd5b50600160006101000a81548173ffffffffffffffffffffffffffffffffffffffff021916908373ffffffffffffffffffffffffffffffffffffffff1602179055506040516200007e9062000204565b604051809103906000f0801580156200009b573d6000803e3d6000fd5b50600260006101000a81548173ffffffffffffffffffffffffffffffffffffffff021916908373ffffffffffffffffffffffffffffffffffffffff160217905550600260009054906101000a900473ffffffffffffffffffffffffffffffffffffffff16600360006101000a81548173ffffffffffffffffffffffffffffffffffffffff021916908373ffffffffffffffffffffffffffffffffffffffff160217905550600160009054906101000a900473ffffffffffffffffffffffffffffffffffffffff16600460006101000a81548173ffffffffffffffffffffffffffffffffffffffff021916908373ffffffffffffffffffffffffffffffffffffffff160217905550348015620001af57600080fd5b50336000806101000a81548173ffffffffffffffffffffffffffffffffffffffff021916908373ffffffffffffffffffffffffffffffffffffffff16021790555062000212565b61503d806200286483390190565b613b8880620078a183390190565b61264280620002226000396000f3fe6080604052600436106101095760003560e01c80638004364911610095578063b0467deb11610064578063b0467deb1461031b578063b97f016f14610358578063c311d04914610395578063d9385c99146103be578063e95cccb1146103e957610109565b806380043649146102a157806382af4b1f146102ca5780638da5cb5b146102d457806396db582a146102ff57610109565b8063584b62a1116100dc578063584b62a1146101dc57806367ee94f11461021a5780636ba13a821461024357806372dde3fe1461026e57806376f053601461027857610109565b80630b494ff81461010e5780632ad1285b1461014b578063305c1a73146101745780633a372f59146101b1575b600080fd5b34801561011a57600080fd5b5061013560048036038101906101309190611a56565b610426565b6040516101429190611be0565b60405180910390f35b34801561015757600080fd5b50610172600480360381019061016d9190611c2e565b610645565b005b34801561018057600080fd5b5061019b60048036038101906101969190611a56565b610a76565b6040516101a89190611c6a565b60405180910390f35b3480156101bd57600080fd5b506101c6610a8e565b6040516101d39190611c94565b60405180910390f35b3480156101e857600080fd5b5061020360048036038101906101fe9190611caf565b610ab4565b604051610211929190611cef565b60405180910390f35b34801561022657600080fd5b50610241600480360381019061023c9190611e4d565b610ae5565b005b34801561024f57600080fd5b50610258610bd1565b6040516102659190611c6a565b60405180910390f35b610276610bd7565b005b34801561028457600080fd5b5061029f600480360381019061029a9190611ed0565b610e5c565b005b3480156102ad57600080fd5b506102c860048036038101906102c39190611a56565b6111e2565b005b6102d2611298565b005b3480156102e057600080fd5b506102e96112d3565b6040516102f69190611c94565b60405180910390f35b61031960048036038101906103149190611c2e565b6112f7565b005b34801561032757600080fd5b50610342600480360381019061033d9190611c2e565b611542565b60405161034f9190611c94565b60405180910390f35b34801561036457600080fd5b5061037f600480360381019061037a9190611a56565b6115d8565b60405161038c9190611f92565b60405180910390f35b3480156103a157600080fd5b506103bc60048036038101906103b79190611c2e565b611687565b005b3480156103ca57600080fd5b506103d3611729565b6040516103e09190611c94565b60405180910390f35b3480156103f557600080fd5b50610410600480360381019061040b9190611a56565b61174f565b60405161041d9190611ffd565b60405180910390f35b61042e6118a6565b60008054906101000a900473ffffffffffffffffffffffffffffffffffffffff1673ffffffffffffffffffffffffffffffffffffffff163373ffffffffffffffffffffffffffffffffffffffff161461048657600080fd5b600b60008373ffffffffffffffffffffffffffffffffffffffff1673ffffffffffffffffffffffffffffffffffffffff1681526020019081526020016000206040518060c001604052908160008201548152602001600182015481526020016002820180546104f49061204e565b80601f01602080910402602001604051908101604052809291908181526020018280546105209061204e565b801561056d5780601f106105425761010080835404028352916020019161056d565b820191906000526020600020905b81548152906001019060200180831161055057829003601f168201915b505050505081526020016003820180546105869061204e565b80601f01602080910402602001604051908101604052809291908181526020018280546105b29061204e565b80156105ff5780601f106105d4576101008083540402835291602001916105ff565b820191906000526020600020905b8154815290600101906020018083116105e257829003601f168201915b505050505081526020016004820160009054906101000a900460ff161515151581526020016004820160019054906101000a900460ff1615151515815250509050919050565b80600160009054906101000a900473ffffffffffffffffffffffffffffffffffffffff1673ffffffffffffffffffffffffffffffffffffffff1663dd62ed3e33306040518363ffffffff1660e01b81526004016106a3929190612080565b60206040518083038186803b1580156106bb57600080fd5b505afa1580156106cf573d6000803e3d6000fd5b505050506040513d601f19601f820116820180604052508101906106f391906120be565b1015610734576040517f08c379a000000000000000000000000000000000000000000000000000000000815260040161072b90612148565b60405180910390fd5b600080600090505b600660003373ffffffffffffffffffffffffffffffffffffffff1673ffffffffffffffffffffffffffffffffffffffff16815260200190815260200160002054811015610959576000600560003373ffffffffffffffffffffffffffffffffffffffff1673ffffffffffffffffffffffffffffffffffffffff168152602001908152602001600020600083815260200190815260200160002060010154905042811015610945576000600560003373ffffffffffffffffffffffffffffffffffffffff1673ffffffffffffffffffffffffffffffffffffffff16815260200190815260200160002060008481526020019081526020016000206000015490508481856108489190612197565b116108b95780846108599190612197565b93506000600560003373ffffffffffffffffffffffffffffffffffffffff1673ffffffffffffffffffffffffffffffffffffffff168152602001908152602001600020600085815260200190815260200160002060000181905550610943565b600084866108c791906121ed565b905080600560003373ffffffffffffffffffffffffffffffffffffffff1673ffffffffffffffffffffffffffffffffffffffff1681526020019081526020016000206000868152602001908152602001600020600001600082825461092c91906121ed565b92505081905550808561093f9190612197565b9450505b505b50808061095190612221565b91505061073c565b5081811461099c576040517f08c379a0000000000000000000000000000000000000000000000000000000008152600401610993906122b6565b60405180910390fd5b600160009054906101000a900473ffffffffffffffffffffffffffffffffffffffff1673ffffffffffffffffffffffffffffffffffffffff166379cc679033836040518363ffffffff1660e01b81526004016109f99291906122d6565b600060405180830381600087803b158015610a1357600080fd5b505af1158015610a27573d6000803e3d6000fd5b505050503373ffffffffffffffffffffffffffffffffffffffff166108fc829081150290604051600060405180830381858888f19350505050158015610a71573d6000803e3d6000fd5b505050565b60066020528060005260406000206000915090505481565b600360009054906101000a900473ffffffffffffffffffffffffffffffffffffffff1681565b6005602052816000526040600020602052806000526040600020600091509150508060000154908060010154905082565b60008054906101000a900473ffffffffffffffffffffffffffffffffffffffff1673ffffffffffffffffffffffffffffffffffffffff163373ffffffffffffffffffffffffffffffffffffffff1614610b3d57600080fd5b604051806060016040528084815260200183815260200182815250600760008673ffffffffffffffffffffffffffffffffffffffff1673ffffffffffffffffffffffffffffffffffffffff1681526020019081526020016000206000820151816000019080519060200190610bb39291906118e0565b50602082015181600101556040820151816002015590505050505050565b600a5481565b6000600b60003373ffffffffffffffffffffffffffffffffffffffff1673ffffffffffffffffffffffffffffffffffffffff1681526020019081526020016000206040518060c00160405290816000820154815260200160018201548152602001600282018054610c479061204e565b80601f0160208091040260200160405190810160405280929190818152602001828054610c739061204e565b8015610cc05780601f10610c9557610100808354040283529160200191610cc0565b820191906000526020600020905b815481529060010190602001808311610ca357829003601f168201915b50505050508152602001600382018054610cd99061204e565b80601f0160208091040260200160405190810160405280929190818152602001828054610d059061204e565b8015610d525780601f10610d2757610100808354040283529160200191610d52565b820191906000526020600020905b815481529060010190602001808311610d3557829003601f168201915b505050505081526020016004820160009054906101000a900460ff161515151581526020016004820160019054906101000a900460ff161515151581525050905060008160000151905080341015610da957600080fd5b600015158260800151151514610dbe57600080fd5b600b60003373ffffffffffffffffffffffffffffffffffffffff1673ffffffffffffffffffffffffffffffffffffffff1681526020019081526020016000206000808201600090556001820160009055600282016000610e1e9190611966565b600382016000610e2e9190611966565b6004820160006101000a81549060ff02191690556004820160016101000a81549060ff021916905550505050565b60008054906101000a900473ffffffffffffffffffffffffffffffffffffffff1673ffffffffffffffffffffffffffffffffffffffff163373ffffffffffffffffffffffffffffffffffffffff1614610eea576040517f08c379a0000000000000000000000000000000000000000000000000000000008152600401610ee190612371565b60405180910390fd5b600b60008673ffffffffffffffffffffffffffffffffffffffff1673ffffffffffffffffffffffffffffffffffffffff16815260200190815260200160002060040160019054906101000a900460ff1615610f7a576040517f08c379a0000000000000000000000000000000000000000000000000000000008152600401610f71906123dd565b60405180910390fd5b6040518060c001604052808581526020018442610f979190612197565b815260200183815260200182815260200160001515815260200160011515815250600b60008773ffffffffffffffffffffffffffffffffffffffff1673ffffffffffffffffffffffffffffffffffffffff168152602001908152602001600020600082015181600001556020820151816001015560408201518160020190805190602001906110279291906118e0565b5060608201518160030190805190602001906110449291906118e0565b5060808201518160040160006101000a81548160ff02191690831515021790555060a08201518160040160016101000a81548160ff0219169083151502179055509050508473ffffffffffffffffffffffffffffffffffffffff166108fc859081150290604051600060405180830381858888f193505050501580156110ce573d6000803e3d6000fd5b5060001515600960008773ffffffffffffffffffffffffffffffffffffffff1673ffffffffffffffffffffffffffffffffffffffff16815260200190815260200160002060009054906101000a900460ff1615151415611191578460086000600a600081548092919061114090612221565b91905055815260200190815260200160002060006101000a81548173ffffffffffffffffffffffffffffffffffffffff021916908373ffffffffffffffffffffffffffffffffffffffff1602179055505b7f82e6281ac3c0bb91b2321b3cdfe118d6ab71621a8f3de3134f08b27da3f961f1858585426111c09190612197565b85856040516111d3959493929190612436565b60405180910390a15050505050565b60008054906101000a900473ffffffffffffffffffffffffffffffffffffffff1673ffffffffffffffffffffffffffffffffffffffff163373ffffffffffffffffffffffffffffffffffffffff161461123a57600080fd5b6001600b60008373ffffffffffffffffffffffffffffffffffffffff1673ffffffffffffffffffffffffffffffffffffffff16815260200190815260200160002060040160006101000a81548160ff02191690831515021790555050565b7fe01a37d1c478e83199bfb619c6044d681e2729a299eb91e639f80dd5d86eecac34336040516112c9929190612497565b60405180910390a1565b60008054906101000a900473ffffffffffffffffffffffffffffffffffffffff1681565b601e811161133a576040517f08c379a000000000000000000000000000000000000000000000000000000000815260040161133190612532565b60405180910390fd5b600060b48211156113655760646069346113549190612552565b61135e91906125db565b90506113d5565b607882111561138e57606460683461137d9190612552565b61138791906125db565b90506113d4565b603c8211156113b75760646067346113a69190612552565b6113b091906125db565b90506113d3565b60646066346113c69190612552565b6113d091906125db565b90505b5b5b604051806040016040528082815260200183426113f29190612197565b815250600560003373ffffffffffffffffffffffffffffffffffffffff1673ffffffffffffffffffffffffffffffffffffffff1681526020019081526020016000206000600660003373ffffffffffffffffffffffffffffffffffffffff1673ffffffffffffffffffffffffffffffffffffffff168152602001908152602001600020600081548092919061148690612221565b9190505581526020019081526020016000206000820151816000015560208201518160010155905050600160009054906101000a900473ffffffffffffffffffffffffffffffffffffffff1673ffffffffffffffffffffffffffffffffffffffff166340c10f1933836040518363ffffffff1660e01b815260040161150c9291906122d6565b600060405180830381600087803b15801561152657600080fd5b505af115801561153a573d6000803e3d6000fd5b505050505050565b60008060009054906101000a900473ffffffffffffffffffffffffffffffffffffffff1673ffffffffffffffffffffffffffffffffffffffff163373ffffffffffffffffffffffffffffffffffffffff161461159d57600080fd5b6008600083815260200190815260200160002060009054906101000a900473ffffffffffffffffffffffffffffffffffffffff169050919050565b60008060009054906101000a900473ffffffffffffffffffffffffffffffffffffffff1673ffffffffffffffffffffffffffffffffffffffff163373ffffffffffffffffffffffffffffffffffffffff161461163357600080fd5b600960008373ffffffffffffffffffffffffffffffffffffffff1673ffffffffffffffffffffffffffffffffffffffff16815260200190815260200160002060009054906101000a900460ff169050919050565b60008054906101000a900473ffffffffffffffffffffffffffffffffffffffff1673ffffffffffffffffffffffffffffffffffffffff163373ffffffffffffffffffffffffffffffffffffffff16146116df57600080fd5b3373ffffffffffffffffffffffffffffffffffffffff166108fc829081150290604051600060405180830381858888f19350505050158015611725573d6000803e3d6000fd5b5050565b600460009054906101000a900473ffffffffffffffffffffffffffffffffffffffff1681565b6117576119a6565b60008054906101000a900473ffffffffffffffffffffffffffffffffffffffff1673ffffffffffffffffffffffffffffffffffffffff163373ffffffffffffffffffffffffffffffffffffffff16146117af57600080fd5b600760008373ffffffffffffffffffffffffffffffffffffffff1673ffffffffffffffffffffffffffffffffffffffff1681526020019081526020016000206040518060600160405290816000820180546118099061204e565b80601f01602080910402602001604051908101604052809291908181526020018280546118359061204e565b80156118825780601f1061185757610100808354040283529160200191611882565b820191906000526020600020905b81548152906001019060200180831161186557829003601f168201915b50505050508152602001600182015481526020016002820154815250509050919050565b6040518060c00160405280600081526020016000815260200160608152602001606081526020016000151581526020016000151581525090565b8280546118ec9061204e565b90600052602060002090601f01602090048101928261190e5760008555611955565b82601f1061192757805160ff1916838001178555611955565b82800160010185558215611955579182015b82811115611954578251825591602001919060010190611939565b5b50905061196291906119c7565b5090565b5080546119729061204e565b6000825580601f1061198457506119a3565b601f0160209004906000526020600020908101906119a291906119c7565b5b50565b60405180606001604052806060815260200160008152602001600081525090565b5b808211156119e05760008160009055506001016119c8565b5090565b6000604051905090565b600080fd5b600080fd5b600073ffffffffffffffffffffffffffffffffffffffff82169050919050565b6000611a23826119f8565b9050919050565b611a3381611a18565b8114611a3e57600080fd5b50565b600081359050611a5081611a2a565b92915050565b600060208284031215611a6c57611a6b6119ee565b5b6000611a7a84828501611a41565b91505092915050565b6000819050919050565b611a9681611a83565b82525050565b600081519050919050565b600082825260208201905092915050565b60005b83811015611ad6578082015181840152602081019050611abb565b83811115611ae5576000848401525b50505050565b6000601f19601f8301169050919050565b6000611b0782611a9c565b611b118185611aa7565b9350611b21818560208601611ab8565b611b2a81611aeb565b840191505092915050565b60008115159050919050565b611b4a81611b35565b82525050565b600060c083016000830151611b686000860182611a8d565b506020830151611b7b6020860182611a8d565b5060408301518482036040860152611b938282611afc565b91505060608301518482036060860152611bad8282611afc565b9150506080830151611bc26080860182611b41565b5060a0830151611bd560a0860182611b41565b508091505092915050565b60006020820190508181036000830152611bfa8184611b50565b905092915050565b611c0b81611a83565b8114611c1657600080fd5b50565b600081359050611c2881611c02565b92915050565b600060208284031215611c4457611c436119ee565b5b6000611c5284828501611c19565b91505092915050565b611c6481611a83565b82525050565b6000602082019050611c7f6000830184611c5b565b92915050565b611c8e81611a18565b82525050565b6000602082019050611ca96000830184611c85565b92915050565b60008060408385031215611cc657611cc56119ee565b5b6000611cd485828601611a41565b9250506020611ce585828601611c19565b9150509250929050565b6000604082019050611d046000830185611c5b565b611d116020830184611c5b565b9392505050565b600080fd5b600080fd5b7f4e487b7100000000000000000000000000000000000000000000000000000000600052604160045260246000fd5b611d5a82611aeb565b810181811067ffffffffffffffff82111715611d7957611d78611d22565b5b80604052505050565b6000611d8c6119e4565b9050611d988282611d51565b919050565b600067ffffffffffffffff821115611db857611db7611d22565b5b611dc182611aeb565b9050602081019050919050565b82818337600083830152505050565b6000611df0611deb84611d9d565b611d82565b905082815260208101848484011115611e0c57611e0b611d1d565b5b611e17848285611dce565b509392505050565b600082601f830112611e3457611e33611d18565b5b8135611e44848260208601611ddd565b91505092915050565b60008060008060808587031215611e6757611e666119ee565b5b6000611e7587828801611a41565b945050602085013567ffffffffffffffff811115611e9657611e956119f3565b5b611ea287828801611e1f565b9350506040611eb387828801611c19565b9250506060611ec487828801611c19565b91505092959194509250565b600080600080600060a08688031215611eec57611eeb6119ee565b5b6000611efa88828901611a41565b9550506020611f0b88828901611c19565b9450506040611f1c88828901611c19565b935050606086013567ffffffffffffffff811115611f3d57611f3c6119f3565b5b611f4988828901611e1f565b925050608086013567ffffffffffffffff811115611f6a57611f696119f3565b5b611f7688828901611e1f565b9150509295509295909350565b611f8c81611b35565b82525050565b6000602082019050611fa76000830184611f83565b92915050565b60006060830160008301518482036000860152611fca8282611afc565b9150506020830151611fdf6020860182611a8d565b506040830151611ff26040860182611a8d565b508091505092915050565b600060208201905081810360008301526120178184611fad565b905092915050565b7f4e487b7100000000000000000000000000000000000000000000000000000000600052602260045260246000fd5b6000600282049050600182168061206657607f821691505b6020821081141561207a5761207961201f565b5b50919050565b60006040820190506120956000830185611c85565b6120a26020830184611c85565b9392505050565b6000815190506120b881611c02565b92915050565b6000602082840312156120d4576120d36119ee565b5b60006120e2848285016120a9565b91505092915050565b600082825260208201905092915050565b7f6e6f7420617070726f7665640000000000000000000000000000000000000000600082015250565b6000612132600c836120eb565b915061213d826120fc565b602082019050919050565b6000602082019050818103600083015261216181612125565b9050919050565b7f4e487b7100000000000000000000000000000000000000000000000000000000600052601160045260246000fd5b60006121a282611a83565b91506121ad83611a83565b9250827fffffffffffffffffffffffffffffffffffffffffffffffffffffffffffffffff038211156121e2576121e1612168565b5b828201905092915050565b60006121f882611a83565b915061220383611a83565b92508282101561221657612215612168565b5b828203905092915050565b600061222c82611a83565b91507fffffffffffffffffffffffffffffffffffffffffffffffffffffffffffffffff82141561225f5761225e612168565b5b600182019050919050565b7f43616e6e6f7420776974686472617720746f6b656e7321000000000000000000600082015250565b60006122a06017836120eb565b91506122ab8261226a565b602082019050919050565b600060208201905081810360008301526122cf81612293565b9050919050565b60006040820190506122eb6000830185611c85565b6122f86020830184611c5b565b9392505050565b7f6f6e6c7920636f6e7472616374206f776e657220697320617574686f7269736560008201527f6400000000000000000000000000000000000000000000000000000000000000602082015250565b600061235b6021836120eb565b9150612366826122ff565b604082019050919050565b6000602082019050818103600083015261238a8161234e565b9050919050565b7f6170706c6963616e7420616c7265616479206861732061206c6f616e00000000600082015250565b60006123c7601c836120eb565b91506123d282612391565b602082019050919050565b600060208201905081810360008301526123f6816123ba565b9050919050565b600061240882611a9c565b61241281856120eb565b9350612422818560208601611ab8565b61242b81611aeb565b840191505092915050565b600060a08201905061244b6000830188611c85565b6124586020830187611c5b565b6124656040830186611c5b565b818103606083015261247781856123fd565b9050818103608083015261248b81846123fd565b90509695505050505050565b60006040820190506124ac6000830185611c5b565b6124b96020830184611c85565b9392505050565b7f7374616b696e6720706572696f64206d757374206265206c6f6e67657220746860008201527f616e203330730000000000000000000000000000000000000000000000000000602082015250565b600061251c6026836120eb565b9150612527826124c0565b604082019050919050565b6000602082019050818103600083015261254b8161250f565b9050919050565b600061255d82611a83565b915061256883611a83565b9250817fffffffffffffffffffffffffffffffffffffffffffffffffffffffffffffffff04831182151516156125a1576125a0612168565b5b828202905092915050565b7f4e487b7100000000000000000000000000000000000000000000000000000000600052601260045260246000fd5b60006125e682611a83565b91506125f183611a83565b925082612601576126006125ac565b5b82820490509291505056fea26469706673582212209368ee62a09e71138804186624b60b310fb5ab600199616b7ea18d7b09c328fd64736f6c634300080900336101606040523480156200001257600080fd5b506040518060400160405280600a81526020017f7374616b65546f6b656e00000000000000000000000000000000000000000000815250806040518060400160405280600181526020017f31000000000000000000000000000000000000000000000000000000000000008152506040518060400160405280600a81526020017f7374616b65546f6b656e000000000000000000000000000000000000000000008152506040518060400160405280600381526020017f73746b000000000000000000000000000000000000000000000000000000000081525081600390805190602001906200010492919062000407565b5080600490805190602001906200011d92919062000407565b50505062000140620001346200020160201b60201c565b6200020960201b60201c565b6200015b600683620002cf60201b620012d71790919060201c565b61012081815250506200017e600782620002cf60201b620012d71790919060201c565b6101408181525050818051906020012060e08181525050808051906020012061010081815250504660a08181525050620001bd6200033360201b60201c565b608081815250503073ffffffffffffffffffffffffffffffffffffffff1660c08173ffffffffffffffffffffffffffffffffffffffff16815250505050506200076b565b600033905090565b6000600560009054906101000a900473ffffffffffffffffffffffffffffffffffffffff16905081600560006101000a81548173ffffffffffffffffffffffffffffffffffffffff021916908373ffffffffffffffffffffffffffffffffffffffff1602179055508173ffffffffffffffffffffffffffffffffffffffff168173ffffffffffffffffffffffffffffffffffffffff167f8be0079c531659141344cd1fd0a4f28419497f9722a3daafe3b4186f6b6457e060405160405180910390a35050565b6000602083511015620002f557620002ed836200039060201b60201c565b90506200032d565b826200030c83620003fd60201b620013221760201c565b60000190805190602001906200032492919062000407565b5060ff60001b90505b92915050565b60007f8b73c3c69bb8fe3d512ecc4cf759cc79239f7b179b0ffacaa9a75d522b39400f60e0516101005146306040516020016200037595949392919062000532565b60405160208183030381529060405280519060200120905090565b600080829050601f81511115620003e057826040517f305a27a9000000000000000000000000000000000000000000000000000000008152600401620003d7919062000633565b60405180910390fd5b805181620003ee9062000696565b60001c1760001b915050919050565b6000819050919050565b828054620004159062000735565b90600052602060002090601f01602090048101928262000439576000855562000485565b82601f106200045457805160ff191683800117855562000485565b8280016001018555821562000485579182015b828111156200048457825182559160200191906001019062000467565b5b50905062000494919062000498565b5090565b5b80821115620004b357600081600090555060010162000499565b5090565b6000819050919050565b620004cc81620004b7565b82525050565b6000819050919050565b620004e781620004d2565b82525050565b600073ffffffffffffffffffffffffffffffffffffffff82169050919050565b60006200051a82620004ed565b9050919050565b6200052c816200050d565b82525050565b600060a082019050620005496000830188620004c1565b620005586020830187620004c1565b620005676040830186620004c1565b620005766060830185620004dc565b62000585608083018462000521565b9695505050505050565b600081519050919050565b600082825260208201905092915050565b60005b83811015620005cb578082015181840152602081019050620005ae565b83811115620005db576000848401525b50505050565b6000601f19601f8301169050919050565b6000620005ff826200058f565b6200060b81856200059a565b93506200061d818560208601620005ab565b6200062881620005e1565b840191505092915050565b600060208201905081810360008301526200064f8184620005f2565b905092915050565b600081519050919050565b6000819050602082019050919050565b6000620006808251620004b7565b80915050919050565b600082821b905092915050565b6000620006a38262000657565b82620006af8462000662565b9050620006bc8162000672565b92506020821015620006ff57620006fa7fffffffffffffffffffffffffffffffffffffffffffffffffffffffffffffffff8360200360080262000689565b831692505b5050919050565b7f4e487b7100000000000000000000000000000000000000000000000000000000600052602260045260246000fd5b600060028204905060018216806200074e57607f821691505b6020821081141562000765576200076462000706565b5b50919050565b60805160a05160c05160e051610100516101205161014051614877620007c66000396000610ae801526000610ab401526000611f4801526000611f27015260006118070152600061185d0152600061188601526148776000f3fe608060405234801561001057600080fd5b50600436106101e55760003560e01c8063715018a61161010f5780639ab24eb0116100a2578063d505accf11610071578063d505accf146105d4578063dd62ed3e146105f0578063f1127ed814610620578063f2fde38b14610650576101e5565b80639ab24eb014610528578063a457c2d714610558578063a9059cbb14610588578063c3cda520146105b8576101e5565b80638da5cb5b116100de5780638da5cb5b1461049e5780638e539e8c146104bc57806391ddadf4146104ec57806395d89b411461050a576101e5565b8063715018a61461042457806379cc67901461042e5780637ecebe001461044a57806384b0196e1461047a576101e5565b80633a46b1a811610187578063587cde1e11610156578063587cde1e146103785780635c19a95c146103a85780636fcfff45146103c457806370a08231146103f4576101e5565b80633a46b1a8146102f257806340c10f191461032257806342966c681461033e5780634bf5d7e91461035a576101e5565b806323b872dd116101c357806323b872dd14610256578063313ce567146102865780633644e515146102a457806339509351146102c2576101e5565b806306fdde03146101ea578063095ea7b31461020857806318160ddd14610238575b600080fd5b6101f261066c565b6040516101ff919061303c565b60405180910390f35b610222600480360381019061021d91906130f7565b6106fe565b60405161022f9190613152565b60405180910390f35b610240610721565b60405161024d919061317c565b60405180910390f35b610270600480360381019061026b9190613197565b61072b565b60405161027d9190613152565b60405180910390f35b61028e61075a565b60405161029b9190613206565b60405180910390f35b6102ac610763565b6040516102b9919061323a565b60405180910390f35b6102dc60048036038101906102d791906130f7565b610772565b6040516102e99190613152565b60405180910390f35b61030c600480360381019061030791906130f7565b6107a9565b604051610319919061317c565b60405180910390f35b61033c600480360381019061033791906130f7565b61084c565b005b61035860048036038101906103539190613255565b610862565b005b610362610876565b60405161036f919061303c565b60405180910390f35b610392600480360381019061038d9190613282565b610904565b60405161039f91906132be565b60405180910390f35b6103c260048036038101906103bd9190613282565b61096d565b005b6103de60048036038101906103d99190613282565b610981565b6040516103eb91906132f8565b60405180910390f35b61040e60048036038101906104099190613282565b6109d5565b60405161041b919061317c565b60405180910390f35b61042c610a1d565b005b610448600480360381019061044391906130f7565b610a31565b005b610464600480360381019061045f9190613282565b610a51565b604051610471919061317c565b60405180910390f35b610482610aa1565b604051610495979695949392919061340c565b60405180910390f35b6104a6610ba3565b6040516104b391906132be565b60405180910390f35b6104d660048036038101906104d19190613255565b610bcd565b6040516104e3919061317c565b60405180910390f35b6104f4610c32565b60405161050191906134b1565b60405180910390f35b610512610c42565b60405161051f919061303c565b60405180910390f35b610542600480360381019061053d9190613282565b610cd4565b60405161054f919061317c565b60405180910390f35b610572600480360381019061056d91906130f7565b610ddc565b60405161057f9190613152565b60405180910390f35b6105a2600480360381019061059d91906130f7565b610e53565b6040516105af9190613152565b60405180910390f35b6105d260048036038101906105cd9190613524565b610e76565b005b6105ee60048036038101906105e991906135b1565b610f7a565b005b61060a60048036038101906106059190613653565b6110bc565b604051610617919061317c565b60405180910390f35b61063a600480360381019061063591906136bf565b611143565b6040516106479190613774565b60405180910390f35b61066a60048036038101906106659190613282565b611253565b005b60606003805461067b906137be565b80601f01602080910402602001604051908101604052809291908181526020018280546106a7906137be565b80156106f45780601f106106c9576101008083540402835291602001916106f4565b820191906000526020600020905b8154815290600101906020018083116106d757829003601f168201915b5050505050905090565b60008061070961132c565b9050610716818585611334565b600191505092915050565b6000600254905090565b60008061073661132c565b90506107438582856114ff565b61074e85858561158b565b60019150509392505050565b60006012905090565b600061076d611803565b905090565b60008061077d61132c565b905061079e81858561078f85896110bc565b610799919061381f565b611334565b600191505092915050565b60006107b3610c32565b65ffffffffffff1682106107fc576040517f08c379a00000000000000000000000000000000000000000000000000000000081526004016107f3906138c1565b60405180910390fd5b610844600b60008573ffffffffffffffffffffffffffffffffffffffff1673ffffffffffffffffffffffffffffffffffffffff168152602001908152602001600020836118ba565b905092915050565b610854611a02565b61085e8282611a80565b5050565b61087361086d61132c565b82611a8e565b50565b606043610881610c32565b65ffffffffffff16146108c9576040517f08c379a00000000000000000000000000000000000000000000000000000000081526004016108c09061392d565b60405180910390fd5b6040518060400160405280601d81526020017f6d6f64653d626c6f636b6e756d6265722666726f6d3d64656661756c74000000815250905090565b6000600a60008373ffffffffffffffffffffffffffffffffffffffff1673ffffffffffffffffffffffffffffffffffffffff16815260200190815260200160002060009054906101000a900473ffffffffffffffffffffffffffffffffffffffff169050919050565b61097e61097861132c565b82611a9c565b50565b60006109ce600b60008473ffffffffffffffffffffffffffffffffffffffff1673ffffffffffffffffffffffffffffffffffffffff16815260200190815260200160002080549050611bb6565b9050919050565b60008060008373ffffffffffffffffffffffffffffffffffffffff1673ffffffffffffffffffffffffffffffffffffffff168152602001908152602001600020549050919050565b610a25611a02565b610a2f6000611c09565b565b610a4382610a3d61132c565b836114ff565b610a4d8282611a8e565b5050565b6000610a9a600860008473ffffffffffffffffffffffffffffffffffffffff1673ffffffffffffffffffffffffffffffffffffffff168152602001908152602001600020611ccf565b9050919050565b600060608060008060006060610ae160067f0000000000000000000000000000000000000000000000000000000000000000611cdd90919063ffffffff16565b610b1560077f0000000000000000000000000000000000000000000000000000000000000000611cdd90919063ffffffff16565b46306000801b600067ffffffffffffffff811115610b3657610b3561394d565b5b604051908082528060200260200182016040528015610b645781602001602082028036833780820191505090505b507f0f00000000000000000000000000000000000000000000000000000000000000959493929190965096509650965096509650965090919293949596565b6000600560009054906101000a900473ffffffffffffffffffffffffffffffffffffffff16905090565b6000610bd7610c32565b65ffffffffffff168210610c20576040517f08c379a0000000000000000000000000000000000000000000000000000000008152600401610c17906138c1565b60405180910390fd5b610c2b600c836118ba565b9050919050565b6000610c3d43611d8d565b905090565b606060048054610c51906137be565b80601f0160208091040260200160405190810160405280929190818152602001828054610c7d906137be565b8015610cca5780601f10610c9f57610100808354040283529160200191610cca565b820191906000526020600020905b815481529060010190602001808311610cad57829003601f168201915b5050505050905090565b600080600b60008473ffffffffffffffffffffffffffffffffffffffff1673ffffffffffffffffffffffffffffffffffffffff16815260200190815260200160002080549050905060008114610db357600b60008473ffffffffffffffffffffffffffffffffffffffff1673ffffffffffffffffffffffffffffffffffffffff1681526020019081526020016000206001820381548110610d7857610d7761397c565b5b9060005260206000200160000160049054906101000a90047bffffffffffffffffffffffffffffffffffffffffffffffffffffffff16610db6565b60005b7bffffffffffffffffffffffffffffffffffffffffffffffffffffffff16915050919050565b600080610de761132c565b90506000610df582866110bc565b905083811015610e3a576040517f08c379a0000000000000000000000000000000000000000000000000000000008152600401610e3190613a1d565b60405180910390fd5b610e478286868403611334565b60019250505092915050565b600080610e5e61132c565b9050610e6b81858561158b565b600191505092915050565b83421115610eb9576040517f08c379a0000000000000000000000000000000000000000000000000000000008152600401610eb090613a89565b60405180910390fd5b6000610f1b610f137fe48329057bfd03d55e49b547132e39cffd9c1820ad7b9d4c5307691425d15adf898989604051602001610ef89493929190613aa9565b60405160208183030381529060405280519060200120611de2565b858585611dfc565b9050610f2681611e27565b8614610f67576040517f08c379a0000000000000000000000000000000000000000000000000000000008152600401610f5e90613b3a565b60405180910390fd5b610f718188611a9c565b50505050505050565b83421115610fbd576040517f08c379a0000000000000000000000000000000000000000000000000000000008152600401610fb490613ba6565b60405180910390fd5b60007f6e71edae12b1b97f4d1f60370fef10105fa2faae0126114a169c64845d6126c9888888610fec8c611e27565b8960405160200161100296959493929190613bc6565b604051602081830303815290604052805190602001209050600061102582611de2565b9050600061103582878787611dfc565b90508973ffffffffffffffffffffffffffffffffffffffff168173ffffffffffffffffffffffffffffffffffffffff16146110a5576040517f08c379a000000000000000000000000000000000000000000000000000000000815260040161109c90613c73565b60405180910390fd5b6110b08a8a8a611334565b50505050505050505050565b6000600160008473ffffffffffffffffffffffffffffffffffffffff1673ffffffffffffffffffffffffffffffffffffffff16815260200190815260200160002060008373ffffffffffffffffffffffffffffffffffffffff1673ffffffffffffffffffffffffffffffffffffffff16815260200190815260200160002054905092915050565b61114b612ec2565b600b60008473ffffffffffffffffffffffffffffffffffffffff1673ffffffffffffffffffffffffffffffffffffffff1681526020019081526020016000208263ffffffff16815481106111a2576111a161397c565b5b906000526020600020016040518060400160405290816000820160009054906101000a900463ffffffff1663ffffffff1663ffffffff1681526020016000820160049054906101000a90047bffffffffffffffffffffffffffffffffffffffffffffffffffffffff167bffffffffffffffffffffffffffffffffffffffffffffffffffffffff167bffffffffffffffffffffffffffffffffffffffffffffffffffffffff1681525050905092915050565b61125b611a02565b600073ffffffffffffffffffffffffffffffffffffffff168173ffffffffffffffffffffffffffffffffffffffff1614156112cb576040517f08c379a00000000000000000000000000000000000000000000000000000000081526004016112c290613d05565b60405180910390fd5b6112d481611c09565b50565b60006020835110156112f3576112ec83611e85565b905061131c565b826112fd83611322565b6000019080519060200190611313929190612f00565b5060ff60001b90505b92915050565b6000819050919050565b600033905090565b600073ffffffffffffffffffffffffffffffffffffffff168373ffffffffffffffffffffffffffffffffffffffff1614156113a4576040517f08c379a000000000000000000000000000000000000000000000000000000000815260040161139b90613d97565b60405180910390fd5b600073ffffffffffffffffffffffffffffffffffffffff168273ffffffffffffffffffffffffffffffffffffffff161415611414576040517f08c379a000000000000000000000000000000000000000000000000000000000815260040161140b90613e29565b60405180910390fd5b80600160008573ffffffffffffffffffffffffffffffffffffffff1673ffffffffffffffffffffffffffffffffffffffff16815260200190815260200160002060008473ffffffffffffffffffffffffffffffffffffffff1673ffffffffffffffffffffffffffffffffffffffff168152602001908152602001600020819055508173ffffffffffffffffffffffffffffffffffffffff168373ffffffffffffffffffffffffffffffffffffffff167f8c5be1e5ebec7d5bd14f71427d1e84f3dd0314c0f7b2291e5b200ac8c7c3b925836040516114f2919061317c565b60405180910390a3505050565b600061150b84846110bc565b90507fffffffffffffffffffffffffffffffffffffffffffffffffffffffffffffffff81146115855781811015611577576040517f08c379a000000000000000000000000000000000000000000000000000000000815260040161156e90613e95565b60405180910390fd5b6115848484848403611334565b5b50505050565b600073ffffffffffffffffffffffffffffffffffffffff168373ffffffffffffffffffffffffffffffffffffffff1614156115fb576040517f08c379a00000000000000000000000000000000000000000000000000000000081526004016115f290613f27565b60405180910390fd5b600073ffffffffffffffffffffffffffffffffffffffff168273ffffffffffffffffffffffffffffffffffffffff16141561166b576040517f08c379a000000000000000000000000000000000000000000000000000000000815260040161166290613fb9565b60405180910390fd5b611676838383611eed565b60008060008573ffffffffffffffffffffffffffffffffffffffff1673ffffffffffffffffffffffffffffffffffffffff168152602001908152602001600020549050818110156116fc576040517f08c379a00000000000000000000000000000000000000000000000000000000081526004016116f39061404b565b60405180910390fd5b8181036000808673ffffffffffffffffffffffffffffffffffffffff1673ffffffffffffffffffffffffffffffffffffffff16815260200190815260200160002081905550816000808573ffffffffffffffffffffffffffffffffffffffff1673ffffffffffffffffffffffffffffffffffffffff168152602001908152602001600020600082825401925050819055508273ffffffffffffffffffffffffffffffffffffffff168473ffffffffffffffffffffffffffffffffffffffff167fddf252ad1be2c89b69c2b068fc378daa952ba7f163c4a11628f55a4df523b3ef846040516117ea919061317c565b60405180910390a36117fd848484611ef2565b50505050565b60007f000000000000000000000000000000000000000000000000000000000000000073ffffffffffffffffffffffffffffffffffffffff163073ffffffffffffffffffffffffffffffffffffffff1614801561187f57507f000000000000000000000000000000000000000000000000000000000000000046145b156118ac577f000000000000000000000000000000000000000000000000000000000000000090506118b7565b6118b4611f02565b90505b90565b6000808380549050905060008082905060058311156119305760006118de84611f98565b846118e9919061406b565b9050856118f68883612092565b60000160009054906101000a900463ffffffff1663ffffffff16111561191e5780915061192e565b60018161192b919061381f565b92505b505b5b8082101561199057600061194583836120a7565b9050856119528883612092565b60000160009054906101000a900463ffffffff1663ffffffff16111561197a5780915061198a565b600181611987919061381f565b92505b50611931565b600081146119d6576119a58660018303612092565b60000160049054906101000a90047bffffffffffffffffffffffffffffffffffffffffffffffffffffffff166119d9565b60005b7bffffffffffffffffffffffffffffffffffffffffffffffffffffffff16935050505092915050565b611a0a61132c565b73ffffffffffffffffffffffffffffffffffffffff16611a28610ba3565b73ffffffffffffffffffffffffffffffffffffffff1614611a7e576040517f08c379a0000000000000000000000000000000000000000000000000000000008152600401611a75906140eb565b60405180910390fd5b565b611a8a82826120cd565b5050565b611a98828261215a565b5050565b6000611aa783610904565b90506000611ab4846109d5565b905082600a60008673ffffffffffffffffffffffffffffffffffffffff1673ffffffffffffffffffffffffffffffffffffffff16815260200190815260200160002060006101000a81548173ffffffffffffffffffffffffffffffffffffffff021916908373ffffffffffffffffffffffffffffffffffffffff1602179055508273ffffffffffffffffffffffffffffffffffffffff168273ffffffffffffffffffffffffffffffffffffffff168573ffffffffffffffffffffffffffffffffffffffff167f3134e8a2e6d97e929a7e54011ea5485d7d196dd5f0ba4d4ef95803e8e3fc257f60405160405180910390a4611bb0828483612178565b50505050565b600063ffffffff8016821115611c01576040517f08c379a0000000000000000000000000000000000000000000000000000000008152600401611bf89061417d565b60405180910390fd5b819050919050565b6000600560009054906101000a900473ffffffffffffffffffffffffffffffffffffffff16905081600560006101000a81548173ffffffffffffffffffffffffffffffffffffffff021916908373ffffffffffffffffffffffffffffffffffffffff1602179055508173ffffffffffffffffffffffffffffffffffffffff168173ffffffffffffffffffffffffffffffffffffffff167f8be0079c531659141344cd1fd0a4f28419497f9722a3daafe3b4186f6b6457e060405160405180910390a35050565b600081600001549050919050565b606060ff60001b8314611cfa57611cf383612371565b9050611d87565b818054611d06906137be565b80601f0160208091040260200160405190810160405280929190818152602001828054611d32906137be565b8015611d7f5780601f10611d5457610100808354040283529160200191611d7f565b820191906000526020600020905b815481529060010190602001808311611d6257829003601f168201915b505050505090505b92915050565b600065ffffffffffff8016821115611dda576040517f08c379a0000000000000000000000000000000000000000000000000000000008152600401611dd19061420f565b60405180910390fd5b819050919050565b6000611df5611def611803565b836123e5565b9050919050565b6000806000611e0d87878787612426565b91509150611e1a81612509565b8192505050949350505050565b600080600860008473ffffffffffffffffffffffffffffffffffffffff1673ffffffffffffffffffffffffffffffffffffffff1681526020019081526020016000209050611e7481611ccf565b9150611e7f81612677565b50919050565b600080829050601f81511115611ed257826040517f305a27a9000000000000000000000000000000000000000000000000000000008152600401611ec9919061303c565b60405180910390fd5b805181611ede9061426c565b60001c1760001b915050919050565b505050565b611efd83838361268d565b505050565b60007f8b73c3c69bb8fe3d512ecc4cf759cc79239f7b179b0ffacaa9a75d522b39400f7f00000000000000000000000000000000000000000000000000000000000000007f00000000000000000000000000000000000000000000000000000000000000004630604051602001611f7d9594939291906142d3565b60405160208183030381529060405280519060200120905090565b600080821415611fab576000905061208d565b60006001611fb8846126b8565b901c6001901b90506001818481611fd257611fd1614326565b5b048201901c90506001818481611feb57611fea614326565b5b048201901c9050600181848161200457612003614326565b5b048201901c9050600181848161201d5761201c614326565b5b048201901c9050600181848161203657612035614326565b5b048201901c9050600181848161204f5761204e614326565b5b048201901c9050600181848161206857612067614326565b5b048201901c90506120898182858161208357612082614326565b5b04612799565b9150505b919050565b60008260005281602060002001905092915050565b600060028284186120b89190614355565b8284166120c5919061381f565b905092915050565b6120d782826127b2565b6120df612909565b7bffffffffffffffffffffffffffffffffffffffffffffffffffffffff16612105610721565b1115612146576040517f08c379a000000000000000000000000000000000000000000000000000000000815260040161213d906143f8565b60405180910390fd5b612154600c61292d83612943565b50505050565b6121648282612c1e565b612172600c612dec83612943565b50505050565b8173ffffffffffffffffffffffffffffffffffffffff168373ffffffffffffffffffffffffffffffffffffffff16141580156121b45750600081115b1561236c57600073ffffffffffffffffffffffffffffffffffffffff168373ffffffffffffffffffffffffffffffffffffffff16146122925760008061223b600b60008773ffffffffffffffffffffffffffffffffffffffff1673ffffffffffffffffffffffffffffffffffffffff168152602001908152602001600020612dec85612943565b915091508473ffffffffffffffffffffffffffffffffffffffff167fdec2bacdd2f05b59de34da9b523dff8be42e5e38e818c82fdb0bae774387a7248383604051612287929190614418565b60405180910390a250505b600073ffffffffffffffffffffffffffffffffffffffff168273ffffffffffffffffffffffffffffffffffffffff161461236b57600080612314600b60008673ffffffffffffffffffffffffffffffffffffffff1673ffffffffffffffffffffffffffffffffffffffff16815260200190815260200160002061292d85612943565b915091508373ffffffffffffffffffffffffffffffffffffffff167fdec2bacdd2f05b59de34da9b523dff8be42e5e38e818c82fdb0bae774387a7248383604051612360929190614418565b60405180910390a250505b5b505050565b6060600061237e83612e02565b90506000602067ffffffffffffffff81111561239d5761239c61394d565b5b6040519080825280601f01601f1916602001820160405280156123cf5781602001600182028036833780820191505090505b5090508181528360208201528092505050919050565b60006040517f190100000000000000000000000000000000000000000000000000000000000081528360028201528260228201526042812091505092915050565b6000807f7fffffffffffffffffffffffffffffff5d576e7357a4501ddfe92f46681b20a08360001c1115612461576000600391509150612500565b6000600187878787604051600081526020016040526040516124869493929190614441565b6020604051602081039080840390855afa1580156124a8573d6000803e3d6000fd5b505050602060405103519050600073ffffffffffffffffffffffffffffffffffffffff168173ffffffffffffffffffffffffffffffffffffffff1614156124f757600060019250925050612500565b80600092509250505b94509492505050565b6000600481111561251d5761251c614486565b5b8160048111156125305761252f614486565b5b141561253b57612674565b6001600481111561254f5761254e614486565b5b81600481111561256257612561614486565b5b14156125a3576040517f08c379a000000000000000000000000000000000000000000000000000000000815260040161259a90614501565b60405180910390fd5b600260048111156125b7576125b6614486565b5b8160048111156125ca576125c9614486565b5b141561260b576040517f08c379a00000000000000000000000000000000000000000000000000000000081526004016126029061456d565b60405180910390fd5b6003600481111561261f5761261e614486565b5b81600481111561263257612631614486565b5b1415612673576040517f08c379a000000000000000000000000000000000000000000000000000000000815260040161266a906145ff565b60405180910390fd5b5b50565b6001816000016000828254019250508190555050565b612698838383612e52565b6126b36126a484610904565b6126ad84610904565b83612178565b505050565b600080600090506000608084901c11156126da57608083901c92506080810190505b6000604084901c11156126f557604083901c92506040810190505b6000602084901c111561271057602083901c92506020810190505b6000601084901c111561272b57601083901c92506010810190505b6000600884901c111561274657600883901c92506008810190505b6000600484901c111561276157600483901c92506004810190505b6000600284901c111561277c57600283901c92506002810190505b6000600184901c1115612790576001810190505b80915050919050565b60008183106127a857816127aa565b825b905092915050565b600073ffffffffffffffffffffffffffffffffffffffff168273ffffffffffffffffffffffffffffffffffffffff161415612822576040517f08c379a00000000000000000000000000000000000000000000000000000000081526004016128199061466b565b60405180910390fd5b61282e60008383611eed565b8060026000828254612840919061381f565b92505081905550806000808473ffffffffffffffffffffffffffffffffffffffff1673ffffffffffffffffffffffffffffffffffffffff168152602001908152602001600020600082825401925050819055508173ffffffffffffffffffffffffffffffffffffffff16600073ffffffffffffffffffffffffffffffffffffffff167fddf252ad1be2c89b69c2b068fc378daa952ba7f163c4a11628f55a4df523b3ef836040516128f1919061317c565b60405180910390a361290560008383611ef2565b5050565b60007bffffffffffffffffffffffffffffffffffffffffffffffffffffffff905090565b6000818361293b919061381f565b905092915050565b6000806000858054905090506000808214612a09576129658760018403612092565b6040518060400160405290816000820160009054906101000a900463ffffffff1663ffffffff1663ffffffff1681526020016000820160049054906101000a90047bffffffffffffffffffffffffffffffffffffffffffffffffffffffff167bffffffffffffffffffffffffffffffffffffffffffffffffffffffff167bffffffffffffffffffffffffffffffffffffffffffffffffffffffff1681525050612a45565b6040518060400160405280600063ffffffff16815260200160007bffffffffffffffffffffffffffffffffffffffffffffffffffffffff168152505b905080602001517bffffffffffffffffffffffffffffffffffffffffffffffffffffffff169350612a7a84868863ffffffff16565b9250600082118015612aa45750612a8f610c32565b65ffffffffffff16816000015163ffffffff16145b15612b1557612ab283612e57565b612abf8860018503612092565b60000160046101000a8154817bffffffffffffffffffffffffffffffffffffffffffffffffffffffff02191690837bffffffffffffffffffffffffffffffffffffffffffffffffffffffff160217905550612c14565b866040518060400160405280612b39612b2c610c32565b65ffffffffffff16611bb6565b63ffffffff168152602001612b4d86612e57565b7bffffffffffffffffffffffffffffffffffffffffffffffffffffffff168152509080600181540180825580915050600190039060005260206000200160009091909190915060008201518160000160006101000a81548163ffffffff021916908363ffffffff16021790555060208201518160000160046101000a8154817bffffffffffffffffffffffffffffffffffffffffffffffffffffffff02191690837bffffffffffffffffffffffffffffffffffffffffffffffffffffffff16021790555050505b5050935093915050565b600073ffffffffffffffffffffffffffffffffffffffff168273ffffffffffffffffffffffffffffffffffffffff161415612c8e576040517f08c379a0000000000000000000000000000000000000000000000000000000008152600401612c85906146fd565b60405180910390fd5b612c9a82600083611eed565b60008060008473ffffffffffffffffffffffffffffffffffffffff1673ffffffffffffffffffffffffffffffffffffffff16815260200190815260200160002054905081811015612d20576040517f08c379a0000000000000000000000000000000000000000000000000000000008152600401612d179061478f565b60405180910390fd5b8181036000808573ffffffffffffffffffffffffffffffffffffffff1673ffffffffffffffffffffffffffffffffffffffff1681526020019081526020016000208190555081600260008282540392505081905550600073ffffffffffffffffffffffffffffffffffffffff168373ffffffffffffffffffffffffffffffffffffffff167fddf252ad1be2c89b69c2b068fc378daa952ba7f163c4a11628f55a4df523b3ef84604051612dd3919061317c565b60405180910390a3612de783600084611ef2565b505050565b60008183612dfa919061406b565b905092915050565b60008060ff8360001c169050601f811115612e49576040517fb3512b0c00000000000000000000000000000000000000000000000000000000815260040160405180910390fd5b80915050919050565b505050565b60007bffffffffffffffffffffffffffffffffffffffffffffffffffffffff8016821115612eba576040517f08c379a0000000000000000000000000000000000000000000000000000000008152600401612eb190614821565b60405180910390fd5b819050919050565b6040518060400160405280600063ffffffff16815260200160007bffffffffffffffffffffffffffffffffffffffffffffffffffffffff1681525090565b828054612f0c906137be565b90600052602060002090601f016020900481019282612f2e5760008555612f75565b82601f10612f4757805160ff1916838001178555612f75565b82800160010185558215612f75579182015b82811115612f74578251825591602001919060010190612f59565b5b509050612f829190612f86565b5090565b5b80821115612f9f576000816000905550600101612f87565b5090565b600081519050919050565b600082825260208201905092915050565b60005b83811015612fdd578082015181840152602081019050612fc2565b83811115612fec576000848401525b50505050565b6000601f19601f8301169050919050565b600061300e82612fa3565b6130188185612fae565b9350613028818560208601612fbf565b61303181612ff2565b840191505092915050565b600060208201905081810360008301526130568184613003565b905092915050565b600080fd5b600073ffffffffffffffffffffffffffffffffffffffff82169050919050565b600061308e82613063565b9050919050565b61309e81613083565b81146130a957600080fd5b50565b6000813590506130bb81613095565b92915050565b6000819050919050565b6130d4816130c1565b81146130df57600080fd5b50565b6000813590506130f1816130cb565b92915050565b6000806040838503121561310e5761310d61305e565b5b600061311c858286016130ac565b925050602061312d858286016130e2565b9150509250929050565b60008115159050919050565b61314c81613137565b82525050565b60006020820190506131676000830184613143565b92915050565b613176816130c1565b82525050565b6000602082019050613191600083018461316d565b92915050565b6000806000606084860312156131b0576131af61305e565b5b60006131be868287016130ac565b93505060206131cf868287016130ac565b92505060406131e0868287016130e2565b9150509250925092565b600060ff82169050919050565b613200816131ea565b82525050565b600060208201905061321b60008301846131f7565b92915050565b6000819050919050565b61323481613221565b82525050565b600060208201905061324f600083018461322b565b92915050565b60006020828403121561326b5761326a61305e565b5b6000613279848285016130e2565b91505092915050565b6000602082840312156132985761329761305e565b5b60006132a6848285016130ac565b91505092915050565b6132b881613083565b82525050565b60006020820190506132d360008301846132af565b92915050565b600063ffffffff82169050919050565b6132f2816132d9565b82525050565b600060208201905061330d60008301846132e9565b92915050565b60007fff0000000000000000000000000000000000000000000000000000000000000082169050919050565b61334881613313565b82525050565b600081519050919050565b600082825260208201905092915050565b6000819050602082019050919050565b613383816130c1565b82525050565b6000613395838361337a565b60208301905092915050565b6000602082019050919050565b60006133b98261334e565b6133c38185613359565b93506133ce8361336a565b8060005b838110156133ff5781516133e68882613389565b97506133f1836133a1565b9250506001810190506133d2565b5085935050505092915050565b600060e082019050613421600083018a61333f565b81810360208301526134338189613003565b905081810360408301526134478188613003565b9050613456606083018761316d565b61346360808301866132af565b61347060a083018561322b565b81810360c083015261348281846133ae565b905098975050505050505050565b600065ffffffffffff82169050919050565b6134ab81613490565b82525050565b60006020820190506134c660008301846134a2565b92915050565b6134d5816131ea565b81146134e057600080fd5b50565b6000813590506134f2816134cc565b92915050565b61350181613221565b811461350c57600080fd5b50565b60008135905061351e816134f8565b92915050565b60008060008060008060c087890312156135415761354061305e565b5b600061354f89828a016130ac565b965050602061356089828a016130e2565b955050604061357189828a016130e2565b945050606061358289828a016134e3565b935050608061359389828a0161350f565b92505060a06135a489828a0161350f565b9150509295509295509295565b600080600080600080600060e0888a0312156135d0576135cf61305e565b5b60006135de8a828b016130ac565b97505060206135ef8a828b016130ac565b96505060406136008a828b016130e2565b95505060606136118a828b016130e2565b94505060806136228a828b016134e3565b93505060a06136338a828b0161350f565b92505060c06136448a828b0161350f565b91505092959891949750929550565b6000806040838503121561366a5761366961305e565b5b6000613678858286016130ac565b9250506020613689858286016130ac565b9150509250929050565b61369c816132d9565b81146136a757600080fd5b50565b6000813590506136b981613693565b92915050565b600080604083850312156136d6576136d561305e565b5b60006136e4858286016130ac565b92505060206136f5858286016136aa565b9150509250929050565b613708816132d9565b82525050565b60007bffffffffffffffffffffffffffffffffffffffffffffffffffffffff82169050919050565b61373f8161370e565b82525050565b60408201600082015161375b60008501826136ff565b50602082015161376e6020850182613736565b50505050565b60006040820190506137896000830184613745565b92915050565b7f4e487b7100000000000000000000000000000000000000000000000000000000600052602260045260246000fd5b600060028204905060018216806137d657607f821691505b602082108114156137ea576137e961378f565b5b50919050565b7f4e487b7100000000000000000000000000000000000000000000000000000000600052601160045260246000fd5b600061382a826130c1565b9150613835836130c1565b9250827fffffffffffffffffffffffffffffffffffffffffffffffffffffffffffffffff0382111561386a576138696137f0565b5b828201905092915050565b7f4552433230566f7465733a20667574757265206c6f6f6b757000000000000000600082015250565b60006138ab601983612fae565b91506138b682613875565b602082019050919050565b600060208201905081810360008301526138da8161389e565b9050919050565b7f4552433230566f7465733a2062726f6b656e20636c6f636b206d6f6465000000600082015250565b6000613917601d83612fae565b9150613922826138e1565b602082019050919050565b600060208201905081810360008301526139468161390a565b9050919050565b7f4e487b7100000000000000000000000000000000000000000000000000000000600052604160045260246000fd5b7f4e487b7100000000000000000000000000000000000000000000000000000000600052603260045260246000fd5b7f45524332303a2064656372656173656420616c6c6f77616e63652062656c6f7760008201527f207a65726f000000000000000000000000000000000000000000000000000000602082015250565b6000613a07602583612fae565b9150613a12826139ab565b604082019050919050565b60006020820190508181036000830152613a36816139fa565b9050919050565b7f4552433230566f7465733a207369676e61747572652065787069726564000000600082015250565b6000613a73601d83612fae565b9150613a7e82613a3d565b602082019050919050565b60006020820190508181036000830152613aa281613a66565b9050919050565b6000608082019050613abe600083018761322b565b613acb60208301866132af565b613ad8604083018561316d565b613ae5606083018461316d565b95945050505050565b7f4552433230566f7465733a20696e76616c6964206e6f6e636500000000000000600082015250565b6000613b24601983612fae565b9150613b2f82613aee565b602082019050919050565b60006020820190508181036000830152613b5381613b17565b9050919050565b7f45524332305065726d69743a206578706972656420646561646c696e65000000600082015250565b6000613b90601d83612fae565b9150613b9b82613b5a565b602082019050919050565b60006020820190508181036000830152613bbf81613b83565b9050919050565b600060c082019050613bdb600083018961322b565b613be860208301886132af565b613bf560408301876132af565b613c02606083018661316d565b613c0f608083018561316d565b613c1c60a083018461316d565b979650505050505050565b7f45524332305065726d69743a20696e76616c6964207369676e61747572650000600082015250565b6000613c5d601e83612fae565b9150613c6882613c27565b602082019050919050565b60006020820190508181036000830152613c8c81613c50565b9050919050565b7f4f776e61626c653a206e6577206f776e657220697320746865207a65726f206160008201527f6464726573730000000000000000000000000000000000000000000000000000602082015250565b6000613cef602683612fae565b9150613cfa82613c93565b604082019050919050565b60006020820190508181036000830152613d1e81613ce2565b9050919050565b7f45524332303a20617070726f76652066726f6d20746865207a65726f2061646460008201527f7265737300000000000000000000000000000000000000000000000000000000602082015250565b6000613d81602483612fae565b9150613d8c82613d25565b604082019050919050565b60006020820190508181036000830152613db081613d74565b9050919050565b7f45524332303a20617070726f766520746f20746865207a65726f20616464726560008201527f7373000000000000000000000000000000000000000000000000000000000000602082015250565b6000613e13602283612fae565b9150613e1e82613db7565b604082019050919050565b60006020820190508181036000830152613e4281613e06565b9050919050565b7f45524332303a20696e73756666696369656e7420616c6c6f77616e6365000000600082015250565b6000613e7f601d83612fae565b9150613e8a82613e49565b602082019050919050565b60006020820190508181036000830152613eae81613e72565b9050919050565b7f45524332303a207472616e736665722066726f6d20746865207a65726f20616460008201527f6472657373000000000000000000000000000000000000000000000000000000602082015250565b6000613f11602583612fae565b9150613f1c82613eb5565b604082019050919050565b60006020820190508181036000830152613f4081613f04565b9050919050565b7f45524332303a207472616e7366657220746f20746865207a65726f206164647260008201527f6573730000000000000000000000000000000000000000000000000000000000602082015250565b6000613fa3602383612fae565b9150613fae82613f47565b604082019050919050565b60006020820190508181036000830152613fd281613f96565b9050919050565b7f45524332303a207472616e7366657220616d6f756e742065786365656473206260008201527f616c616e63650000000000000000000000000000000000000000000000000000602082015250565b6000614035602683612fae565b915061404082613fd9565b604082019050919050565b6000602082019050818103600083015261406481614028565b9050919050565b6000614076826130c1565b9150614081836130c1565b925082821015614094576140936137f0565b5b828203905092915050565b7f4f776e61626c653a2063616c6c6572206973206e6f7420746865206f776e6572600082015250565b60006140d5602083612fae565b91506140e08261409f565b602082019050919050565b60006020820190508181036000830152614104816140c8565b9050919050565b7f53616665436173743a2076616c756520646f65736e27742066697420696e203360008201527f3220626974730000000000000000000000000000000000000000000000000000602082015250565b6000614167602683612fae565b91506141728261410b565b604082019050919050565b600060208201905081810360008301526141968161415a565b9050919050565b7f53616665436173743a2076616c756520646f65736e27742066697420696e203460008201527f3820626974730000000000000000000000000000000000000000000000000000602082015250565b60006141f9602683612fae565b91506142048261419d565b604082019050919050565b60006020820190508181036000830152614228816141ec565b9050919050565b600081519050919050565b6000819050602082019050919050565b60006142568251613221565b80915050919050565b600082821b905092915050565b60006142778261422f565b826142818461423a565b905061428c8161424a565b925060208210156142cc576142c77fffffffffffffffffffffffffffffffffffffffffffffffffffffffffffffffff8360200360080261425f565b831692505b5050919050565b600060a0820190506142e8600083018861322b565b6142f5602083018761322b565b614302604083018661322b565b61430f606083018561316d565b61431c60808301846132af565b9695505050505050565b7f4e487b7100000000000000000000000000000000000000000000000000000000600052601260045260246000fd5b6000614360826130c1565b915061436b836130c1565b92508261437b5761437a614326565b5b828204905092915050565b7f4552433230566f7465733a20746f74616c20737570706c79207269736b73206f60008201527f766572666c6f77696e6720766f74657300000000000000000000000000000000602082015250565b60006143e2603083612fae565b91506143ed82614386565b604082019050919050565b60006020820190508181036000830152614411816143d5565b9050919050565b600060408201905061442d600083018561316d565b61443a602083018461316d565b9392505050565b6000608082019050614456600083018761322b565b61446360208301866131f7565b614470604083018561322b565b61447d606083018461322b565b95945050505050565b7f4e487b7100000000000000000000000000000000000000000000000000000000600052602160045260246000fd5b7f45434453413a20696e76616c6964207369676e61747572650000000000000000600082015250565b60006144eb601883612fae565b91506144f6826144b5565b602082019050919050565b6000602082019050818103600083015261451a816144de565b9050919050565b7f45434453413a20696e76616c6964207369676e6174757265206c656e67746800600082015250565b6000614557601f83612fae565b915061456282614521565b602082019050919050565b600060208201905081810360008301526145868161454a565b9050919050565b7f45434453413a20696e76616c6964207369676e6174757265202773272076616c60008201527f7565000000000000000000000000000000000000000000000000000000000000602082015250565b60006145e9602283612fae565b91506145f48261458d565b604082019050919050565b60006020820190508181036000830152614618816145dc565b9050919050565b7f45524332303a206d696e7420746f20746865207a65726f206164647265737300600082015250565b6000614655601f83612fae565b91506146608261461f565b602082019050919050565b6000602082019050818103600083015261468481614648565b9050919050565b7f45524332303a206275726e2066726f6d20746865207a65726f2061646472657360008201527f7300000000000000000000000000000000000000000000000000000000000000602082015250565b60006146e7602183612fae565b91506146f28261468b565b604082019050919050565b60006020820190508181036000830152614716816146da565b9050919050565b7f45524332303a206275726e20616d6f756e7420657863656564732062616c616e60008201527f6365000000000000000000000000000000000000000000000000000000000000602082015250565b6000614779602283612fae565b91506147848261471d565b604082019050919050565b600060208201905081810360008301526147a88161476c565b9050919050565b7f53616665436173743a2076616c756520646f65736e27742066697420696e203260008201527f3234206269747300000000000000000000000000000000000000000000000000602082015250565b600061480b602783612fae565b9150614816826147af565b604082019050919050565b6000602082019050818103600083015261483a816147fe565b905091905056fea2646970667358221220c7dbe0afb354a6d70fb9308f80a9d657bbdc3099591f5f47888af11dee74d0c964736f6c6343000809003360806040523480156200001157600080fd5b506040518060400160405280600b81526020017f65786368616e67654e46540000000000000000000000000000000000000000008152506040518060400160405280600581526020017f65784e4654000000000000000000000000000000000000000000000000000000815250816000908051906020019062000096929190620001a6565b508060019080519060200190620000af929190620001a6565b505050620000d2620000c6620000d860201b60201c565b620000e060201b60201c565b620002bb565b600033905090565b6000600b60009054906101000a900473ffffffffffffffffffffffffffffffffffffffff16905081600b60006101000a81548173ffffffffffffffffffffffffffffffffffffffff021916908373ffffffffffffffffffffffffffffffffffffffff1602179055508173ffffffffffffffffffffffffffffffffffffffff168173ffffffffffffffffffffffffffffffffffffffff167f8be0079c531659141344cd1fd0a4f28419497f9722a3daafe3b4186f6b6457e060405160405180910390a35050565b828054620001b49062000285565b90600052602060002090601f016020900481019282620001d8576000855562000224565b82601f10620001f357805160ff191683800117855562000224565b8280016001018555821562000224579182015b828111156200022357825182559160200191906001019062000206565b5b50905062000233919062000237565b5090565b5b808211156200025257600081600090555060010162000238565b5090565b7f4e487b7100000000000000000000000000000000000000000000000000000000600052602260045260246000fd5b600060028204905060018216806200029e57607f821691505b60208210811415620002b557620002b462000256565b5b50919050565b6138bd80620002cb6000396000f3fe608060405234801561001057600080fd5b50600436106101375760003560e01c80636352211e116100b8578063a22cb4651161007c578063a22cb4651461034e578063b88d4fde1461036a578063c87b56dd14610386578063d204c45e146103b6578063e985e9c5146103d2578063f2fde38b1461040257610137565b80636352211e146102a857806370a08231146102d8578063715018a6146103085780638da5cb5b1461031257806395d89b411461033057610137565b806323b872dd116100ff57806323b872dd146101f45780632f745c591461021057806342842e0e1461024057806342966c681461025c5780634f6ccce71461027857610137565b806301ffc9a71461013c57806306fdde031461016c578063081812fc1461018a578063095ea7b3146101ba57806318160ddd146101d6575b600080fd5b610156600480360381019061015191906126ab565b61041e565b60405161016391906126f3565b60405180910390f35b610174610430565b60405161018191906127a7565b60405180910390f35b6101a4600480360381019061019f91906127ff565b6104c2565b6040516101b1919061286d565b60405180910390f35b6101d460048036038101906101cf91906128b4565b610508565b005b6101de610620565b6040516101eb9190612903565b60405180910390f35b61020e6004803603810190610209919061291e565b61062d565b005b61022a600480360381019061022591906128b4565b61068d565b6040516102379190612903565b60405180910390f35b61025a6004803603810190610255919061291e565b610732565b005b610276600480360381019061027191906127ff565b610752565b005b610292600480360381019061028d91906127ff565b6107ae565b60405161029f9190612903565b60405180910390f35b6102c260048036038101906102bd91906127ff565b61081f565b6040516102cf919061286d565b60405180910390f35b6102f260048036038101906102ed9190612971565b6108a6565b6040516102ff9190612903565b60405180910390f35b61031061095e565b005b61031a610972565b604051610327919061286d565b60405180910390f35b61033861099c565b60405161034591906127a7565b60405180910390f35b610368600480360381019061036391906129ca565b610a2e565b005b610384600480360381019061037f9190612b3f565b610a44565b005b6103a0600480360381019061039b91906127ff565b610aa6565b6040516103ad91906127a7565b60405180910390f35b6103d060048036038101906103cb9190612c63565b610ab8565b005b6103ec60048036038101906103e79190612cbf565b610ae9565b6040516103f991906126f3565b60405180910390f35b61041c60048036038101906104179190612971565b610b7d565b005b600061042982610c01565b9050919050565b60606000805461043f90612d2e565b80601f016020809104026020016040519081016040528092919081815260200182805461046b90612d2e565b80156104b85780601f1061048d576101008083540402835291602001916104b8565b820191906000526020600020905b81548152906001019060200180831161049b57829003601f168201915b5050505050905090565b60006104cd82610c62565b6004600083815260200190815260200160002060009054906101000a900473ffffffffffffffffffffffffffffffffffffffff169050919050565b60006105138261081f565b90508073ffffffffffffffffffffffffffffffffffffffff168373ffffffffffffffffffffffffffffffffffffffff161415610584576040517f08c379a000000000000000000000000000000000000000000000000000000000815260040161057b90612dd2565b60405180910390fd5b8073ffffffffffffffffffffffffffffffffffffffff166105a3610cad565b73ffffffffffffffffffffffffffffffffffffffff1614806105d257506105d1816105cc610cad565b610ae9565b5b610611576040517f08c379a000000000000000000000000000000000000000000000000000000000815260040161060890612e64565b60405180910390fd5b61061b8383610cb5565b505050565b6000600880549050905090565b61063e610638610cad565b82610d6e565b61067d576040517f08c379a000000000000000000000000000000000000000000000000000000000815260040161067490612ef6565b60405180910390fd5b610688838383610e03565b505050565b6000610698836108a6565b82106106d9576040517f08c379a00000000000000000000000000000000000000000000000000000000081526004016106d090612f88565b60405180910390fd5b600660008473ffffffffffffffffffffffffffffffffffffffff1673ffffffffffffffffffffffffffffffffffffffff168152602001908152602001600020600083815260200190815260200160002054905092915050565b61074d83838360405180602001604052806000815250610a44565b505050565b61076361075d610cad565b82610d6e565b6107a2576040517f08c379a000000000000000000000000000000000000000000000000000000000815260040161079990612ef6565b60405180910390fd5b6107ab816110fd565b50565b60006107b8610620565b82106107f9576040517f08c379a00000000000000000000000000000000000000000000000000000000081526004016107f09061301a565b60405180910390fd5b6008828154811061080d5761080c61303a565b5b90600052602060002001549050919050565b60008061082b83611109565b9050600073ffffffffffffffffffffffffffffffffffffffff168173ffffffffffffffffffffffffffffffffffffffff16141561089d576040517f08c379a0000000000000000000000000000000000000000000000000000000008152600401610894906130b5565b60405180910390fd5b80915050919050565b60008073ffffffffffffffffffffffffffffffffffffffff168273ffffffffffffffffffffffffffffffffffffffff161415610917576040517f08c379a000000000000000000000000000000000000000000000000000000000815260040161090e90613147565b60405180910390fd5b600360008373ffffffffffffffffffffffffffffffffffffffff1673ffffffffffffffffffffffffffffffffffffffff168152602001908152602001600020549050919050565b610966611146565b61097060006111c4565b565b6000600b60009054906101000a900473ffffffffffffffffffffffffffffffffffffffff16905090565b6060600180546109ab90612d2e565b80601f01602080910402602001604051908101604052809291908181526020018280546109d790612d2e565b8015610a245780601f106109f957610100808354040283529160200191610a24565b820191906000526020600020905b815481529060010190602001808311610a0757829003601f168201915b5050505050905090565b610a40610a39610cad565b838361128a565b5050565b610a55610a4f610cad565b83610d6e565b610a94576040517f08c379a0000000000000000000000000000000000000000000000000000000008152600401610a8b90612ef6565b60405180910390fd5b610aa0848484846113f7565b50505050565b6060610ab182611453565b9050919050565b6000610ac4600c611566565b9050610ad0600c611574565b610ada838261158a565b610ae481836115a8565b505050565b6000600560008473ffffffffffffffffffffffffffffffffffffffff1673ffffffffffffffffffffffffffffffffffffffff16815260200190815260200160002060008373ffffffffffffffffffffffffffffffffffffffff1673ffffffffffffffffffffffffffffffffffffffff16815260200190815260200160002060009054906101000a900460ff16905092915050565b610b85611146565b600073ffffffffffffffffffffffffffffffffffffffff168173ffffffffffffffffffffffffffffffffffffffff161415610bf5576040517f08c379a0000000000000000000000000000000000000000000000000000000008152600401610bec906131d9565b60405180910390fd5b610bfe816111c4565b50565b6000634906490660e01b7bffffffffffffffffffffffffffffffffffffffffffffffffffffffff1916827bffffffffffffffffffffffffffffffffffffffffffffffffffffffff19161480610c5b5750610c5a82611653565b5b9050919050565b610c6b816116cd565b610caa576040517f08c379a0000000000000000000000000000000000000000000000000000000008152600401610ca1906130b5565b60405180910390fd5b50565b600033905090565b816004600083815260200190815260200160002060006101000a81548173ffffffffffffffffffffffffffffffffffffffff021916908373ffffffffffffffffffffffffffffffffffffffff160217905550808273ffffffffffffffffffffffffffffffffffffffff16610d288361081f565b73ffffffffffffffffffffffffffffffffffffffff167f8c5be1e5ebec7d5bd14f71427d1e84f3dd0314c0f7b2291e5b200ac8c7c3b92560405160405180910390a45050565b600080610d7a8361081f565b90508073ffffffffffffffffffffffffffffffffffffffff168473ffffffffffffffffffffffffffffffffffffffff161480610dbc5750610dbb8185610ae9565b5b80610dfa57508373ffffffffffffffffffffffffffffffffffffffff16610de2846104c2565b73ffffffffffffffffffffffffffffffffffffffff16145b91505092915050565b8273ffffffffffffffffffffffffffffffffffffffff16610e238261081f565b73ffffffffffffffffffffffffffffffffffffffff1614610e79576040517f08c379a0000000000000000000000000000000000000000000000000000000008152600401610e709061326b565b60405180910390fd5b600073ffffffffffffffffffffffffffffffffffffffff168273ffffffffffffffffffffffffffffffffffffffff161415610ee9576040517f08c379a0000000000000000000000000000000000000000000000000000000008152600401610ee0906132fd565b60405180910390fd5b610ef6838383600161170e565b8273ffffffffffffffffffffffffffffffffffffffff16610f168261081f565b73ffffffffffffffffffffffffffffffffffffffff1614610f6c576040517f08c379a0000000000000000000000000000000000000000000000000000000008152600401610f639061326b565b60405180910390fd5b6004600082815260200190815260200160002060006101000a81549073ffffffffffffffffffffffffffffffffffffffff02191690556001600360008573ffffffffffffffffffffffffffffffffffffffff1673ffffffffffffffffffffffffffffffffffffffff168152602001908152602001600020600082825403925050819055506001600360008473ffffffffffffffffffffffffffffffffffffffff1673ffffffffffffffffffffffffffffffffffffffff16815260200190815260200160002060008282540192505081905550816002600083815260200190815260200160002060006101000a81548173ffffffffffffffffffffffffffffffffffffffff021916908373ffffffffffffffffffffffffffffffffffffffff160217905550808273ffffffffffffffffffffffffffffffffffffffff168473ffffffffffffffffffffffffffffffffffffffff167fddf252ad1be2c89b69c2b068fc378daa952ba7f163c4a11628f55a4df523b3ef60405160405180910390a46110f88383836001611720565b505050565b61110681611726565b50565b60006002600083815260200190815260200160002060009054906101000a900473ffffffffffffffffffffffffffffffffffffffff169050919050565b61114e610cad565b73ffffffffffffffffffffffffffffffffffffffff1661116c610972565b73ffffffffffffffffffffffffffffffffffffffff16146111c2576040517f08c379a00000000000000000000000000000000000000000000000000000000081526004016111b990613369565b60405180910390fd5b565b6000600b60009054906101000a900473ffffffffffffffffffffffffffffffffffffffff16905081600b60006101000a81548173ffffffffffffffffffffffffffffffffffffffff021916908373ffffffffffffffffffffffffffffffffffffffff1602179055508173ffffffffffffffffffffffffffffffffffffffff168173ffffffffffffffffffffffffffffffffffffffff167f8be0079c531659141344cd1fd0a4f28419497f9722a3daafe3b4186f6b6457e060405160405180910390a35050565b8173ffffffffffffffffffffffffffffffffffffffff168373ffffffffffffffffffffffffffffffffffffffff1614156112f9576040517f08c379a00000000000000000000000000000000000000000000000000000000081526004016112f0906133d5565b60405180910390fd5b80600560008573ffffffffffffffffffffffffffffffffffffffff1673ffffffffffffffffffffffffffffffffffffffff16815260200190815260200160002060008473ffffffffffffffffffffffffffffffffffffffff1673ffffffffffffffffffffffffffffffffffffffff16815260200190815260200160002060006101000a81548160ff0219169083151502179055508173ffffffffffffffffffffffffffffffffffffffff168373ffffffffffffffffffffffffffffffffffffffff167f17307eab39ab6107e8899845ad3d59bd9653f200f220920489ca2b5937696c31836040516113ea91906126f3565b60405180910390a3505050565b611402848484610e03565b61140e84848484611779565b61144d576040517f08c379a000000000000000000000000000000000000000000000000000000000815260040161144490613467565b60405180910390fd5b50505050565b606061145e82610c62565b6000600a6000848152602001908152602001600020805461147e90612d2e565b80601f01602080910402602001604051908101604052809291908181526020018280546114aa90612d2e565b80156114f75780601f106114cc576101008083540402835291602001916114f7565b820191906000526020600020905b8154815290600101906020018083116114da57829003601f168201915b505050505090506000611508611910565b905060008151141561151e578192505050611561565b60008251111561155357808260405160200161153b9291906134c3565b60405160208183030381529060405292505050611561565b61155c84611927565b925050505b919050565b600081600001549050919050565b6001816000016000828254019250508190555050565b6115a482826040518060200160405280600081525061198f565b5050565b6115b1826116cd565b6115f0576040517f08c379a00000000000000000000000000000000000000000000000000000000081526004016115e790613559565b60405180910390fd5b80600a6000848152602001908152602001600020908051906020019061161792919061255c565b507ff8e1a15aba9398e019f0b49df1a4fde98ee17ae345cb5f6b5e2c27f5033e8ce7826040516116479190612903565b60405180910390a15050565b60007f780e9d63000000000000000000000000000000000000000000000000000000007bffffffffffffffffffffffffffffffffffffffffffffffffffffffff1916827bffffffffffffffffffffffffffffffffffffffffffffffffffffffff191614806116c657506116c5826119ea565b5b9050919050565b60008073ffffffffffffffffffffffffffffffffffffffff166116ef83611109565b73ffffffffffffffffffffffffffffffffffffffff1614159050919050565b61171a84848484611acc565b50505050565b50505050565b61172f81611c2c565b6000600a6000838152602001908152602001600020805461174f90612d2e565b90501461177657600a6000828152602001908152602001600020600061177591906125e2565b5b50565b600061179a8473ffffffffffffffffffffffffffffffffffffffff16611d7a565b15611903578373ffffffffffffffffffffffffffffffffffffffff1663150b7a026117c3610cad565b8786866040518563ffffffff1660e01b81526004016117e594939291906135ce565b602060405180830381600087803b1580156117ff57600080fd5b505af192505050801561183057506040513d601f19601f8201168201806040525081019061182d919061362f565b60015b6118b3573d8060008114611860576040519150601f19603f3d011682016040523d82523d6000602084013e611865565b606091505b506000815114156118ab576040517f08c379a00000000000000000000000000000000000000000000000000000000081526004016118a290613467565b60405180910390fd5b805181602001fd5b63150b7a0260e01b7bffffffffffffffffffffffffffffffffffffffffffffffffffffffff1916817bffffffffffffffffffffffffffffffffffffffffffffffffffffffff191614915050611908565b600190505b949350505050565b606060405180602001604052806000815250905090565b606061193282610c62565b600061193c611910565b9050600081511161195c5760405180602001604052806000815250611987565b8061196684611d9d565b6040516020016119779291906134c3565b6040516020818303038152906040525b915050919050565b6119998383611e75565b6119a66000848484611779565b6119e5576040517f08c379a00000000000000000000000000000000000000000000000000000000081526004016119dc90613467565b60405180910390fd5b505050565b60007f80ac58cd000000000000000000000000000000000000000000000000000000007bffffffffffffffffffffffffffffffffffffffffffffffffffffffff1916827bffffffffffffffffffffffffffffffffffffffffffffffffffffffff19161480611ab557507f5b5e139f000000000000000000000000000000000000000000000000000000007bffffffffffffffffffffffffffffffffffffffffffffffffffffffff1916827bffffffffffffffffffffffffffffffffffffffffffffffffffffffff1916145b80611ac55750611ac482612093565b5b9050919050565b611ad8848484846120fd565b6001811115611b1c576040517f08c379a0000000000000000000000000000000000000000000000000000000008152600401611b13906136ce565b60405180910390fd5b6000829050600073ffffffffffffffffffffffffffffffffffffffff168573ffffffffffffffffffffffffffffffffffffffff161415611b6457611b5f81612103565b611ba3565b8373ffffffffffffffffffffffffffffffffffffffff168573ffffffffffffffffffffffffffffffffffffffff1614611ba257611ba1858261214c565b5b5b600073ffffffffffffffffffffffffffffffffffffffff168473ffffffffffffffffffffffffffffffffffffffff161415611be657611be1816122b9565b611c25565b8473ffffffffffffffffffffffffffffffffffffffff168473ffffffffffffffffffffffffffffffffffffffff1614611c2457611c23848261238a565b5b5b5050505050565b6000611c378261081f565b9050611c4781600084600161170e565b611c508261081f565b90506004600083815260200190815260200160002060006101000a81549073ffffffffffffffffffffffffffffffffffffffff02191690556001600360008373ffffffffffffffffffffffffffffffffffffffff1673ffffffffffffffffffffffffffffffffffffffff168152602001908152602001600020600082825403925050819055506002600083815260200190815260200160002060006101000a81549073ffffffffffffffffffffffffffffffffffffffff021916905581600073ffffffffffffffffffffffffffffffffffffffff168273ffffffffffffffffffffffffffffffffffffffff167fddf252ad1be2c89b69c2b068fc378daa952ba7f163c4a11628f55a4df523b3ef60405160405180910390a4611d76816000846001611720565b5050565b6000808273ffffffffffffffffffffffffffffffffffffffff163b119050919050565b606060006001611dac84612409565b01905060008167ffffffffffffffff811115611dcb57611dca612a14565b5b6040519080825280601f01601f191660200182016040528015611dfd5781602001600182028036833780820191505090505b509050600082602001820190505b600115611e6a578080600190039150507f3031323334353637383961626364656600000000000000000000000000000000600a86061a8153600a8581611e5457611e536136ee565b5b0494506000851415611e6557611e6a565b611e0b565b819350505050919050565b600073ffffffffffffffffffffffffffffffffffffffff168273ffffffffffffffffffffffffffffffffffffffff161415611ee5576040517f08c379a0000000000000000000000000000000000000000000000000000000008152600401611edc90613769565b60405180910390fd5b611eee816116cd565b15611f2e576040517f08c379a0000000000000000000000000000000000000000000000000000000008152600401611f25906137d5565b60405180910390fd5b611f3c60008383600161170e565b611f45816116cd565b15611f85576040517f08c379a0000000000000000000000000000000000000000000000000000000008152600401611f7c906137d5565b60405180910390fd5b6001600360008473ffffffffffffffffffffffffffffffffffffffff1673ffffffffffffffffffffffffffffffffffffffff16815260200190815260200160002060008282540192505081905550816002600083815260200190815260200160002060006101000a81548173ffffffffffffffffffffffffffffffffffffffff021916908373ffffffffffffffffffffffffffffffffffffffff160217905550808273ffffffffffffffffffffffffffffffffffffffff16600073ffffffffffffffffffffffffffffffffffffffff167fddf252ad1be2c89b69c2b068fc378daa952ba7f163c4a11628f55a4df523b3ef60405160405180910390a461208f600083836001611720565b5050565b60007f01ffc9a7000000000000000000000000000000000000000000000000000000007bffffffffffffffffffffffffffffffffffffffffffffffffffffffff1916827bffffffffffffffffffffffffffffffffffffffffffffffffffffffff1916149050919050565b50505050565b6008805490506009600083815260200190815260200160002081905550600881908060018154018082558091505060019003906000526020600020016000909190919091505550565b60006001612159846108a6565b6121639190613824565b9050600060076000848152602001908152602001600020549050818114612248576000600660008673ffffffffffffffffffffffffffffffffffffffff1673ffffffffffffffffffffffffffffffffffffffff168152602001908152602001600020600084815260200190815260200160002054905080600660008773ffffffffffffffffffffffffffffffffffffffff1673ffffffffffffffffffffffffffffffffffffffff168152602001908152602001600020600084815260200190815260200160002081905550816007600083815260200190815260200160002081905550505b6007600084815260200190815260200160002060009055600660008573ffffffffffffffffffffffffffffffffffffffff1673ffffffffffffffffffffffffffffffffffffffff16815260200190815260200160002060008381526020019081526020016000206000905550505050565b600060016008805490506122cd9190613824565b90506000600960008481526020019081526020016000205490506000600883815481106122fd576122fc61303a565b5b90600052602060002001549050806008838154811061231f5761231e61303a565b5b90600052602060002001819055508160096000838152602001908152602001600020819055506009600085815260200190815260200160002060009055600880548061236e5761236d613858565b5b6001900381819060005260206000200160009055905550505050565b6000612395836108a6565b905081600660008573ffffffffffffffffffffffffffffffffffffffff1673ffffffffffffffffffffffffffffffffffffffff168152602001908152602001600020600083815260200190815260200160002081905550806007600084815260200190815260200160002081905550505050565b600080600090507a184f03e93ff9f4daa797ed6e38ed64bf6a1f0100000000000000008310612467577a184f03e93ff9f4daa797ed6e38ed64bf6a1f010000000000000000838161245d5761245c6136ee565b5b0492506040810190505b6d04ee2d6d415b85acef810000000083106124a4576d04ee2d6d415b85acef8100000000838161249a576124996136ee565b5b0492506020810190505b662386f26fc1000083106124d357662386f26fc1000083816124c9576124c86136ee565b5b0492506010810190505b6305f5e10083106124fc576305f5e10083816124f2576124f16136ee565b5b0492506008810190505b6127108310612521576127108381612517576125166136ee565b5b0492506004810190505b60648310612544576064838161253a576125396136ee565b5b0492506002810190505b600a8310612553576001810190505b80915050919050565b82805461256890612d2e565b90600052602060002090601f01602090048101928261258a57600085556125d1565b82601f106125a357805160ff19168380011785556125d1565b828001600101855582156125d1579182015b828111156125d05782518255916020019190600101906125b5565b5b5090506125de9190612622565b5090565b5080546125ee90612d2e565b6000825580601f10612600575061261f565b601f01602090049060005260206000209081019061261e9190612622565b5b50565b5b8082111561263b576000816000905550600101612623565b5090565b6000604051905090565b600080fd5b600080fd5b60007fffffffff0000000000000000000000000000000000000000000000000000000082169050919050565b61268881612653565b811461269357600080fd5b50565b6000813590506126a58161267f565b92915050565b6000602082840312156126c1576126c0612649565b5b60006126cf84828501612696565b91505092915050565b60008115159050919050565b6126ed816126d8565b82525050565b600060208201905061270860008301846126e4565b92915050565b600081519050919050565b600082825260208201905092915050565b60005b8381101561274857808201518184015260208101905061272d565b83811115612757576000848401525b50505050565b6000601f19601f8301169050919050565b60006127798261270e565b6127838185612719565b935061279381856020860161272a565b61279c8161275d565b840191505092915050565b600060208201905081810360008301526127c1818461276e565b905092915050565b6000819050919050565b6127dc816127c9565b81146127e757600080fd5b50565b6000813590506127f9816127d3565b92915050565b60006020828403121561281557612814612649565b5b6000612823848285016127ea565b91505092915050565b600073ffffffffffffffffffffffffffffffffffffffff82169050919050565b60006128578261282c565b9050919050565b6128678161284c565b82525050565b6000602082019050612882600083018461285e565b92915050565b6128918161284c565b811461289c57600080fd5b50565b6000813590506128ae81612888565b92915050565b600080604083850312156128cb576128ca612649565b5b60006128d98582860161289f565b92505060206128ea858286016127ea565b9150509250929050565b6128fd816127c9565b82525050565b600060208201905061291860008301846128f4565b92915050565b60008060006060848603121561293757612936612649565b5b60006129458682870161289f565b93505060206129568682870161289f565b9250506040612967868287016127ea565b9150509250925092565b60006020828403121561298757612986612649565b5b60006129958482850161289f565b91505092915050565b6129a7816126d8565b81146129b257600080fd5b50565b6000813590506129c48161299e565b92915050565b600080604083850312156129e1576129e0612649565b5b60006129ef8582860161289f565b9250506020612a00858286016129b5565b9150509250929050565b600080fd5b600080fd5b7f4e487b7100000000000000000000000000000000000000000000000000000000600052604160045260246000fd5b612a4c8261275d565b810181811067ffffffffffffffff82111715612a6b57612a6a612a14565b5b80604052505050565b6000612a7e61263f565b9050612a8a8282612a43565b919050565b600067ffffffffffffffff821115612aaa57612aa9612a14565b5b612ab38261275d565b9050602081019050919050565b82818337600083830152505050565b6000612ae2612add84612a8f565b612a74565b905082815260208101848484011115612afe57612afd612a0f565b5b612b09848285612ac0565b509392505050565b600082601f830112612b2657612b25612a0a565b5b8135612b36848260208601612acf565b91505092915050565b60008060008060808587031215612b5957612b58612649565b5b6000612b678782880161289f565b9450506020612b788782880161289f565b9350506040612b89878288016127ea565b925050606085013567ffffffffffffffff811115612baa57612ba961264e565b5b612bb687828801612b11565b91505092959194509250565b600067ffffffffffffffff821115612bdd57612bdc612a14565b5b612be68261275d565b9050602081019050919050565b6000612c06612c0184612bc2565b612a74565b905082815260208101848484011115612c2257612c21612a0f565b5b612c2d848285612ac0565b509392505050565b600082601f830112612c4a57612c49612a0a565b5b8135612c5a848260208601612bf3565b91505092915050565b60008060408385031215612c7a57612c79612649565b5b6000612c888582860161289f565b925050602083013567ffffffffffffffff811115612ca957612ca861264e565b5b612cb585828601612c35565b9150509250929050565b60008060408385031215612cd657612cd5612649565b5b6000612ce48582860161289f565b9250506020612cf58582860161289f565b9150509250929050565b7f4e487b7100000000000000000000000000000000000000000000000000000000600052602260045260246000fd5b60006002820490506001821680612d4657607f821691505b60208210811415612d5a57612d59612cff565b5b50919050565b7f4552433732313a20617070726f76616c20746f2063757272656e74206f776e6560008201527f7200000000000000000000000000000000000000000000000000000000000000602082015250565b6000612dbc602183612719565b9150612dc782612d60565b604082019050919050565b60006020820190508181036000830152612deb81612daf565b9050919050565b7f4552433732313a20617070726f76652063616c6c6572206973206e6f7420746f60008201527f6b656e206f776e6572206f7220617070726f76656420666f7220616c6c000000602082015250565b6000612e4e603d83612719565b9150612e5982612df2565b604082019050919050565b60006020820190508181036000830152612e7d81612e41565b9050919050565b7f4552433732313a2063616c6c6572206973206e6f7420746f6b656e206f776e6560008201527f72206f7220617070726f76656400000000000000000000000000000000000000602082015250565b6000612ee0602d83612719565b9150612eeb82612e84565b604082019050919050565b60006020820190508181036000830152612f0f81612ed3565b9050919050565b7f455243373231456e756d657261626c653a206f776e657220696e646578206f7560008201527f74206f6620626f756e6473000000000000000000000000000000000000000000602082015250565b6000612f72602b83612719565b9150612f7d82612f16565b604082019050919050565b60006020820190508181036000830152612fa181612f65565b9050919050565b7f455243373231456e756d657261626c653a20676c6f62616c20696e646578206f60008201527f7574206f6620626f756e64730000000000000000000000000000000000000000602082015250565b6000613004602c83612719565b915061300f82612fa8565b604082019050919050565b6000602082019050818103600083015261303381612ff7565b9050919050565b7f4e487b7100000000000000000000000000000000000000000000000000000000600052603260045260246000fd5b7f4552433732313a20696e76616c696420746f6b656e2049440000000000000000600082015250565b600061309f601883612719565b91506130aa82613069565b602082019050919050565b600060208201905081810360008301526130ce81613092565b9050919050565b7f4552433732313a2061646472657373207a65726f206973206e6f74206120766160008201527f6c6964206f776e65720000000000000000000000000000000000000000000000602082015250565b6000613131602983612719565b915061313c826130d5565b604082019050919050565b6000602082019050818103600083015261316081613124565b9050919050565b7f4f776e61626c653a206e6577206f776e657220697320746865207a65726f206160008201527f6464726573730000000000000000000000000000000000000000000000000000602082015250565b60006131c3602683612719565b91506131ce82613167565b604082019050919050565b600060208201905081810360008301526131f2816131b6565b9050919050565b7f4552433732313a207472616e736665722066726f6d20696e636f72726563742060008201527f6f776e6572000000000000000000000000000000000000000000000000000000602082015250565b6000613255602583612719565b9150613260826131f9565b604082019050919050565b6000602082019050818103600083015261328481613248565b9050919050565b7f4552433732313a207472616e7366657220746f20746865207a65726f2061646460008201527f7265737300000000000000000000000000000000000000000000000000000000602082015250565b60006132e7602483612719565b91506132f28261328b565b604082019050919050565b60006020820190508181036000830152613316816132da565b9050919050565b7f4f776e61626c653a2063616c6c6572206973206e6f7420746865206f776e6572600082015250565b6000613353602083612719565b915061335e8261331d565b602082019050919050565b6000602082019050818103600083015261338281613346565b9050919050565b7f4552433732313a20617070726f766520746f2063616c6c657200000000000000600082015250565b60006133bf601983612719565b91506133ca82613389565b602082019050919050565b600060208201905081810360008301526133ee816133b2565b9050919050565b7f4552433732313a207472616e7366657220746f206e6f6e20455243373231526560008201527f63656976657220696d706c656d656e7465720000000000000000000000000000602082015250565b6000613451603283612719565b915061345c826133f5565b604082019050919050565b6000602082019050818103600083015261348081613444565b9050919050565b600081905092915050565b600061349d8261270e565b6134a78185613487565b93506134b781856020860161272a565b80840191505092915050565b60006134cf8285613492565b91506134db8284613492565b91508190509392505050565b7f45524337323155524953746f726167653a2055524920736574206f66206e6f6e60008201527f6578697374656e7420746f6b656e000000000000000000000000000000000000602082015250565b6000613543602e83612719565b915061354e826134e7565b604082019050919050565b6000602082019050818103600083015261357281613536565b9050919050565b600081519050919050565b600082825260208201905092915050565b60006135a082613579565b6135aa8185613584565b93506135ba81856020860161272a565b6135c38161275d565b840191505092915050565b60006080820190506135e3600083018761285e565b6135f0602083018661285e565b6135fd60408301856128f4565b818103606083015261360f8184613595565b905095945050505050565b6000815190506136298161267f565b92915050565b60006020828403121561364557613644612649565b5b60006136538482850161361a565b91505092915050565b7f455243373231456e756d657261626c653a20636f6e736563757469766520747260008201527f616e7366657273206e6f7420737570706f727465640000000000000000000000602082015250565b60006136b8603583612719565b91506136c38261365c565b604082019050919050565b600060208201905081810360008301526136e7816136ab565b9050919050565b7f4e487b7100000000000000000000000000000000000000000000000000000000600052601260045260246000fd5b7f4552433732313a206d696e7420746f20746865207a65726f2061646472657373600082015250565b6000613753602083612719565b915061375e8261371d565b602082019050919050565b6000602082019050818103600083015261378281613746565b9050919050565b7f4552433732313a20746f6b656e20616c7265616479206d696e74656400000000600082015250565b60006137bf601c83612719565b91506137ca82613789565b602082019050919050565b600060208201905081810360008301526137ee816137b2565b9050919050565b7f4e487b7100000000000000000000000000000000000000000000000000000000600052601160045260246000fd5b600061382f826127c9565b915061383a836127c9565b92508282101561384d5761384c6137f5565b5b828203905092915050565b7f4e487b7100000000000000000000000000000000000000000000000000000000600052603160045260246000fdfea26469706673582212203d7689dc76427ac44eedd4525819f8173a73958caeb85730cc47930721e8bd3564736f6c63430008090033",
  "linkReferences": {},
  "deployedLinkReferences": {}
}