{
  "_format": "hh-sol-artifact-1",
  "contractName": "stakeToken",
  "sourceName": "contracts/ExchangeCrypto.sol",
  "abi": [
    {
      "inputs": [],
      "stateMutability": "nonpayable",
      "type": "constructor"
    },
    {
      "inputs": [],
      "name": "InvalidShortString",
      "type": "error"
    },
    {
      "inputs": [
        {
          "internalType": "string",
          "name": "str",
          "type": "string"
        }
      ],
      "name": "StringTooLong",
      "type": "error"
    },
    {
      "anonymous": false,
      "inputs": [
        {
          "indexed": true,
          "internalType": "address",
          "name": "owner",
          "type": "address"
        },
        {
          "indexed": true,
          "internalType": "address",
          "name": "spender",
          "type": "address"
        },
        {
          "indexed": false,
          "internalType": "uint256",
          "name": "value",
          "type": "uint256"
        }
      ],
      "name": "Approval",
      "type": "event"
    },
    {
      "anonymous": false,
      "inputs": [
        {
          "indexed": true,
          "internalType": "address",
          "name": "delegator",
          "type": "address"
        },
        {
          "indexed": true,
          "internalType": "address",
          "name": "fromDelegate",
          "type": "address"
        },
        {
          "indexed": true,
          "internalType": "address",
          "name": "toDelegate",
          "type": "address"
        }
      ],
      "name": "DelegateChanged",
      "type": "event"
    },
    {
      "anonymous": false,
      "inputs": [
        {
          "indexed": true,
          "internalType": "address",
          "name": "delegate",
          "type": "address"
        },
        {
          "indexed": false,
          "internalType": "uint256",
          "name": "previousBalance",
          "type": "uint256"
        },
        {
          "indexed": false,
          "internalType": "uint256",
          "name": "newBalance",
          "type": "uint256"
        }
      ],
      "name": "DelegateVotesChanged",
      "type": "event"
    },
    {
      "anonymous": false,
      "inputs": [],
      "name": "EIP712DomainChanged",
      "type": "event"
    },
    {
      "anonymous": false,
      "inputs": [
        {
          "indexed": true,
          "internalType": "address",
          "name": "previousOwner",
          "type": "address"
        },
        {
          "indexed": true,
          "internalType": "address",
          "name": "newOwner",
          "type": "address"
        }
      ],
      "name": "OwnershipTransferred",
      "type": "event"
    },
    {
      "anonymous": false,
      "inputs": [
        {
          "indexed": true,
          "internalType": "address",
          "name": "from",
          "type": "address"
        },
        {
          "indexed": true,
          "internalType": "address",
          "name": "to",
          "type": "address"
        },
        {
          "indexed": false,
          "internalType": "uint256",
          "name": "value",
          "type": "uint256"
        }
      ],
      "name": "Transfer",
      "type": "event"
    },
    {
      "inputs": [],
      "name": "CLOCK_MODE",
      "outputs": [
        {
          "internalType": "string",
          "name": "",
          "type": "string"
        }
      ],
      "stateMutability": "view",
      "type": "function"
    },
    {
      "inputs": [],
      "name": "DOMAIN_SEPARATOR",
      "outputs": [
        {
          "internalType": "bytes32",
          "name": "",
          "type": "bytes32"
        }
      ],
      "stateMutability": "view",
      "type": "function"
    },
    {
      "inputs": [
        {
          "internalType": "address",
          "name": "owner",
          "type": "address"
        },
        {
          "internalType": "address",
          "name": "spender",
          "type": "address"
        }
      ],
      "name": "allowance",
      "outputs": [
        {
          "internalType": "uint256",
          "name": "",
          "type": "uint256"
        }
      ],
      "stateMutability": "view",
      "type": "function"
    },
    {
      "inputs": [
        {
          "internalType": "address",
          "name": "spender",
          "type": "address"
        },
        {
          "internalType": "uint256",
          "name": "amount",
          "type": "uint256"
        }
      ],
      "name": "approve",
      "outputs": [
        {
          "internalType": "bool",
          "name": "",
          "type": "bool"
        }
      ],
      "stateMutability": "nonpayable",
      "type": "function"
    },
    {
      "inputs": [
        {
          "internalType": "address",
          "name": "account",
          "type": "address"
        }
      ],
      "name": "balanceOf",
      "outputs": [
        {
          "internalType": "uint256",
          "name": "",
          "type": "uint256"
        }
      ],
      "stateMutability": "view",
      "type": "function"
    },
    {
      "inputs": [
        {
          "internalType": "uint256",
          "name": "amount",
          "type": "uint256"
        }
      ],
      "name": "burn",
      "outputs": [],
      "stateMutability": "nonpayable",
      "type": "function"
    },
    {
      "inputs": [
        {
          "internalType": "address",
          "name": "account",
          "type": "address"
        },
        {
          "internalType": "uint256",
          "name": "amount",
          "type": "uint256"
        }
      ],
      "name": "burnFrom",
      "outputs": [],
      "stateMutability": "nonpayable",
      "type": "function"
    },
    {
      "inputs": [
        {
          "internalType": "address",
          "name": "account",
          "type": "address"
        },
        {
          "internalType": "uint32",
          "name": "pos",
          "type": "uint32"
        }
      ],
      "name": "checkpoints",
      "outputs": [
        {
          "components": [
            {
              "internalType": "uint32",
              "name": "fromBlock",
              "type": "uint32"
            },
            {
              "internalType": "uint224",
              "name": "votes",
              "type": "uint224"
            }
          ],
          "internalType": "struct ERC20Votes.Checkpoint",
          "name": "",
          "type": "tuple"
        }
      ],
      "stateMutability": "view",
      "type": "function"
    },
    {
      "inputs": [],
      "name": "clock",
      "outputs": [
        {
          "internalType": "uint48",
          "name": "",
          "type": "uint48"
        }
      ],
      "stateMutability": "view",
      "type": "function"
    },
    {
      "inputs": [],
      "name": "decimals",
      "outputs": [
        {
          "internalType": "uint8",
          "name": "",
          "type": "uint8"
        }
      ],
      "stateMutability": "view",
      "type": "function"
    },
    {
      "inputs": [
        {
          "internalType": "address",
          "name": "spender",
          "type": "address"
        },
        {
          "internalType": "uint256",
          "name": "subtractedValue",
          "type": "uint256"
        }
      ],
      "name": "decreaseAllowance",
      "outputs": [
        {
          "internalType": "bool",
          "name": "",
          "type": "bool"
        }
      ],
      "stateMutability": "nonpayable",
      "type": "function"
    },
    {
      "inputs": [
        {
          "internalType": "address",
          "name": "delegatee",
          "type": "address"
        }
      ],
      "name": "delegate",
      "outputs": [],
      "stateMutability": "nonpayable",
      "type": "function"
    },
    {
      "inputs": [
        {
          "internalType": "address",
          "name": "delegatee",
          "type": "address"
        },
        {
          "internalType": "uint256",
          "name": "nonce",
          "type": "uint256"
        },
        {
          "internalType": "uint256",
          "name": "expiry",
          "type": "uint256"
        },
        {
          "internalType": "uint8",
          "name": "v",
          "type": "uint8"
        },
        {
          "internalType": "bytes32",
          "name": "r",
          "type": "bytes32"
        },
        {
          "internalType": "bytes32",
          "name": "s",
          "type": "bytes32"
        }
      ],
      "name": "delegateBySig",
      "outputs": [],
      "stateMutability": "nonpayable",
      "type": "function"
    },
    {
      "inputs": [
        {
          "internalType": "address",
          "name": "account",
          "type": "address"
        }
      ],
      "name": "delegates",
      "outputs": [
        {
          "internalType": "address",
          "name": "",
          "type": "address"
        }
      ],
      "stateMutability": "view",
      "type": "function"
    },
    {
      "inputs": [],
      "name": "eip712Domain",
      "outputs": [
        {
          "internalType": "bytes1",
          "name": "fields",
          "type": "bytes1"
        },
        {
          "internalType": "string",
          "name": "name",
          "type": "string"
        },
        {
          "internalType": "string",
          "name": "version",
          "type": "string"
        },
        {
          "internalType": "uint256",
          "name": "chainId",
          "type": "uint256"
        },
        {
          "internalType": "address",
          "name": "verifyingContract",
          "type": "address"
        },
        {
          "internalType": "bytes32",
          "name": "salt",
          "type": "bytes32"
        },
        {
          "internalType": "uint256[]",
          "name": "extensions",
          "type": "uint256[]"
        }
      ],
      "stateMutability": "view",
      "type": "function"
    },
    {
      "inputs": [
        {
          "internalType": "uint256",
          "name": "timepoint",
          "type": "uint256"
        }
      ],
      "name": "getPastTotalSupply",
      "outputs": [
        {
          "internalType": "uint256",
          "name": "",
          "type": "uint256"
        }
      ],
      "stateMutability": "view",
      "type": "function"
    },
    {
      "inputs": [
        {
          "internalType": "address",
          "name": "account",
          "type": "address"
        },
        {
          "internalType": "uint256",
          "name": "timepoint",
          "type": "uint256"
        }
      ],
      "name": "getPastVotes",
      "outputs": [
        {
          "internalType": "uint256",
          "name": "",
          "type": "uint256"
        }
      ],
      "stateMutability": "view",
      "type": "function"
    },
    {
      "inputs": [
        {
          "internalType": "address",
          "name": "account",
          "type": "address"
        }
      ],
      "name": "getVotes",
      "outputs": [
        {
          "internalType": "uint256",
          "name": "",
          "type": "uint256"
        }
      ],
      "stateMutability": "view",
      "type": "function"
    },
    {
      "inputs": [
        {
          "internalType": "address",
          "name": "spender",
          "type": "address"
        },
        {
          "internalType": "uint256",
          "name": "addedValue",
          "type": "uint256"
        }
      ],
      "name": "increaseAllowance",
      "outputs": [
        {
          "internalType": "bool",
          "name": "",
          "type": "bool"
        }
      ],
      "stateMutability": "nonpayable",
      "type": "function"
    },
    {
      "inputs": [
        {
          "internalType": "address",
          "name": "to",
          "type": "address"
        },
        {
          "internalType": "uint256",
          "name": "amount",
          "type": "uint256"
        }
      ],
      "name": "mint",
      "outputs": [],
      "stateMutability": "nonpayable",
      "type": "function"
    },
    {
      "inputs": [],
      "name": "name",
      "outputs": [
        {
          "internalType": "string",
          "name": "",
          "type": "string"
        }
      ],
      "stateMutability": "view",
      "type": "function"
    },
    {
      "inputs": [
        {
          "internalType": "address",
          "name": "owner",
          "type": "address"
        }
      ],
      "name": "nonces",
      "outputs": [
        {
          "internalType": "uint256",
          "name": "",
          "type": "uint256"
        }
      ],
      "stateMutability": "view",
      "type": "function"
    },
    {
      "inputs": [
        {
          "internalType": "address",
          "name": "account",
          "type": "address"
        }
      ],
      "name": "numCheckpoints",
      "outputs": [
        {
          "internalType": "uint32",
          "name": "",
          "type": "uint32"
        }
      ],
      "stateMutability": "view",
      "type": "function"
    },
    {
      "inputs": [],
      "name": "owner",
      "outputs": [
        {
          "internalType": "address",
          "name": "",
          "type": "address"
        }
      ],
      "stateMutability": "view",
      "type": "function"
    },
    {
      "inputs": [
        {
          "internalType": "address",
          "name": "owner",
          "type": "address"
        },
        {
          "internalType": "address",
          "name": "spender",
          "type": "address"
        },
        {
          "internalType": "uint256",
          "name": "value",
          "type": "uint256"
        },
        {
          "internalType": "uint256",
          "name": "deadline",
          "type": "uint256"
        },
        {
          "internalType": "uint8",
          "name": "v",
          "type": "uint8"
        },
        {
          "internalType": "bytes32",
          "name": "r",
          "type": "bytes32"
        },
        {
          "internalType": "bytes32",
          "name": "s",
          "type": "bytes32"
        }
      ],
      "name": "permit",
      "outputs": [],
      "stateMutability": "nonpayable",
      "type": "function"
    },
    {
      "inputs": [],
      "name": "renounceOwnership",
      "outputs": [],
      "stateMutability": "nonpayable",
      "type": "function"
    },
    {
      "inputs": [],
      "name": "symbol",
      "outputs": [
        {
          "internalType": "string",
          "name": "",
          "type": "string"
        }
      ],
      "stateMutability": "view",
      "type": "function"
    },
    {
      "inputs": [],
      "name": "totalSupply",
      "outputs": [
        {
          "internalType": "uint256",
          "name": "",
          "type": "uint256"
        }
      ],
      "stateMutability": "view",
      "type": "function"
    },
    {
      "inputs": [
        {
          "internalType": "address",
          "name": "to",
          "type": "address"
        },
        {
          "internalType": "uint256",
          "name": "amount",
          "type": "uint256"
        }
      ],
      "name": "transfer",
      "outputs": [
        {
          "internalType": "bool",
          "name": "",
          "type": "bool"
        }
      ],
      "stateMutability": "nonpayable",
      "type": "function"
    },
    {
      "inputs": [
        {
          "internalType": "address",
          "name": "from",
          "type": "address"
        },
        {
          "internalType": "address",
          "name": "to",
          "type": "address"
        },
        {
          "internalType": "uint256",
          "name": "amount",
          "type": "uint256"
        }
      ],
      "name": "transferFrom",
      "outputs": [
        {
          "internalType": "bool",
          "name": "",
          "type": "bool"
        }
      ],
      "stateMutability": "nonpayable",
      "type": "function"
    },
    {
      "inputs": [
        {
          "internalType": "address",
          "name": "newOwner",
          "type": "address"
        }
      ],
      "name": "transferOwnership",
      "outputs": [],
      "stateMutability": "nonpayable",
      "type": "function"
    }
  ],
  "bytecode": "0x6101606040523480156200001257600080fd5b506040518060400160405280600a81526020017f7374616b65546f6b656e00000000000000000000000000000000000000000000815250806040518060400160405280600181526020017f31000000000000000000000000000000000000000000000000000000000000008152506040518060400160405280600a81526020017f7374616b65546f6b656e000000000000000000000000000000000000000000008152506040518060400160405280600381526020017f73746b000000000000000000000000000000000000000000000000000000000081525081600390805190602001906200010492919062000407565b5080600490805190602001906200011d92919062000407565b50505062000140620001346200020160201b60201c565b6200020960201b60201c565b6200015b600683620002cf60201b620012d71790919060201c565b61012081815250506200017e600782620002cf60201b620012d71790919060201c565b6101408181525050818051906020012060e08181525050808051906020012061010081815250504660a08181525050620001bd6200033360201b60201c565b608081815250503073ffffffffffffffffffffffffffffffffffffffff1660c08173ffffffffffffffffffffffffffffffffffffffff16815250505050506200076b565b600033905090565b6000600560009054906101000a900473ffffffffffffffffffffffffffffffffffffffff16905081600560006101000a81548173ffffffffffffffffffffffffffffffffffffffff021916908373ffffffffffffffffffffffffffffffffffffffff1602179055508173ffffffffffffffffffffffffffffffffffffffff168173ffffffffffffffffffffffffffffffffffffffff167f8be0079c531659141344cd1fd0a4f28419497f9722a3daafe3b4186f6b6457e060405160405180910390a35050565b6000602083511015620002f557620002ed836200039060201b60201c565b90506200032d565b826200030c83620003fd60201b620013221760201c565b60000190805190602001906200032492919062000407565b5060ff60001b90505b92915050565b60007f8b73c3c69bb8fe3d512ecc4cf759cc79239f7b179b0ffacaa9a75d522b39400f60e0516101005146306040516020016200037595949392919062000532565b60405160208183030381529060405280519060200120905090565b600080829050601f81511115620003e057826040517f305a27a9000000000000000000000000000000000000000000000000000000008152600401620003d7919062000633565b60405180910390fd5b805181620003ee9062000696565b60001c1760001b915050919050565b6000819050919050565b828054620004159062000735565b90600052602060002090601f01602090048101928262000439576000855562000485565b82601f106200045457805160ff191683800117855562000485565b8280016001018555821562000485579182015b828111156200048457825182559160200191906001019062000467565b5b50905062000494919062000498565b5090565b5b80821115620004b357600081600090555060010162000499565b5090565b6000819050919050565b620004cc81620004b7565b82525050565b6000819050919050565b620004e781620004d2565b82525050565b600073ffffffffffffffffffffffffffffffffffffffff82169050919050565b60006200051a82620004ed565b9050919050565b6200052c816200050d565b82525050565b600060a082019050620005496000830188620004c1565b620005586020830187620004c1565b620005676040830186620004c1565b620005766060830185620004dc565b62000585608083018462000521565b9695505050505050565b600081519050919050565b600082825260208201905092915050565b60005b83811015620005cb578082015181840152602081019050620005ae565b83811115620005db576000848401525b50505050565b6000601f19601f8301169050919050565b6000620005ff826200058f565b6200060b81856200059a565b93506200061d818560208601620005ab565b6200062881620005e1565b840191505092915050565b600060208201905081810360008301526200064f8184620005f2565b905092915050565b600081519050919050565b6000819050602082019050919050565b6000620006808251620004b7565b80915050919050565b600082821b905092915050565b6000620006a38262000657565b82620006af8462000662565b9050620006bc8162000672565b92506020821015620006ff57620006fa7fffffffffffffffffffffffffffffffffffffffffffffffffffffffffffffffff8360200360080262000689565b831692505b5050919050565b7f4e487b7100000000000000000000000000000000000000000000000000000000600052602260045260246000fd5b600060028204905060018216806200074e57607f821691505b6020821081141562000765576200076462000706565b5b50919050565b60805160a05160c05160e051610100516101205161014051614877620007c66000396000610ae801526000610ab401526000611f4801526000611f27015260006118070152600061185d0152600061188601526148776000f3fe608060405234801561001057600080fd5b50600436106101e55760003560e01c8063715018a61161010f5780639ab24eb0116100a2578063d505accf11610071578063d505accf146105d4578063dd62ed3e146105f0578063f1127ed814610620578063f2fde38b14610650576101e5565b80639ab24eb014610528578063a457c2d714610558578063a9059cbb14610588578063c3cda520146105b8576101e5565b80638da5cb5b116100de5780638da5cb5b1461049e5780638e539e8c146104bc57806391ddadf4146104ec57806395d89b411461050a576101e5565b8063715018a61461042457806379cc67901461042e5780637ecebe001461044a57806384b0196e1461047a576101e5565b80633a46b1a811610187578063587cde1e11610156578063587cde1e146103785780635c19a95c146103a85780636fcfff45146103c457806370a08231146103f4576101e5565b80633a46b1a8146102f257806340c10f191461032257806342966c681461033e5780634bf5d7e91461035a576101e5565b806323b872dd116101c357806323b872dd14610256578063313ce567146102865780633644e515146102a457806339509351146102c2576101e5565b806306fdde03146101ea578063095ea7b31461020857806318160ddd14610238575b600080fd5b6101f261066c565b6040516101ff919061303c565b60405180910390f35b610222600480360381019061021d91906130f7565b6106fe565b60405161022f9190613152565b60405180910390f35b610240610721565b60405161024d919061317c565b60405180910390f35b610270600480360381019061026b9190613197565b61072b565b60405161027d9190613152565b60405180910390f35b61028e61075a565b60405161029b9190613206565b60405180910390f35b6102ac610763565b6040516102b9919061323a565b60405180910390f35b6102dc60048036038101906102d791906130f7565b610772565b6040516102e99190613152565b60405180910390f35b61030c600480360381019061030791906130f7565b6107a9565b604051610319919061317c565b60405180910390f35b61033c600480360381019061033791906130f7565b61084c565b005b61035860048036038101906103539190613255565b610862565b005b610362610876565b60405161036f919061303c565b60405180910390f35b610392600480360381019061038d9190613282565b610904565b60405161039f91906132be565b60405180910390f35b6103c260048036038101906103bd9190613282565b61096d565b005b6103de60048036038101906103d99190613282565b610981565b6040516103eb91906132f8565b60405180910390f35b61040e60048036038101906104099190613282565b6109d5565b60405161041b919061317c565b60405180910390f35b61042c610a1d565b005b610448600480360381019061044391906130f7565b610a31565b005b610464600480360381019061045f9190613282565b610a51565b604051610471919061317c565b60405180910390f35b610482610aa1565b604051610495979695949392919061340c565b60405180910390f35b6104a6610ba3565b6040516104b391906132be565b60405180910390f35b6104d660048036038101906104d19190613255565b610bcd565b6040516104e3919061317c565b60405180910390f35b6104f4610c32565b60405161050191906134b1565b60405180910390f35b610512610c42565b60405161051f919061303c565b60405180910390f35b610542600480360381019061053d9190613282565b610cd4565b60405161054f919061317c565b60405180910390f35b610572600480360381019061056d91906130f7565b610ddc565b60405161057f9190613152565b60405180910390f35b6105a2600480360381019061059d91906130f7565b610e53565b6040516105af9190613152565b60405180910390f35b6105d260048036038101906105cd9190613524565b610e76565b005b6105ee60048036038101906105e991906135b1565b610f7a565b005b61060a60048036038101906106059190613653565b6110bc565b604051610617919061317c565b60405180910390f35b61063a600480360381019061063591906136bf565b611143565b6040516106479190613774565b60405180910390f35b61066a60048036038101906106659190613282565b611253565b005b60606003805461067b906137be565b80601f01602080910402602001604051908101604052809291908181526020018280546106a7906137be565b80156106f45780601f106106c9576101008083540402835291602001916106f4565b820191906000526020600020905b8154815290600101906020018083116106d757829003601f168201915b5050505050905090565b60008061070961132c565b9050610716818585611334565b600191505092915050565b6000600254905090565b60008061073661132c565b90506107438582856114ff565b61074e85858561158b565b60019150509392505050565b60006012905090565b600061076d611803565b905090565b60008061077d61132c565b905061079e81858561078f85896110bc565b610799919061381f565b611334565b600191505092915050565b60006107b3610c32565b65ffffffffffff1682106107fc576040517f08c379a00000000000000000000000000000000000000000000000000000000081526004016107f3906138c1565b60405180910390fd5b610844600b60008573ffffffffffffffffffffffffffffffffffffffff1673ffffffffffffffffffffffffffffffffffffffff168152602001908152602001600020836118ba565b905092915050565b610854611a02565b61085e8282611a80565b5050565b61087361086d61132c565b82611a8e565b50565b606043610881610c32565b65ffffffffffff16146108c9576040517f08c379a00000000000000000000000000000000000000000000000000000000081526004016108c09061392d565b60405180910390fd5b6040518060400160405280601d81526020017f6d6f64653d626c6f636b6e756d6265722666726f6d3d64656661756c74000000815250905090565b6000600a60008373ffffffffffffffffffffffffffffffffffffffff1673ffffffffffffffffffffffffffffffffffffffff16815260200190815260200160002060009054906101000a900473ffffffffffffffffffffffffffffffffffffffff169050919050565b61097e61097861132c565b82611a9c565b50565b60006109ce600b60008473ffffffffffffffffffffffffffffffffffffffff1673ffffffffffffffffffffffffffffffffffffffff16815260200190815260200160002080549050611bb6565b9050919050565b60008060008373ffffffffffffffffffffffffffffffffffffffff1673ffffffffffffffffffffffffffffffffffffffff168152602001908152602001600020549050919050565b610a25611a02565b610a2f6000611c09565b565b610a4382610a3d61132c565b836114ff565b610a4d8282611a8e565b5050565b6000610a9a600860008473ffffffffffffffffffffffffffffffffffffffff1673ffffffffffffffffffffffffffffffffffffffff168152602001908152602001600020611ccf565b9050919050565b600060608060008060006060610ae160067f0000000000000000000000000000000000000000000000000000000000000000611cdd90919063ffffffff16565b610b1560077f0000000000000000000000000000000000000000000000000000000000000000611cdd90919063ffffffff16565b46306000801b600067ffffffffffffffff811115610b3657610b3561394d565b5b604051908082528060200260200182016040528015610b645781602001602082028036833780820191505090505b507f0f00000000000000000000000000000000000000000000000000000000000000959493929190965096509650965096509650965090919293949596565b6000600560009054906101000a900473ffffffffffffffffffffffffffffffffffffffff16905090565b6000610bd7610c32565b65ffffffffffff168210610c20576040517f08c379a0000000000000000000000000000000000000000000000000000000008152600401610c17906138c1565b60405180910390fd5b610c2b600c836118ba565b9050919050565b6000610c3d43611d8d565b905090565b606060048054610c51906137be565b80601f0160208091040260200160405190810160405280929190818152602001828054610c7d906137be565b8015610cca5780601f10610c9f57610100808354040283529160200191610cca565b820191906000526020600020905b815481529060010190602001808311610cad57829003601f168201915b5050505050905090565b600080600b60008473ffffffffffffffffffffffffffffffffffffffff1673ffffffffffffffffffffffffffffffffffffffff16815260200190815260200160002080549050905060008114610db357600b60008473ffffffffffffffffffffffffffffffffffffffff1673ffffffffffffffffffffffffffffffffffffffff1681526020019081526020016000206001820381548110610d7857610d7761397c565b5b9060005260206000200160000160049054906101000a90047bffffffffffffffffffffffffffffffffffffffffffffffffffffffff16610db6565b60005b7bffffffffffffffffffffffffffffffffffffffffffffffffffffffff16915050919050565b600080610de761132c565b90506000610df582866110bc565b905083811015610e3a576040517f08c379a0000000000000000000000000000000000000000000000000000000008152600401610e3190613a1d565b60405180910390fd5b610e478286868403611334565b60019250505092915050565b600080610e5e61132c565b9050610e6b81858561158b565b600191505092915050565b83421115610eb9576040517f08c379a0000000000000000000000000000000000000000000000000000000008152600401610eb090613a89565b60405180910390fd5b6000610f1b610f137fe48329057bfd03d55e49b547132e39cffd9c1820ad7b9d4c5307691425d15adf898989604051602001610ef89493929190613aa9565b60405160208183030381529060405280519060200120611de2565b858585611dfc565b9050610f2681611e27565b8614610f67576040517f08c379a0000000000000000000000000000000000000000000000000000000008152600401610f5e90613b3a565b60405180910390fd5b610f718188611a9c565b50505050505050565b83421115610fbd576040517f08c379a0000000000000000000000000000000000000000000000000000000008152600401610fb490613ba6565b60405180910390fd5b60007f6e71edae12b1b97f4d1f60370fef10105fa2faae0126114a169c64845d6126c9888888610fec8c611e27565b8960405160200161100296959493929190613bc6565b604051602081830303815290604052805190602001209050600061102582611de2565b9050600061103582878787611dfc565b90508973ffffffffffffffffffffffffffffffffffffffff168173ffffffffffffffffffffffffffffffffffffffff16146110a5576040517f08c379a000000000000000000000000000000000000000000000000000000000815260040161109c90613c73565b60405180910390fd5b6110b08a8a8a611334565b50505050505050505050565b6000600160008473ffffffffffffffffffffffffffffffffffffffff1673ffffffffffffffffffffffffffffffffffffffff16815260200190815260200160002060008373ffffffffffffffffffffffffffffffffffffffff1673ffffffffffffffffffffffffffffffffffffffff16815260200190815260200160002054905092915050565b61114b612ec2565b600b60008473ffffffffffffffffffffffffffffffffffffffff1673ffffffffffffffffffffffffffffffffffffffff1681526020019081526020016000208263ffffffff16815481106111a2576111a161397c565b5b906000526020600020016040518060400160405290816000820160009054906101000a900463ffffffff1663ffffffff1663ffffffff1681526020016000820160049054906101000a90047bffffffffffffffffffffffffffffffffffffffffffffffffffffffff167bffffffffffffffffffffffffffffffffffffffffffffffffffffffff167bffffffffffffffffffffffffffffffffffffffffffffffffffffffff1681525050905092915050565b61125b611a02565b600073ffffffffffffffffffffffffffffffffffffffff168173ffffffffffffffffffffffffffffffffffffffff1614156112cb576040517f08c379a00000000000000000000000000000000000000000000000000000000081526004016112c290613d05565b60405180910390fd5b6112d481611c09565b50565b60006020835110156112f3576112ec83611e85565b905061131c565b826112fd83611322565b6000019080519060200190611313929190612f00565b5060ff60001b90505b92915050565b6000819050919050565b600033905090565b600073ffffffffffffffffffffffffffffffffffffffff168373ffffffffffffffffffffffffffffffffffffffff1614156113a4576040517f08c379a000000000000000000000000000000000000000000000000000000000815260040161139b90613d97565b60405180910390fd5b600073ffffffffffffffffffffffffffffffffffffffff168273ffffffffffffffffffffffffffffffffffffffff161415611414576040517f08c379a000000000000000000000000000000000000000000000000000000000815260040161140b90613e29565b60405180910390fd5b80600160008573ffffffffffffffffffffffffffffffffffffffff1673ffffffffffffffffffffffffffffffffffffffff16815260200190815260200160002060008473ffffffffffffffffffffffffffffffffffffffff1673ffffffffffffffffffffffffffffffffffffffff168152602001908152602001600020819055508173ffffffffffffffffffffffffffffffffffffffff168373ffffffffffffffffffffffffffffffffffffffff167f8c5be1e5ebec7d5bd14f71427d1e84f3dd0314c0f7b2291e5b200ac8c7c3b925836040516114f2919061317c565b60405180910390a3505050565b600061150b84846110bc565b90507fffffffffffffffffffffffffffffffffffffffffffffffffffffffffffffffff81146115855781811015611577576040517f08c379a000000000000000000000000000000000000000000000000000000000815260040161156e90613e95565b60405180910390fd5b6115848484848403611334565b5b50505050565b600073ffffffffffffffffffffffffffffffffffffffff168373ffffffffffffffffffffffffffffffffffffffff1614156115fb576040517f08c379a00000000000000000000000000000000000000000000000000000000081526004016115f290613f27565b60405180910390fd5b600073ffffffffffffffffffffffffffffffffffffffff168273ffffffffffffffffffffffffffffffffffffffff16141561166b576040517f08c379a000000000000000000000000000000000000000000000000000000000815260040161166290613fb9565b60405180910390fd5b611676838383611eed565b60008060008573ffffffffffffffffffffffffffffffffffffffff1673ffffffffffffffffffffffffffffffffffffffff168152602001908152602001600020549050818110156116fc576040517f08c379a00000000000000000000000000000000000000000000000000000000081526004016116f39061404b565b60405180910390fd5b8181036000808673ffffffffffffffffffffffffffffffffffffffff1673ffffffffffffffffffffffffffffffffffffffff16815260200190815260200160002081905550816000808573ffffffffffffffffffffffffffffffffffffffff1673ffffffffffffffffffffffffffffffffffffffff168152602001908152602001600020600082825401925050819055508273ffffffffffffffffffffffffffffffffffffffff168473ffffffffffffffffffffffffffffffffffffffff167fddf252ad1be2c89b69c2b068fc378daa952ba7f163c4a11628f55a4df523b3ef846040516117ea919061317c565b60405180910390a36117fd848484611ef2565b50505050565b60007f000000000000000000000000000000000000000000000000000000000000000073ffffffffffffffffffffffffffffffffffffffff163073ffffffffffffffffffffffffffffffffffffffff1614801561187f57507f000000000000000000000000000000000000000000000000000000000000000046145b156118ac577f000000000000000000000000000000000000000000000000000000000000000090506118b7565b6118b4611f02565b90505b90565b6000808380549050905060008082905060058311156119305760006118de84611f98565b846118e9919061406b565b9050856118f68883612092565b60000160009054906101000a900463ffffffff1663ffffffff16111561191e5780915061192e565b60018161192b919061381f565b92505b505b5b8082101561199057600061194583836120a7565b9050856119528883612092565b60000160009054906101000a900463ffffffff1663ffffffff16111561197a5780915061198a565b600181611987919061381f565b92505b50611931565b600081146119d6576119a58660018303612092565b60000160049054906101000a90047bffffffffffffffffffffffffffffffffffffffffffffffffffffffff166119d9565b60005b7bffffffffffffffffffffffffffffffffffffffffffffffffffffffff16935050505092915050565b611a0a61132c565b73ffffffffffffffffffffffffffffffffffffffff16611a28610ba3565b73ffffffffffffffffffffffffffffffffffffffff1614611a7e576040517f08c379a0000000000000000000000000000000000000000000000000000000008152600401611a75906140eb565b60405180910390fd5b565b611a8a82826120cd565b5050565b611a98828261215a565b5050565b6000611aa783610904565b90506000611ab4846109d5565b905082600a60008673ffffffffffffffffffffffffffffffffffffffff1673ffffffffffffffffffffffffffffffffffffffff16815260200190815260200160002060006101000a81548173ffffffffffffffffffffffffffffffffffffffff021916908373ffffffffffffffffffffffffffffffffffffffff1602179055508273ffffffffffffffffffffffffffffffffffffffff168273ffffffffffffffffffffffffffffffffffffffff168573ffffffffffffffffffffffffffffffffffffffff167f3134e8a2e6d97e929a7e54011ea5485d7d196dd5f0ba4d4ef95803e8e3fc257f60405160405180910390a4611bb0828483612178565b50505050565b600063ffffffff8016821115611c01576040517f08c379a0000000000000000000000000000000000000000000000000000000008152600401611bf89061417d565b60405180910390fd5b819050919050565b6000600560009054906101000a900473ffffffffffffffffffffffffffffffffffffffff16905081600560006101000a81548173ffffffffffffffffffffffffffffffffffffffff021916908373ffffffffffffffffffffffffffffffffffffffff1602179055508173ffffffffffffffffffffffffffffffffffffffff168173ffffffffffffffffffffffffffffffffffffffff167f8be0079c531659141344cd1fd0a4f28419497f9722a3daafe3b4186f6b6457e060405160405180910390a35050565b600081600001549050919050565b606060ff60001b8314611cfa57611cf383612371565b9050611d87565b818054611d06906137be565b80601f0160208091040260200160405190810160405280929190818152602001828054611d32906137be565b8015611d7f5780601f10611d5457610100808354040283529160200191611d7f565b820191906000526020600020905b815481529060010190602001808311611d6257829003601f168201915b505050505090505b92915050565b600065ffffffffffff8016821115611dda576040517f08c379a0000000000000000000000000000000000000000000000000000000008152600401611dd19061420f565b60405180910390fd5b819050919050565b6000611df5611def611803565b836123e5565b9050919050565b6000806000611e0d87878787612426565b91509150611e1a81612509565b8192505050949350505050565b600080600860008473ffffffffffffffffffffffffffffffffffffffff1673ffffffffffffffffffffffffffffffffffffffff1681526020019081526020016000209050611e7481611ccf565b9150611e7f81612677565b50919050565b600080829050601f81511115611ed257826040517f305a27a9000000000000000000000000000000000000000000000000000000008152600401611ec9919061303c565b60405180910390fd5b805181611ede9061426c565b60001c1760001b915050919050565b505050565b611efd83838361268d565b505050565b60007f8b73c3c69bb8fe3d512ecc4cf759cc79239f7b179b0ffacaa9a75d522b39400f7f00000000000000000000000000000000000000000000000000000000000000007f00000000000000000000000000000000000000000000000000000000000000004630604051602001611f7d9594939291906142d3565b60405160208183030381529060405280519060200120905090565b600080821415611fab576000905061208d565b60006001611fb8846126b8565b901c6001901b90506001818481611fd257611fd1614326565b5b048201901c90506001818481611feb57611fea614326565b5b048201901c9050600181848161200457612003614326565b5b048201901c9050600181848161201d5761201c614326565b5b048201901c9050600181848161203657612035614326565b5b048201901c9050600181848161204f5761204e614326565b5b048201901c9050600181848161206857612067614326565b5b048201901c90506120898182858161208357612082614326565b5b04612799565b9150505b919050565b60008260005281602060002001905092915050565b600060028284186120b89190614355565b8284166120c5919061381f565b905092915050565b6120d782826127b2565b6120df612909565b7bffffffffffffffffffffffffffffffffffffffffffffffffffffffff16612105610721565b1115612146576040517f08c379a000000000000000000000000000000000000000000000000000000000815260040161213d906143f8565b60405180910390fd5b612154600c61292d83612943565b50505050565b6121648282612c1e565b612172600c612dec83612943565b50505050565b8173ffffffffffffffffffffffffffffffffffffffff168373ffffffffffffffffffffffffffffffffffffffff16141580156121b45750600081115b1561236c57600073ffffffffffffffffffffffffffffffffffffffff168373ffffffffffffffffffffffffffffffffffffffff16146122925760008061223b600b60008773ffffffffffffffffffffffffffffffffffffffff1673ffffffffffffffffffffffffffffffffffffffff168152602001908152602001600020612dec85612943565b915091508473ffffffffffffffffffffffffffffffffffffffff167fdec2bacdd2f05b59de34da9b523dff8be42e5e38e818c82fdb0bae774387a7248383604051612287929190614418565b60405180910390a250505b600073ffffffffffffffffffffffffffffffffffffffff168273ffffffffffffffffffffffffffffffffffffffff161461236b57600080612314600b60008673ffffffffffffffffffffffffffffffffffffffff1673ffffffffffffffffffffffffffffffffffffffff16815260200190815260200160002061292d85612943565b915091508373ffffffffffffffffffffffffffffffffffffffff167fdec2bacdd2f05b59de34da9b523dff8be42e5e38e818c82fdb0bae774387a7248383604051612360929190614418565b60405180910390a250505b5b505050565b6060600061237e83612e02565b90506000602067ffffffffffffffff81111561239d5761239c61394d565b5b6040519080825280601f01601f1916602001820160405280156123cf5781602001600182028036833780820191505090505b5090508181528360208201528092505050919050565b60006040517f190100000000000000000000000000000000000000000000000000000000000081528360028201528260228201526042812091505092915050565b6000807f7fffffffffffffffffffffffffffffff5d576e7357a4501ddfe92f46681b20a08360001c1115612461576000600391509150612500565b6000600187878787604051600081526020016040526040516124869493929190614441565b6020604051602081039080840390855afa1580156124a8573d6000803e3d6000fd5b505050602060405103519050600073ffffffffffffffffffffffffffffffffffffffff168173ffffffffffffffffffffffffffffffffffffffff1614156124f757600060019250925050612500565b80600092509250505b94509492505050565b6000600481111561251d5761251c614486565b5b8160048111156125305761252f614486565b5b141561253b57612674565b6001600481111561254f5761254e614486565b5b81600481111561256257612561614486565b5b14156125a3576040517f08c379a000000000000000000000000000000000000000000000000000000000815260040161259a90614501565b60405180910390fd5b600260048111156125b7576125b6614486565b5b8160048111156125ca576125c9614486565b5b141561260b576040517f08c379a00000000000000000000000000000000000000000000000000000000081526004016126029061456d565b60405180910390fd5b6003600481111561261f5761261e614486565b5b81600481111561263257612631614486565b5b1415612673576040517f08c379a000000000000000000000000000000000000000000000000000000000815260040161266a906145ff565b60405180910390fd5b5b50565b6001816000016000828254019250508190555050565b612698838383612e52565b6126b36126a484610904565b6126ad84610904565b83612178565b505050565b600080600090506000608084901c11156126da57608083901c92506080810190505b6000604084901c11156126f557604083901c92506040810190505b6000602084901c111561271057602083901c92506020810190505b6000601084901c111561272b57601083901c92506010810190505b6000600884901c111561274657600883901c92506008810190505b6000600484901c111561276157600483901c92506004810190505b6000600284901c111561277c57600283901c92506002810190505b6000600184901c1115612790576001810190505b80915050919050565b60008183106127a857816127aa565b825b905092915050565b600073ffffffffffffffffffffffffffffffffffffffff168273ffffffffffffffffffffffffffffffffffffffff161415612822576040517f08c379a00000000000000000000000000000000000000000000000000000000081526004016128199061466b565b60405180910390fd5b61282e60008383611eed565b8060026000828254612840919061381f565b92505081905550806000808473ffffffffffffffffffffffffffffffffffffffff1673ffffffffffffffffffffffffffffffffffffffff168152602001908152602001600020600082825401925050819055508173ffffffffffffffffffffffffffffffffffffffff16600073ffffffffffffffffffffffffffffffffffffffff167fddf252ad1be2c89b69c2b068fc378daa952ba7f163c4a11628f55a4df523b3ef836040516128f1919061317c565b60405180910390a361290560008383611ef2565b5050565b60007bffffffffffffffffffffffffffffffffffffffffffffffffffffffff905090565b6000818361293b919061381f565b905092915050565b6000806000858054905090506000808214612a09576129658760018403612092565b6040518060400160405290816000820160009054906101000a900463ffffffff1663ffffffff1663ffffffff1681526020016000820160049054906101000a90047bffffffffffffffffffffffffffffffffffffffffffffffffffffffff167bffffffffffffffffffffffffffffffffffffffffffffffffffffffff167bffffffffffffffffffffffffffffffffffffffffffffffffffffffff1681525050612a45565b6040518060400160405280600063ffffffff16815260200160007bffffffffffffffffffffffffffffffffffffffffffffffffffffffff168152505b905080602001517bffffffffffffffffffffffffffffffffffffffffffffffffffffffff169350612a7a84868863ffffffff16565b9250600082118015612aa45750612a8f610c32565b65ffffffffffff16816000015163ffffffff16145b15612b1557612ab283612e57565b612abf8860018503612092565b60000160046101000a8154817bffffffffffffffffffffffffffffffffffffffffffffffffffffffff02191690837bffffffffffffffffffffffffffffffffffffffffffffffffffffffff160217905550612c14565b866040518060400160405280612b39612b2c610c32565b65ffffffffffff16611bb6565b63ffffffff168152602001612b4d86612e57565b7bffffffffffffffffffffffffffffffffffffffffffffffffffffffff168152509080600181540180825580915050600190039060005260206000200160009091909190915060008201518160000160006101000a81548163ffffffff021916908363ffffffff16021790555060208201518160000160046101000a8154817bffffffffffffffffffffffffffffffffffffffffffffffffffffffff02191690837bffffffffffffffffffffffffffffffffffffffffffffffffffffffff16021790555050505b5050935093915050565b600073ffffffffffffffffffffffffffffffffffffffff168273ffffffffffffffffffffffffffffffffffffffff161415612c8e576040517f08c379a0000000000000000000000000000000000000000000000000000000008152600401612c85906146fd565b60405180910390fd5b612c9a82600083611eed565b60008060008473ffffffffffffffffffffffffffffffffffffffff1673ffffffffffffffffffffffffffffffffffffffff16815260200190815260200160002054905081811015612d20576040517f08c379a0000000000000000000000000000000000000000000000000000000008152600401612d179061478f565b60405180910390fd5b8181036000808573ffffffffffffffffffffffffffffffffffffffff1673ffffffffffffffffffffffffffffffffffffffff1681526020019081526020016000208190555081600260008282540392505081905550600073ffffffffffffffffffffffffffffffffffffffff168373ffffffffffffffffffffffffffffffffffffffff167fddf252ad1be2c89b69c2b068fc378daa952ba7f163c4a11628f55a4df523b3ef84604051612dd3919061317c565b60405180910390a3612de783600084611ef2565b505050565b60008183612dfa919061406b565b905092915050565b60008060ff8360001c169050601f811115612e49576040517fb3512b0c00000000000000000000000000000000000000000000000000000000815260040160405180910390fd5b80915050919050565b505050565b60007bffffffffffffffffffffffffffffffffffffffffffffffffffffffff8016821115612eba576040517f08c379a0000000000000000000000000000000000000000000000000000000008152600401612eb190614821565b60405180910390fd5b819050919050565b6040518060400160405280600063ffffffff16815260200160007bffffffffffffffffffffffffffffffffffffffffffffffffffffffff1681525090565b828054612f0c906137be565b90600052602060002090601f016020900481019282612f2e5760008555612f75565b82601f10612f4757805160ff1916838001178555612f75565b82800160010185558215612f75579182015b82811115612f74578251825591602001919060010190612f59565b5b509050612f829190612f86565b5090565b5b80821115612f9f576000816000905550600101612f87565b5090565b600081519050919050565b600082825260208201905092915050565b60005b83811015612fdd578082015181840152602081019050612fc2565b83811115612fec576000848401525b50505050565b6000601f19601f8301169050919050565b600061300e82612fa3565b6130188185612fae565b9350613028818560208601612fbf565b61303181612ff2565b840191505092915050565b600060208201905081810360008301526130568184613003565b905092915050565b600080fd5b600073ffffffffffffffffffffffffffffffffffffffff82169050919050565b600061308e82613063565b9050919050565b61309e81613083565b81146130a957600080fd5b50565b6000813590506130bb81613095565b92915050565b6000819050919050565b6130d4816130c1565b81146130df57600080fd5b50565b6000813590506130f1816130cb565b92915050565b6000806040838503121561310e5761310d61305e565b5b600061311c858286016130ac565b925050602061312d858286016130e2565b9150509250929050565b60008115159050919050565b61314c81613137565b82525050565b60006020820190506131676000830184613143565b92915050565b613176816130c1565b82525050565b6000602082019050613191600083018461316d565b92915050565b6000806000606084860312156131b0576131af61305e565b5b60006131be868287016130ac565b93505060206131cf868287016130ac565b92505060406131e0868287016130e2565b9150509250925092565b600060ff82169050919050565b613200816131ea565b82525050565b600060208201905061321b60008301846131f7565b92915050565b6000819050919050565b61323481613221565b82525050565b600060208201905061324f600083018461322b565b92915050565b60006020828403121561326b5761326a61305e565b5b6000613279848285016130e2565b91505092915050565b6000602082840312156132985761329761305e565b5b60006132a6848285016130ac565b91505092915050565b6132b881613083565b82525050565b60006020820190506132d360008301846132af565b92915050565b600063ffffffff82169050919050565b6132f2816132d9565b82525050565b600060208201905061330d60008301846132e9565b92915050565b60007fff0000000000000000000000000000000000000000000000000000000000000082169050919050565b61334881613313565b82525050565b600081519050919050565b600082825260208201905092915050565b6000819050602082019050919050565b613383816130c1565b82525050565b6000613395838361337a565b60208301905092915050565b6000602082019050919050565b60006133b98261334e565b6133c38185613359565b93506133ce8361336a565b8060005b838110156133ff5781516133e68882613389565b97506133f1836133a1565b9250506001810190506133d2565b5085935050505092915050565b600060e082019050613421600083018a61333f565b81810360208301526134338189613003565b905081810360408301526134478188613003565b9050613456606083018761316d565b61346360808301866132af565b61347060a083018561322b565b81810360c083015261348281846133ae565b905098975050505050505050565b600065ffffffffffff82169050919050565b6134ab81613490565b82525050565b60006020820190506134c660008301846134a2565b92915050565b6134d5816131ea565b81146134e057600080fd5b50565b6000813590506134f2816134cc565b92915050565b61350181613221565b811461350c57600080fd5b50565b60008135905061351e816134f8565b92915050565b60008060008060008060c087890312156135415761354061305e565b5b600061354f89828a016130ac565b965050602061356089828a016130e2565b955050604061357189828a016130e2565b945050606061358289828a016134e3565b935050608061359389828a0161350f565b92505060a06135a489828a0161350f565b9150509295509295509295565b600080600080600080600060e0888a0312156135d0576135cf61305e565b5b60006135de8a828b016130ac565b97505060206135ef8a828b016130ac565b96505060406136008a828b016130e2565b95505060606136118a828b016130e2565b94505060806136228a828b016134e3565b93505060a06136338a828b0161350f565b92505060c06136448a828b0161350f565b91505092959891949750929550565b6000806040838503121561366a5761366961305e565b5b6000613678858286016130ac565b9250506020613689858286016130ac565b9150509250929050565b61369c816132d9565b81146136a757600080fd5b50565b6000813590506136b981613693565b92915050565b600080604083850312156136d6576136d561305e565b5b60006136e4858286016130ac565b92505060206136f5858286016136aa565b9150509250929050565b613708816132d9565b82525050565b60007bffffffffffffffffffffffffffffffffffffffffffffffffffffffff82169050919050565b61373f8161370e565b82525050565b60408201600082015161375b60008501826136ff565b50602082015161376e6020850182613736565b50505050565b60006040820190506137896000830184613745565b92915050565b7f4e487b7100000000000000000000000000000000000000000000000000000000600052602260045260246000fd5b600060028204905060018216806137d657607f821691505b602082108114156137ea576137e961378f565b5b50919050565b7f4e487b7100000000000000000000000000000000000000000000000000000000600052601160045260246000fd5b600061382a826130c1565b9150613835836130c1565b9250827fffffffffffffffffffffffffffffffffffffffffffffffffffffffffffffffff0382111561386a576138696137f0565b5b828201905092915050565b7f4552433230566f7465733a20667574757265206c6f6f6b757000000000000000600082015250565b60006138ab601983612fae565b91506138b682613875565b602082019050919050565b600060208201905081810360008301526138da8161389e565b9050919050565b7f4552433230566f7465733a2062726f6b656e20636c6f636b206d6f6465000000600082015250565b6000613917601d83612fae565b9150613922826138e1565b602082019050919050565b600060208201905081810360008301526139468161390a565b9050919050565b7f4e487b7100000000000000000000000000000000000000000000000000000000600052604160045260246000fd5b7f4e487b7100000000000000000000000000000000000000000000000000000000600052603260045260246000fd5b7f45524332303a2064656372656173656420616c6c6f77616e63652062656c6f7760008201527f207a65726f000000000000000000000000000000000000000000000000000000602082015250565b6000613a07602583612fae565b9150613a12826139ab565b604082019050919050565b60006020820190508181036000830152613a36816139fa565b9050919050565b7f4552433230566f7465733a207369676e61747572652065787069726564000000600082015250565b6000613a73601d83612fae565b9150613a7e82613a3d565b602082019050919050565b60006020820190508181036000830152613aa281613a66565b9050919050565b6000608082019050613abe600083018761322b565b613acb60208301866132af565b613ad8604083018561316d565b613ae5606083018461316d565b95945050505050565b7f4552433230566f7465733a20696e76616c6964206e6f6e636500000000000000600082015250565b6000613b24601983612fae565b9150613b2f82613aee565b602082019050919050565b60006020820190508181036000830152613b5381613b17565b9050919050565b7f45524332305065726d69743a206578706972656420646561646c696e65000000600082015250565b6000613b90601d83612fae565b9150613b9b82613b5a565b602082019050919050565b60006020820190508181036000830152613bbf81613b83565b9050919050565b600060c082019050613bdb600083018961322b565b613be860208301886132af565b613bf560408301876132af565b613c02606083018661316d565b613c0f608083018561316d565b613c1c60a083018461316d565b979650505050505050565b7f45524332305065726d69743a20696e76616c6964207369676e61747572650000600082015250565b6000613c5d601e83612fae565b9150613c6882613c27565b602082019050919050565b60006020820190508181036000830152613c8c81613c50565b9050919050565b7f4f776e61626c653a206e6577206f776e657220697320746865207a65726f206160008201527f6464726573730000000000000000000000000000000000000000000000000000602082015250565b6000613cef602683612fae565b9150613cfa82613c93565b604082019050919050565b60006020820190508181036000830152613d1e81613ce2565b9050919050565b7f45524332303a20617070726f76652066726f6d20746865207a65726f2061646460008201527f7265737300000000000000000000000000000000000000000000000000000000602082015250565b6000613d81602483612fae565b9150613d8c82613d25565b604082019050919050565b60006020820190508181036000830152613db081613d74565b9050919050565b7f45524332303a20617070726f766520746f20746865207a65726f20616464726560008201527f7373000000000000000000000000000000000000000000000000000000000000602082015250565b6000613e13602283612fae565b9150613e1e82613db7565b604082019050919050565b60006020820190508181036000830152613e4281613e06565b9050919050565b7f45524332303a20696e73756666696369656e7420616c6c6f77616e6365000000600082015250565b6000613e7f601d83612fae565b9150613e8a82613e49565b602082019050919050565b60006020820190508181036000830152613eae81613e72565b9050919050565b7f45524332303a207472616e736665722066726f6d20746865207a65726f20616460008201527f6472657373000000000000000000000000000000000000000000000000000000602082015250565b6000613f11602583612fae565b9150613f1c82613eb5565b604082019050919050565b60006020820190508181036000830152613f4081613f04565b9050919050565b7f45524332303a207472616e7366657220746f20746865207a65726f206164647260008201527f6573730000000000000000000000000000000000000000000000000000000000602082015250565b6000613fa3602383612fae565b9150613fae82613f47565b604082019050919050565b60006020820190508181036000830152613fd281613f96565b9050919050565b7f45524332303a207472616e7366657220616d6f756e742065786365656473206260008201527f616c616e63650000000000000000000000000000000000000000000000000000602082015250565b6000614035602683612fae565b915061404082613fd9565b604082019050919050565b6000602082019050818103600083015261406481614028565b9050919050565b6000614076826130c1565b9150614081836130c1565b925082821015614094576140936137f0565b5b828203905092915050565b7f4f776e61626c653a2063616c6c6572206973206e6f7420746865206f776e6572600082015250565b60006140d5602083612fae565b91506140e08261409f565b602082019050919050565b60006020820190508181036000830152614104816140c8565b9050919050565b7f53616665436173743a2076616c756520646f65736e27742066697420696e203360008201527f3220626974730000000000000000000000000000000000000000000000000000602082015250565b6000614167602683612fae565b91506141728261410b565b604082019050919050565b600060208201905081810360008301526141968161415a565b9050919050565b7f53616665436173743a2076616c756520646f65736e27742066697420696e203460008201527f3820626974730000000000000000000000000000000000000000000000000000602082015250565b60006141f9602683612fae565b91506142048261419d565b604082019050919050565b60006020820190508181036000830152614228816141ec565b9050919050565b600081519050919050565b6000819050602082019050919050565b60006142568251613221565b80915050919050565b600082821b905092915050565b60006142778261422f565b826142818461423a565b905061428c8161424a565b925060208210156142cc576142c77fffffffffffffffffffffffffffffffffffffffffffffffffffffffffffffffff8360200360080261425f565b831692505b5050919050565b600060a0820190506142e8600083018861322b565b6142f5602083018761322b565b614302604083018661322b565b61430f606083018561316d565b61431c60808301846132af565b9695505050505050565b7f4e487b7100000000000000000000000000000000000000000000000000000000600052601260045260246000fd5b6000614360826130c1565b915061436b836130c1565b92508261437b5761437a614326565b5b828204905092915050565b7f4552433230566f7465733a20746f74616c20737570706c79207269736b73206f60008201527f766572666c6f77696e6720766f74657300000000000000000000000000000000602082015250565b60006143e2603083612fae565b91506143ed82614386565b604082019050919050565b60006020820190508181036000830152614411816143d5565b9050919050565b600060408201905061442d600083018561316d565b61443a602083018461316d565b9392505050565b6000608082019050614456600083018761322b565b61446360208301866131f7565b614470604083018561322b565b61447d606083018461322b565b95945050505050565b7f4e487b7100000000000000000000000000000000000000000000000000000000600052602160045260246000fd5b7f45434453413a20696e76616c6964207369676e61747572650000000000000000600082015250565b60006144eb601883612fae565b91506144f6826144b5565b602082019050919050565b6000602082019050818103600083015261451a816144de565b9050919050565b7f45434453413a20696e76616c6964207369676e6174757265206c656e67746800600082015250565b6000614557601f83612fae565b915061456282614521565b602082019050919050565b600060208201905081810360008301526145868161454a565b9050919050565b7f45434453413a20696e76616c6964207369676e6174757265202773272076616c60008201527f7565000000000000000000000000000000000000000000000000000000000000602082015250565b60006145e9602283612fae565b91506145f48261458d565b604082019050919050565b60006020820190508181036000830152614618816145dc565b9050919050565b7f45524332303a206d696e7420746f20746865207a65726f206164647265737300600082015250565b6000614655601f83612fae565b91506146608261461f565b602082019050919050565b6000602082019050818103600083015261468481614648565b9050919050565b7f45524332303a206275726e2066726f6d20746865207a65726f2061646472657360008201527f7300000000000000000000000000000000000000000000000000000000000000602082015250565b60006146e7602183612fae565b91506146f28261468b565b604082019050919050565b60006020820190508181036000830152614716816146da565b9050919050565b7f45524332303a206275726e20616d6f756e7420657863656564732062616c616e60008201527f6365000000000000000000000000000000000000000000000000000000000000602082015250565b6000614779602283612fae565b91506147848261471d565b604082019050919050565b600060208201905081810360008301526147a88161476c565b9050919050565b7f53616665436173743a2076616c756520646f65736e27742066697420696e203260008201527f3234206269747300000000000000000000000000000000000000000000000000602082015250565b600061480b602783612fae565b9150614816826147af565b604082019050919050565b6000602082019050818103600083015261483a816147fe565b905091905056fea2646970667358221220e9c8f60567be938930d638d1ef06dc46e45d6486680449140425095a5cf3abfc64736f6c63430008090033",
  "linkReferences": {},
  "deployedLinkReferences": {}
}